{"abi":[{"type":"constructor","inputs":[{"name":"uniV4","type":"address","internalType":"contract IPoolManager"},{"name":"owner","type":"address","internalType":"address"}],"stateMutability":"nonpayable"},{"type":"receive","stateMutability":"payable"},{"type":"function","name":"FACTORY","inputs":[],"outputs":[{"name":"","type":"address","internalType":"address"}],"stateMutability":"view"},{"type":"function","name":"afterAddLiquidity","inputs":[{"name":"sender","type":"address","internalType":"address"},{"name":"key","type":"tuple","internalType":"struct PoolKey","components":[{"name":"currency0","type":"address","internalType":"Currency"},{"name":"currency1","type":"address","internalType":"Currency"},{"name":"fee","type":"uint24","internalType":"uint24"},{"name":"tickSpacing","type":"int24","internalType":"int24"},{"name":"hooks","type":"address","internalType":"contract IHooks"}]},{"name":"params","type":"tuple","internalType":"struct ModifyLiquidityParams","components":[{"name":"tickLower","type":"int24","internalType":"int24"},{"name":"tickUpper","type":"int24","internalType":"int24"},{"name":"liquidityDelta","type":"int256","internalType":"int256"},{"name":"salt","type":"bytes32","internalType":"bytes32"}]},{"name":"","type":"int256","internalType":"BalanceDelta"},{"name":"","type":"int256","internalType":"BalanceDelta"},{"name":"","type":"bytes","internalType":"bytes"}],"outputs":[{"name":"","type":"bytes4","internalType":"bytes4"},{"name":"","type":"int256","internalType":"BalanceDelta"}],"stateMutability":"nonpayable"},{"type":"function","name":"afterRemoveLiquidity","inputs":[{"name":"sender","type":"address","internalType":"address"},{"name":"key","type":"tuple","internalType":"struct PoolKey","components":[{"name":"currency0","type":"address","internalType":"Currency"},{"name":"currency1","type":"address","internalType":"Currency"},{"name":"fee","type":"uint24","internalType":"uint24"},{"name":"tickSpacing","type":"int24","internalType":"int24"},{"name":"hooks","type":"address","internalType":"contract IHooks"}]},{"name":"params","type":"tuple","internalType":"struct ModifyLiquidityParams","components":[{"name":"tickLower","type":"int24","internalType":"int24"},{"name":"tickUpper","type":"int24","internalType":"int24"},{"name":"liquidityDelta","type":"int256","internalType":"int256"},{"name":"salt","type":"bytes32","internalType":"bytes32"}]},{"name":"","type":"int256","internalType":"BalanceDelta"},{"name":"","type":"int256","internalType":"BalanceDelta"},{"name":"","type":"bytes","internalType":"bytes"}],"outputs":[{"name":"","type":"bytes4","internalType":"bytes4"},{"name":"","type":"int256","internalType":"BalanceDelta"}],"stateMutability":"nonpayable"},{"type":"function","name":"afterSwap","inputs":[{"name":"","type":"address","internalType":"address"},{"name":"key","type":"tuple","internalType":"struct PoolKey","components":[{"name":"currency0","type":"address","internalType":"Currency"},{"name":"currency1","type":"address","internalType":"Currency"},{"name":"fee","type":"uint24","internalType":"uint24"},{"name":"tickSpacing","type":"int24","internalType":"int24"},{"name":"hooks","type":"address","internalType":"contract IHooks"}]},{"name":"params","type":"tuple","internalType":"struct SwapParams","components":[{"name":"zeroForOne","type":"bool","internalType":"bool"},{"name":"amountSpecified","type":"int256","internalType":"int256"},{"name":"sqrtPriceLimitX96","type":"uint160","internalType":"uint160"}]},{"name":"swapDelta","type":"int256","internalType":"BalanceDelta"},{"name":"","type":"bytes","internalType":"bytes"}],"outputs":[{"name":"","type":"bytes4","internalType":"bytes4"},{"name":"hookDeltaUnspecified","type":"int128","internalType":"int128"}],"stateMutability":"nonpayable"},{"type":"function","name":"beforeInitialize","inputs":[{"name":"","type":"address","internalType":"address"},{"name":"","type":"tuple","internalType":"struct PoolKey","components":[{"name":"currency0","type":"address","internalType":"Currency"},{"name":"currency1","type":"address","internalType":"Currency"},{"name":"fee","type":"uint24","internalType":"uint24"},{"name":"tickSpacing","type":"int24","internalType":"int24"},{"name":"hooks","type":"address","internalType":"contract IHooks"}]},{"name":"","type":"uint160","internalType":"uint160"}],"outputs":[{"name":"","type":"bytes4","internalType":"bytes4"}],"stateMutability":"pure"},{"type":"function","name":"beforeSwap","inputs":[{"name":"","type":"address","internalType":"address"},{"name":"key","type":"tuple","internalType":"struct PoolKey","components":[{"name":"currency0","type":"address","internalType":"Currency"},{"name":"currency1","type":"address","internalType":"Currency"},{"name":"fee","type":"uint24","internalType":"uint24"},{"name":"tickSpacing","type":"int24","internalType":"int24"},{"name":"hooks","type":"address","internalType":"contract IHooks"}]},{"name":"params","type":"tuple","internalType":"struct SwapParams","components":[{"name":"zeroForOne","type":"bool","internalType":"bool"},{"name":"amountSpecified","type":"int256","internalType":"int256"},{"name":"sqrtPriceLimitX96","type":"uint160","internalType":"uint160"}]},{"name":"","type":"bytes","internalType":"bytes"}],"outputs":[{"name":"","type":"bytes4","internalType":"bytes4"},{"name":"","type":"int256","internalType":"BeforeSwapDelta"},{"name":"","type":"uint24","internalType":"uint24"}],"stateMutability":"nonpayable"},{"type":"function","name":"cancelOwnershipHandover","inputs":[],"outputs":[],"stateMutability":"payable"},{"type":"function","name":"completeOwnershipHandover","inputs":[{"name":"pendingOwner","type":"address","internalType":"address"}],"outputs":[],"stateMutability":"payable"},{"type":"function","name":"getJitTaxAmount","inputs":[{"name":"priorityFee","type":"uint256","internalType":"uint256"}],"outputs":[{"name":"","type":"uint256","internalType":"uint256"}],"stateMutability":"pure"},{"type":"function","name":"getPendingPositionRewards","inputs":[{"name":"key","type":"tuple","internalType":"struct PoolKey","components":[{"name":"currency0","type":"address","internalType":"Currency"},{"name":"currency1","type":"address","internalType":"Currency"},{"name":"fee","type":"uint24","internalType":"uint24"},{"name":"tickSpacing","type":"int24","internalType":"int24"},{"name":"hooks","type":"address","internalType":"contract IHooks"}]},{"name":"owner","type":"address","internalType":"address"},{"name":"lowerTick","type":"int24","internalType":"int24"},{"name":"upperTick","type":"int24","internalType":"int24"},{"name":"salt","type":"bytes32","internalType":"bytes32"}],"outputs":[{"name":"rewards0","type":"uint256","internalType":"uint256"}],"stateMutability":"view"},{"type":"function","name":"getPoolFeeConfiguration","inputs":[{"name":"key","type":"tuple","internalType":"struct PoolKey","components":[{"name":"currency0","type":"address","internalType":"Currency"},{"name":"currency1","type":"address","internalType":"Currency"},{"name":"fee","type":"uint24","internalType":"uint24"},{"name":"tickSpacing","type":"int24","internalType":"int24"},{"name":"hooks","type":"address","internalType":"contract IHooks"}]}],"outputs":[{"name":"","type":"tuple","internalType":"struct AngstromL2.PoolFeeConfiguration","components":[{"name":"isInitialized","type":"bool","internalType":"bool"},{"name":"creatorTaxFeeE6","type":"uint24","internalType":"uint24"},{"name":"protocolTaxFeeE6","type":"uint24","internalType":"uint24"},{"name":"creatorSwapFeeE6","type":"uint24","internalType":"uint24"},{"name":"protocolSwapFeeE6","type":"uint24","internalType":"uint24"}]}],"stateMutability":"view"},{"type":"function","name":"getSwapTaxAmount","inputs":[{"name":"priorityFee","type":"uint256","internalType":"uint256"}],"outputs":[{"name":"","type":"uint256","internalType":"uint256"}],"stateMutability":"pure"},{"type":"function","name":"initializeNewPool","inputs":[{"name":"key","type":"tuple","internalType":"struct PoolKey","components":[{"name":"currency0","type":"address","internalType":"Currency"},{"name":"currency1","type":"address","internalType":"Currency"},{"name":"fee","type":"uint24","internalType":"uint24"},{"name":"tickSpacing","type":"int24","internalType":"int24"},{"name":"hooks","type":"address","internalType":"contract IHooks"}]},{"name":"sqrtPriceX96","type":"uint160","internalType":"uint160"},{"name":"creatorSwapFeeE6","type":"uint24","internalType":"uint24"},{"name":"creatorTaxFeeE6","type":"uint24","internalType":"uint24"}],"outputs":[],"stateMutability":"nonpayable"},{"type":"function","name":"owner","inputs":[],"outputs":[{"name":"result","type":"address","internalType":"address"}],"stateMutability":"view"},{"type":"function","name":"ownershipHandoverExpiresAt","inputs":[{"name":"pendingOwner","type":"address","internalType":"address"}],"outputs":[{"name":"result","type":"uint256","internalType":"uint256"}],"stateMutability":"view"},{"type":"function","name":"pullWidthrawOnly","inputs":[],"outputs":[],"stateMutability":"nonpayable"},{"type":"function","name":"renounceOwnership","inputs":[],"outputs":[],"stateMutability":"payable"},{"type":"function","name":"requestOwnershipHandover","inputs":[],"outputs":[],"stateMutability":"payable"},{"type":"function","name":"setProtocolSwapFee","inputs":[{"name":"key","type":"tuple","internalType":"struct PoolKey","components":[{"name":"currency0","type":"address","internalType":"Currency"},{"name":"currency1","type":"address","internalType":"Currency"},{"name":"fee","type":"uint24","internalType":"uint24"},{"name":"tickSpacing","type":"int24","internalType":"int24"},{"name":"hooks","type":"address","internalType":"contract IHooks"}]},{"name":"newFeeE6","type":"uint256","internalType":"uint256"}],"outputs":[],"stateMutability":"nonpayable"},{"type":"function","name":"setProtocolTaxFee","inputs":[{"name":"key","type":"tuple","internalType":"struct PoolKey","components":[{"name":"currency0","type":"address","internalType":"Currency"},{"name":"currency1","type":"address","internalType":"Currency"},{"name":"fee","type":"uint24","internalType":"uint24"},{"name":"tickSpacing","type":"int24","internalType":"int24"},{"name":"hooks","type":"address","internalType":"contract IHooks"}]},{"name":"newFeeE6","type":"uint256","internalType":"uint256"}],"outputs":[],"stateMutability":"nonpayable"},{"type":"function","name":"transferOwnership","inputs":[{"name":"newOwner","type":"address","internalType":"address"}],"outputs":[],"stateMutability":"payable"},{"type":"function","name":"withdrawCreatorRevenue","inputs":[{"name":"currency","type":"address","internalType":"Currency"},{"name":"to","type":"address","internalType":"address"},{"name":"amount","type":"uint256","internalType":"uint256"}],"outputs":[],"stateMutability":"nonpayable"},{"type":"event","name":"OwnershipHandoverCanceled","inputs":[{"name":"pendingOwner","type":"address","indexed":true,"internalType":"address"}],"anonymous":false},{"type":"event","name":"OwnershipHandoverRequested","inputs":[{"name":"pendingOwner","type":"address","indexed":true,"internalType":"address"}],"anonymous":false},{"type":"event","name":"OwnershipTransferred","inputs":[{"name":"oldOwner","type":"address","indexed":true,"internalType":"address"},{"name":"newOwner","type":"address","indexed":true,"internalType":"address"}],"anonymous":false},{"type":"error","name":"AlreadyInitialized","inputs":[]},{"type":"error","name":"CreatorFeeExceedsMaximum","inputs":[]},{"type":"error","name":"DivisorZero","inputs":[]},{"type":"error","name":"IncompatiblePoolConfiguration","inputs":[]},{"type":"error","name":"InvalidRange","inputs":[]},{"type":"error","name":"NegativeDeltaForAdd","inputs":[]},{"type":"error","name":"NewOwnerIsZeroAddress","inputs":[]},{"type":"error","name":"NoHandoverRequest","inputs":[]},{"type":"error","name":"NoNext","inputs":[]},{"type":"error","name":"NotUniswap","inputs":[]},{"type":"error","name":"Overflow","inputs":[]},{"type":"error","name":"PoolAlreadyInitialized","inputs":[]},{"type":"error","name":"PoolNotInitialized","inputs":[]},{"type":"error","name":"PositiveDeltaForRemove","inputs":[]},{"type":"error","name":"RewardOverflow","inputs":[]},{"type":"error","name":"TotalFeeAboveOneHundredPercent","inputs":[]},{"type":"error","name":"Unauthorized","inputs":[]},{"type":"error","name":"Underflow","inputs":[]},{"type":"error","name":"WithdrawOnlyMode","inputs":[]}],"bytecode":{"object":"0x60c06040526001805460ff19169055348015610019575f80fd5b506040516157193803806157198339810160408190526100389161028d565b6001600160a01b03821660805261004e816100d8565b3360a0526100d1306100cc604080516101c0810182525f60208201819052918101829052608081018290526101008101829052610120810191909152600180825260608201819052610180820181905260a082018190526101a0820181905260c0820181905260e08201819052610140820181905261016082015290565b610114565b50506102c5565b6001600160a01b0316638b78c6d819819055805f7f8be0079c531659141344cd1fd0a4f28419497f9722a3daafe3b4186f6b6457e08180a35b50565b80511515612000831615151415806101385750602081015115156110008316151514155b8061014f5750604081015115156108008316151514155b806101665750606081015115156104008316151514155b8061017d5750608081015115156102008316151514155b80610194575060a081015115156101008316151514155b806101aa575060c0810151151560808316151514155b806101c0575060e0810151151560408316151514155b806101d75750610100810151151560208316151514155b806101ee5750610120810151151560108316151514155b806102055750610140810151151560088316151514155b8061021c5750610160810151151560048316151514155b806102335750610180810151151560028316151514155b8061024a57506101a0810151151560018316151514155b1561026057610260630732d7b560e51b83610264565b5050565b815f526001600160a01b03811660045260245ffd5b6001600160a01b0381168114610111575f80fd5b5f806040838503121561029e575f80fd5b82516102a981610279565b60208401519092506102ba81610279565b809150509250929050565b60805160a0516153536103c65f395f81816101960152818161095201528181610bf701528181610e4101528181611126015281816114b60152818161168101528181611fad0152818161228201528181612421015261259501525f8181610755015281816107a0015281816108c40152818161098101528181610a1a01528181610bc101528181610dc601528181610e7001528181610f4c01528181610f8f0152818161137b015281816117ec01528181611f1301528181611fdc015281816120ed0152818161218b015281816122450152818161237401528181612450015281816124f9015281816125c4015281816126c0015261276f01526153535ff3fe608060405260043610610170575f3560e01c80638da5cb5b116100c6578063cbceaa2c1161007c578063f04e283e11610057578063f04e283e14610518578063f2fde38b1461052b578063fee81cf41461053e575f80fd5b8063cbceaa2c1461048a578063d8c320e7146104a9578063dc98354e146104c8575f80fd5b80639f063efc116100ac5780639f063efc146103f2578063b47b2fb114610411578063c9f5145a1461046b575f80fd5b80638da5cb5b146103495780639938b2861461037c575f80fd5b8063575e24b4116101265780637668bc6e116101015780637668bc6e146102f75780637b4c7aab14610316578063880bc6cb14610335575f80fd5b8063575e24b4146102365780636c2bbe7e14610298578063715018a6146102ef575f80fd5b806330cd3cf11161015657806330cd3cf1146101e2578063522733661461020f57806354d1f13d1461022e575f80fd5b8063256929621461017b5780632dd3100014610185575f80fd5b3661017757005b5f80fd5b61018361056f565b005b348015610190575f80fd5b506101b87f000000000000000000000000000000000000000000000000000000000000000081565b60405173ffffffffffffffffffffffffffffffffffffffff90911681526020015b60405180910390f35b3480156101ed575f80fd5b506102016101fc366004614af0565b6105bc565b6040519081526020016101d9565b34801561021a575f80fd5b50610183610229366004614b1d565b6105f4565b6101836106ab565b348015610241575f80fd5b50610255610250366004614bb5565b6106e4565b604080517fffffffff000000000000000000000000000000000000000000000000000000009094168452602084019290925262ffffff16908201526060016101d9565b3480156102a3575f80fd5b506102b76102b2366004614c2c565b610864565b604080517fffffffff0000000000000000000000000000000000000000000000000000000090931683526020830191909152016101d9565b610183610ae1565b348015610302575f80fd5b50610183610311366004614b1d565b610af4565b348015610321575f80fd5b50610201610330366004614ced565b610ba0565b348015610340575f80fd5b50610183610bf5565b348015610354575f80fd5b507fffffffffffffffffffffffffffffffffffffffffffffffffffffffff74873927546101b8565b348015610387575f80fd5b5061039b610396366004614d4e565b610cb3565b6040516101d991905f60a08201905082511515825262ffffff602084015116602083015262ffffff604084015116604083015262ffffff606084015116606083015262ffffff608084015116608083015292915050565b3480156103fd575f80fd5b506102b761040c366004614c2c565b610d5f565b34801561041c575f80fd5b5061043061042b366004614d68565b610f07565b604080517fffffffff000000000000000000000000000000000000000000000000000000009093168352600f9190910b6020830152016101d9565b348015610476575f80fd5b50610201610485366004614af0565b6110a8565b348015610495575f80fd5b506101836104a4366004614df9565b6110b8565b3480156104b4575f80fd5b506101836104c3366004614e52565b6115aa565b3480156104d3575f80fd5b506104e76104e2366004614e90565b6115d3565b6040517fffffffff0000000000000000000000000000000000000000000000000000000090911681526020016101d9565b610183610526366004614ed7565b611606565b610183610539366004614ed7565b611643565b348015610549575f80fd5b50610201610558366004614ed7565b63389a75e1600c9081525f91909152602090205490565b5f6202a30067ffffffffffffffff164201905063389a75e1600c52335f52806020600c2055337fdbf36a107da19e49527a7176a1babf963b4b0ff8cde35ee35d6cd8f1f9ac7e1d5f80a250565b5f81620186a060026105d060316003614f1f565b6105da9190614f63565b6105e49190614f1f565b6105ee9190614f1f565b92915050565b6105fc611669565b5f60025f610609856116d8565b815260208101919091526040015f20805490915060ff16610656576040517f486aa30700000000000000000000000000000000000000000000000000000000815260040160405180910390fd5b61065f826116ec565b815462ffffff919091166a0100000000000000000000027fffffffffffffffffffffffffffffffffffffff000000ffffffffffffffffffff9091161781556106a681611704565b505050565b63389a75e1600c52335f525f6020600c2055337ffa7b8eab7da67f412cc9575ed43464468f9bfbae89d1675917346ca6d8fe3c925f80a2565b5f805f6106ef6117d4565b60015460ff161561072c576040517fad1c9c2800000000000000000000000000000000000000000000000000000000815260040160405180910390fd5b5f610736886116d8565b905061078361077b73ffffffffffffffffffffffffffffffffffffffff7f00000000000000000000000000000000000000000000000000000000000000001683611843565b600490611878565b6107e06107c673ffffffffffffffffffffffffffffffffffffffff7f0000000000000000000000000000000000000000000000000000000000000000168361187f565b6003906fffffffffffffffffffffffffffffffff16611878565b5f6107f16107ec6118b9565b6118d6565b90505f602089018035821390610807908b614fa8565b15151490507f575e24b4000000000000000000000000000000000000000000000000000000008161084a576fffffffffffffffffffffffffffffffff8316610850565b608083901b5b909c909b505f9a5098505050505050505050565b5f8061086e6117d4565b60015460ff16156108a357507f6c2bbe7e0000000000000000000000000000000000000000000000000000000090505f610ad5565b5f6108ad896116d8565b5f818152602081905260408120919250906108eb907f0000000000000000000000000000000000000000000000000000000000000000848e8d6118f6565b90505f60408a01351561090557610900611a74565b610907565b5f5b905080156109d9576040517f0b0d9c090000000000000000000000000000000000000000000000000000000081525f600482015273ffffffffffffffffffffffffffffffffffffffff7f000000000000000000000000000000000000000000000000000000000000000081166024830152604482018390527f00000000000000000000000000000000000000000000000000000000000000001690630b0d9c09906064015f604051808303815f87803b1580156109c2575f80fd5b505af11580156109d4573d5f803e3d5ffd5b505050505b8115610a87576040517ff5298aca0000000000000000000000000000000000000000000000000000000081523060048201525f6024820152604481018390527f000000000000000000000000000000000000000000000000000000000000000073ffffffffffffffffffffffffffffffffffffffff169063f5298aca906064015f604051808303815f87803b158015610a70575f80fd5b505af1158015610a82573d5f803e3d5ffd5b505050505b7f6c2bbe7e00000000000000000000000000000000000000000000000000000000610acd610ab4846118d6565b610abd846118d6565b610ac79190614fc3565b60801b90565b945094505050505b97509795505050505050565b610ae9611a8b565b610af25f611ac0565b565b610afc611669565b5f60025f610b09856116d8565b815260208101919091526040015f20805490915060ff16610b56576040517f486aa30700000000000000000000000000000000000000000000000000000000815260040160405180910390fd5b610b5f826116ec565b815462ffffff91909116640100000000027fffffffffffffffffffffffffffffffffffffffffffffffffff000000ffffffff9091161781556106a681611704565b5f80610bab876116d8565b5f818152602081905260409020909150610bea907f00000000000000000000000000000000000000000000000000000000000000008389898989611b25565b979650505050505050565b7f000000000000000000000000000000000000000000000000000000000000000073ffffffffffffffffffffffffffffffffffffffff166357da44646040518163ffffffff1660e01b8152600401602060405180830381865afa158015610c5e573d5f803e3d5ffd5b505050506040513d601f19601f82011682018060405250810190610c829190615011565b600180547fffffffffffffffffffffffffffffffffffffffffffffffffffffffffffffff0016911515919091179055565b6040805160a0810182525f8082526020820181905291810182905260608101829052608081019190915260025f610ce9846116d8565b815260208082019290925260409081015f20815160a081018352905460ff81161515825262ffffff610100820481169483019490945264010000000081048416928201929092526701000000000000008204831660608201526a0100000000000000000000909104909116608082015292915050565b5f80610d696117d4565b60015460ff1615610da6576040517fad1c9c2800000000000000000000000000000000000000000000000000000000815260040160405180910390fd5b5f610db0896116d8565b5f818152602081905260409020909150610ded907f0000000000000000000000000000000000000000000000000000000000000000838d8c611bdb565b5f610df6611a74565b90508015610ec8576040517f0b0d9c090000000000000000000000000000000000000000000000000000000081525f600482015273ffffffffffffffffffffffffffffffffffffffff7f000000000000000000000000000000000000000000000000000000000000000081166024830152604482018390527f00000000000000000000000000000000000000000000000000000000000000001690630b0d9c09906064015f604051808303815f87803b158015610eb1575f80fd5b505af1158015610ec3573d5f803e3d5ffd5b505050505b7f9f063efc00000000000000000000000000000000000000000000000000000000610ef5610ac7836118d6565b93509350505097509795505050505050565b5f80610f116117d4565b5f610f1b886116d8565b90505f80610f338a848b8b610f2e6118b9565b611d61565b91509150610f40826118d6565b93508960045c5f610f877f000000000000000000000000000000000000000000000000000000000000000073ffffffffffffffffffffffffffffffffffffffff1687611843565b9050610fef867f0000000000000000000000000000000000000000000000000000000000000000610fbb8560a01c60020b90565b610fc88560a01c60020b90565b610fd86080890160608a0161502c565b5f8c81526020819052604090209493929190612631565b835f0361102557507fb47b2fb100000000000000000000000000000000000000000000000000000000965061109d945050505050565b61103260208d018d614fa8565b611057576110528661104a608086016060870161502c565b8484886126ba565b611073565b6110738661106b608086016060870161502c565b848488612769565b507fb47b2fb100000000000000000000000000000000000000000000000000000000965050505050505b965096945050505050565b5f816105e4620186a06031614f1f565b7fffffffffffffffffffffffffffffffffffffffffffffffffffffffff748739275473ffffffffffffffffffffffffffffffffffffffff163373ffffffffffffffffffffffffffffffffffffffff16148061114857503373ffffffffffffffffffffffffffffffffffffffff7f000000000000000000000000000000000000000000000000000000000000000016145b61117e576040517f82b4290000000000000000000000000000000000000000000000000000000000815260040160405180910390fd5b5f6111a861118f6020870187614ed7565b73ffffffffffffffffffffffffffffffffffffffff1690565b146111df576040517ffafd184b00000000000000000000000000000000000000000000000000000000815260040160405180910390fd5b6111ff6111f26060860160408701615047565b62ffffff16628000001490565b15611236576040517ffafd184b00000000000000000000000000000000000000000000000000000000815260040160405180910390fd5b5f60025f611243876116d8565b815260208101919091526040015f20805490915060ff1615611291576040517f7983c05100000000000000000000000000000000000000000000000000000000815260040160405180910390fd5b62030d408362ffffff1611156112d3576040517fbb4568d600000000000000000000000000000000000000000000000000000000815260040160405180910390fd5b6207a1208262ffffff161115611315576040517fbb4568d600000000000000000000000000000000000000000000000000000000815260040160405180910390fd5b80547fffffffffffffffffffffffffffffffffffffffffffffffffffffffffffffff001660011781556040517f6276cbbe00000000000000000000000000000000000000000000000000000000815273ffffffffffffffffffffffffffffffffffffffff7f00000000000000000000000000000000000000000000000000000000000000001690636276cbbe906113b2908890889060040161510b565b6020604051808303815f875af11580156113ce573d5f803e3d5ffd5b505050506040513d601f19601f820116820180604052508101906113f2919061513c565b506114018362ffffff166116ec565b81547fffffffffffffffffffffffffffffffffffffffffffff000000ffffffffffffff1667010000000000000062ffffff928316021782556114449083166116ec565b815462ffffff91909116610100027fffffffffffffffffffffffffffffffffffffffffffffffffffffffff000000ff9091161781556040517f5ad212b500000000000000000000000000000000000000000000000000000000815273ffffffffffffffffffffffffffffffffffffffff7f00000000000000000000000000000000000000000000000000000000000000001690635ad212b5906114ef90889087908790600401615157565b60408051808303815f875af115801561150a573d5f803e3d5ffd5b505050506040513d601f19601f8201168201806040525081019061152e9190615183565b82547fffffffffffffffffffffffffffffffffffffff000000ffffff000000ffffffff1664010000000062ffffff928316027fffffffffffffffffffffffffffffffffffffff000000ffffffffffffffffffff16176a010000000000000000000092909116919091021781556115a381611704565b5050505050565b6115b2611a8b565b6106a673ffffffffffffffffffffffffffffffffffffffff84168383612823565b5f6040517f82b4290000000000000000000000000000000000000000000000000000000000815260040160405180910390fd5b61160e611a8b565b63389a75e1600c52805f526020600c20805442111561163457636f5e88185f526004601cfd5b5f905561164081611ac0565b50565b61164b611a8b565b8060601b61166057637448fbae5f526004601cfd5b61164081611ac0565b3373ffffffffffffffffffffffffffffffffffffffff7f00000000000000000000000000000000000000000000000000000000000000001614610af2576040517f82b4290000000000000000000000000000000000000000000000000000000000815260040160405180910390fd5b6040515f9060a083823760a0902092915050565b5f6301000000821061170057611700612946565b5090565b8054620f4240906117359062ffffff6a010000000000000000000082048116916701000000000000009004166151bb565b62ffffff161115611772576040517f5102563b00000000000000000000000000000000000000000000000000000000815260040160405180910390fd5b8054620f4240906117979062ffffff64010000000082048116916101009004166151bb565b62ffffff161115611640576040517f5102563b00000000000000000000000000000000000000000000000000000000815260040160405180910390fd5b3373ffffffffffffffffffffffffffffffffffffffff7f00000000000000000000000000000000000000000000000000000000000000001614610af2576040517ff832861400000000000000000000000000000000000000000000000000000000815260040160405180910390fd5b5f81815260066020526040812061187073ffffffffffffffffffffffffffffffffffffffff851682612953565b949350505050565b80825d5050565b5f8181526006602052604081205f6118b073ffffffffffffffffffffffffffffffffffffffff861660038401612953565b95945050505050565b5f806118c5483a6151d6565b90506118d0816110a8565b91505090565b5f6f80000000000000000000000000000000821061170057611700612946565b5f80806119478561190a602087018761502c565b61191a604088016020890161502c565b6006526003525f90815260608601356026908152603a600c209082905280825260208b9052604090912091565b90925090505f61197961197073ffffffffffffffffffffffffffffffffffffffff8a1689611843565b60a01c60020b90565b90505f6119a68261198d602089018961502c565b61199d60408a0160208b0161502c565b8d929190612983565b90505f6119ca73ffffffffffffffffffffffffffffffffffffffff8b168a866129e2565b905086604001355f1215611a0a576040517ff0b815e900000000000000000000000000000000000000000000000000000000815260040160405180910390fd5b5f611a34611a1b8960400135612a3d565b6fffffffffffffffffffffffffffffffff841690612a69565b9050611a59865f01548403826fffffffffffffffffffffffffffffffff166080612a83565b96508615611a65578286555b50505050505095945050505050565b5f80611a80483a6151d6565b90506118d0816105bc565b7fffffffffffffffffffffffffffffffffffffffffffffffffffffffff74873927543314610af2576382b429005f526004601cfd5b7fffffffffffffffffffffffffffffffffffffffffffffffffffffffff74873927805473ffffffffffffffffffffffffffffffffffffffff9092169182907f8be0079c531659141344cd1fd0a4f28419497f9722a3daafe3b4186f6b6457e05f80a355565b600682905260038390525f8481526026828152603a600c20908290528082526020899052604082209082611b7261197073ffffffffffffffffffffffffffffffffffffffff8c168b611843565b90505f611b818c838a8a612983565b90505f611ba573ffffffffffffffffffffffffffffffffffffffff8d168c866129e2565b9050611bca855f01548303826fffffffffffffffffffffffffffffffff166080612a83565b9d9c50505050505050505050505050565b5f611bff61197073ffffffffffffffffffffffffffffffffffffffff871686611843565b90505f611c2c82611c13602086018661502c565b611c23604087016020880161502c565b8a929190612983565b90505f80611c7e86611c41602088018861502c565b611c516040890160208a0161502c565b6006526003525f90815260608701356026908152603a600c209082905280825260208c9052604090912091565b90925090505f611ca573ffffffffffffffffffffffffffffffffffffffff8a1689846129e2565b90505f86604001351215611ce5576040517f4faf60ad00000000000000000000000000000000000000000000000000000000815260040160405180910390fd5b5f611cf6611a1b8860400135612a3d565b9050806fffffffffffffffffffffffffffffffff165f03611d1957848455611d54565b5f611d4e855f01548703836fffffffffffffffffffffffffffffffff16856fffffffffffffffffffffffffffffffff16612af4565b86038555505b5050505050505050505050565b5f84815260026020526040812080548291908290611d9f9062ffffff67010000000000000082048116916a01000000000000000000009004166151bb565b62ffffff1690505f6020880135811390808315611e7e575f611dc460208c018c614fa8565b151584151503611ddd57611dd88a600f0b90565b611de7565b611de78a60801d90565b90505f611dfd82600f0b60ff81901d9081011890565b905084611e2a57611e1186620f42406151d6565b611e1b8783614f1f565b611e259190614f63565b611e42565b620f4240611e388783614f1f565b611e429190614f63565b87549099508690611e6390670100000000000000900462ffffff168b614f1f565b611e6d9190614f63565b9350611e79848a6151d6565b925050505b5f611e8c60208c018c614fa8565b151584151503611eab57611ea660408e0160208f01614ed7565b611eb8565b611eb860208e018e614ed7565b9050885f03612044576040517f0b0d9c0900000000000000000000000000000000000000000000000000000000815273ffffffffffffffffffffffffffffffffffffffff8281166004830152306024830152604482018590527f00000000000000000000000000000000000000000000000000000000000000001690630b0d9c09906064015f604051808303815f87803b158015611f54575f80fd5b505af1158015611f66573d5f803e3d5ffd5b50506040517f0b0d9c0900000000000000000000000000000000000000000000000000000000815273ffffffffffffffffffffffffffffffffffffffff84811660048301527f000000000000000000000000000000000000000000000000000000000000000081166024830152604482018690527f0000000000000000000000000000000000000000000000000000000000000000169250630b0d9c0991506064015f604051808303815f87803b15801561201f575f80fd5b505af1158015612031573d5f803e3d5ffd5b505f995061262798505050505050505050565b85545f90620f42409061206190610100900462ffffff168c614f1f565b61206b9190614f63565b87549091505f90620f42409061208e90640100000000900462ffffff168d614f1f565b6120989190614f63565b9050806120a5838d6151d6565b6120af91906151d6565b6040517f156e29f60000000000000000000000000000000000000000000000000000000081523060048201525f6024820152604481018290529099507f000000000000000000000000000000000000000000000000000000000000000073ffffffffffffffffffffffffffffffffffffffff169063156e29f6906064015f604051808303815f87803b158015612143575f80fd5b505af1158015612155573d5f803e3d5ffd5b5050505073ffffffffffffffffffffffffffffffffffffffff83166123395773ffffffffffffffffffffffffffffffffffffffff7f000000000000000000000000000000000000000000000000000000000000000016630b0d9c095f306121bc868a6151e9565b6040517fffffffff0000000000000000000000000000000000000000000000000000000060e086901b16815273ffffffffffffffffffffffffffffffffffffffff938416600482015292909116602483015260448201526064015f604051808303815f87803b15801561222d575f80fd5b505af115801561223f573d5f803e3d5ffd5b505050507f000000000000000000000000000000000000000000000000000000000000000073ffffffffffffffffffffffffffffffffffffffff16630b0d9c095f7f000000000000000000000000000000000000000000000000000000000000000084886122ad91906151e9565b6040517fffffffff0000000000000000000000000000000000000000000000000000000060e086901b16815273ffffffffffffffffffffffffffffffffffffffff938416600482015292909116602483015260448201526064015f604051808303815f87803b15801561231e575f80fd5b505af1158015612330573d5f803e3d5ffd5b5050505061261e565b6040517f0b0d9c090000000000000000000000000000000000000000000000000000000081525f6004820152306024820152604481018390527f000000000000000000000000000000000000000000000000000000000000000073ffffffffffffffffffffffffffffffffffffffff1690630b0d9c09906064015f604051808303815f87803b1580156123ca575f80fd5b505af11580156123dc573d5f803e3d5ffd5b50506040517f0b0d9c090000000000000000000000000000000000000000000000000000000081525f600482015273ffffffffffffffffffffffffffffffffffffffff7f000000000000000000000000000000000000000000000000000000000000000081166024830152604482018590527f0000000000000000000000000000000000000000000000000000000000000000169250630b0d9c0991506064015f604051808303815f87803b158015612493575f80fd5b505af11580156124a5573d5f803e3d5ffd5b50506040517f0b0d9c0900000000000000000000000000000000000000000000000000000000815273ffffffffffffffffffffffffffffffffffffffff8681166004830152306024830152604482018990527f0000000000000000000000000000000000000000000000000000000000000000169250630b0d9c0991506064015f604051808303815f87803b15801561253c575f80fd5b505af115801561254e573d5f803e3d5ffd5b50506040517f0b0d9c0900000000000000000000000000000000000000000000000000000000815273ffffffffffffffffffffffffffffffffffffffff86811660048301527f000000000000000000000000000000000000000000000000000000000000000081166024830152604482018890527f0000000000000000000000000000000000000000000000000000000000000000169250630b0d9c0991506064015f604051808303815f87803b158015612607575f80fd5b505af1158015612619573d5f803e3d5ffd5b505050505b50505050505050505b9550959350505050565b8260020b8260020b1315612675578260020b612659828460020b612ba190919063ffffffff16565b60020b131561267057612670868587868686612bb2565b6126b2565b8260020b8260020b12156126b2575f600284900b828107919091129082900503810260020b8260020b12156126b2576126b2868587868686612c24565b505050505050565b5f6127007f000000000000000000000000000000000000000000000000000000000000000087876126ee8860a01c60020b90565b6126fb8860a01c60020b90565b612c99565b90505f61270e60035c612cef565b90505f8061271f8484878a8a612d10565b9150915061273a6127338860a01c60020b90565b8590612f3f565b61275e84848773ffffffffffffffffffffffffffffffffffffffff8b168686613010565b505050505050505050565b5f6127af7f0000000000000000000000000000000000000000000000000000000000000000878761279d8860a01c60020b90565b6127aa8860a01c60020b90565b6131dc565b90505f6127bd60035c612cef565b90505f806127e484848773ffffffffffffffffffffffffffffffffffffffff8b168a613232565b915091506127ff6127f88860a01c60020b90565b8590613479565b61275e84848773ffffffffffffffffffffffffffffffffffffffff8b16868661353e565b5f73ffffffffffffffffffffffffffffffffffffffff841661287e575f805f8085875af190508061287957612879835f7ff4b3b1bc000000000000000000000000000000000000000000000000000000006136ad565b612940565b6040517fa9059cbb00000000000000000000000000000000000000000000000000000000815273ffffffffffffffffffffffffffffffffffffffff8416600482015282602482015260205f6044835f895af13d15601f3d1160015f511416171691505f81525f60208201525f6040820152508061294057612940847fa9059cbb000000000000000000000000000000000000000000000000000000007ff27f64e4000000000000000000000000000000000000000000000000000000006136ad565b50505050565b6335278d125f526004601cfd5b5f81602052631e2eaeaf5f5260205f6024601c865afa61297a5763535cf94b5f526004601cfd5b50505f51919050565b600282810b5f8181526001870160205260408082205485850b835290822054919390929087900b12156129b95790039050611870565b8560020b8460020b136129ce57039050611870565b600287015491909103039050949350505050565b5f6006602052825f52600660405f2001602052815f5260405f20602052631e2eaeaf5f5260205f6024601c875afa612a215763535cf94b5f526004601cfd5b50505f516fffffffffffffffffffffffffffffffff1692915050565b5f6f80000000000000000000000000000000820160801c612a5c575090565b612a64612946565b919050565b808203608081901c156105ee5763c9654ed45f526004601cfd5b8282028284820414841517612ae75760ff82167fffffffffffffffffffffffffffffffffffffffffffffffffffffffffffffffff8486098281108301900380821c612ad8576101008290031b91901c01612aed565b505063ae47f7025f526004601cfd5b60ff82161c5b9392505050565b82820281838583041485151702612b9a577fffffffffffffffffffffffffffffffffffffffffffffffffffffffffffffffff8385098181108201900382848609835f038416828511612b4d5763ae47f7025f526004601cfd5b93849004938382119092035f839003839004600101029203041760026003830281188084028203028084028203028084028203028084028203028084028203028084029091030202612aed565b0492915050565b5f8183071291819005919091030290565b60028601545b5f612bdb73ffffffffffffffffffffffffffffffffffffffff881687878661377b565b95509050600285810b9085900b1215612bf45750612c1b565b8015612c1557600285900b5f90815260018901602052604090208054830390555b50612bb8565b50505050505050565b60028601545b5f612c4d73ffffffffffffffffffffffffffffffffffffffff88168787866137e4565b95509050600284810b9086900b13612c655750612c1b565b8015612c8657600285900b5f90815260018901602052604090208054830390555b84612c90816151fc565b95505050612c2a565b6040805160c0810182525f6060820181905260a082015273ffffffffffffffffffffffffffffffffffffffff8716815260208101869052600285810b928201929092529082900b60808201526118b08184612f3f565b5f700100000000000000000000000000000000821061170057611700612946565b5f80808073ffffffffffffffffffffffffffffffffffffffff8616815b60808b015160608c0151600291820b910b13612e5a57612d4c8b613829565b9550612d5786613884565b90505f612d6683838d5f613b81565b90505f612d7584848e5f613cb3565b9050612d8182876151e9565b9550612d8d81866151e9565b94508a861115612e03575f612dac612da58d896151d6565b8790613d1e565b9050612dce73ffffffffffffffffffffffffffffffffffffffff851680613d37565b8111612e0157612df38d868e612de4878c6151d6565b612dee878c6151d6565b613d44565b975050505050505050612627565b505b505060208b01518b515f91612e2f9173ffffffffffffffffffffffffffffffffffffffff169089613ec1565b9150612e4f90506fffffffffffffffffffffffffffffffff8c1682613f26565b9a5081925050612d2d565b5073ffffffffffffffffffffffffffffffffffffffff86165f612e7f83838d84613b81565b90505f612e8e84848e5f613cb3565b9050612e9a82876151e9565b9550612ea681866151e9565b94505f612eb6612da58d896151d6565b9050612ed873ffffffffffffffffffffffffffffffffffffffff851680613d37565b8111612f0257612eee8d868e612de4878c6151d6565b9750627fffff985050505050505050612627565b5f80612f0e5f84613f40565b91509150627fffff612f28612f238484613faa565b61412e565b9a509a505050505050505050509550959350505050565b816080015160020b8160020b1315612f83576040517f561ce9bb00000000000000000000000000000000000000000000000000000000815260040160405180910390fd5b600281810b60608401819052608084015190910b9003612faa5750627fffff606090910152565b5f612fd6612fc884604001518460020b61415390919063ffffffff16565b600881901d9160ff90911690565b50602084015184519192506130029173ffffffffffffffffffffffffffffffffffffffff16908361415e565b60a08401526106a683614199565b5f613042600161303673ffffffffffffffffffffffffffffffffffffffff851680613d37565b90808218908210021890565b90505f805b608089015160608a0151600291820b910b13613195575f6130678a613829565b905061307b61307582613884565b8661424c565b91505f8660020b8260020b131580156130a557506fffffffffffffffffffffffffffffffff8a1615155b15613119575f6130b789858d5f613b81565b90505f6130c68a868e5f613cb3565b90506130ef8b6130e36130d9848b613d1e565b8086039086110290565b90808218908211021890565b9250828b039a50613112838d6fffffffffffffffffffffffffffffffff1661428d565b8601955050505b6020808c0180515f9081528083526040808220600287900b8352600101909352918220805487019055518c516131689173ffffffffffffffffffffffffffffffffffffffff9091169085613ec1565b915061318890506fffffffffffffffffffffffffffffffff8c1682613f26565b9a50839850505050613047565b6131b187896fffffffffffffffffffffffffffffffff1661428d565b6020998a01515f908152998a9052604090992060020180549990920198909801905550505050505050565b6040805160c0810182525f6060820181905260a082015273ffffffffffffffffffffffffffffffffffffffff8716815260208101869052600285810b928201929092529082900b60808201526118b08184613479565b5f805f805f5b60808a015160608b0151600291820b910b1315613356576132588a6142e5565b945061326385613884565b90505f61327282898c5f613b81565b90505f613281838a8d5f613cb3565b905061328d82866151e9565b945061329981856151e9565b93506132bb73ffffffffffffffffffffffffffffffffffffffff841680613d37565b6132cf6132c88c886151e9565b8690613d1e565b106132ff576132f3898b8d6132e4868a6151d6565b6132ee868a6151d6565b61433f565b95505050505050612627565b505060208a01518a515f9161332b9173ffffffffffffffffffffffffffffffffffffffff169088613ec1565b915061334b90506fffffffffffffffffffffffffffffffff8b1682612a69565b995081975050613238565b5073ffffffffffffffffffffffffffffffffffffffff85165f61337b82898c84613b81565b90505f61338a838a8d5f613cb3565b905061339682866151e9565b94506133a281856151e9565b93505f6133b26132c88c886151e9565b90506133d473ffffffffffffffffffffffffffffffffffffffff851680613d37565b811115613425576133f58a8c8e6133eb878b6151d6565b6132ee878b6151d6565b96507fffffffffffffffffffffffffffffffffffffffffffffffffffffffffff8000009750505050505050612627565b5f806134315f84613f40565b915091507fffffffffffffffffffffffffffffffffffffffffffffffffffffffffff800000613463612f238484613faa565b9950995050505050505050509550959350505050565b8060020b826080015160020b13156134bd576040517f561ce9bb00000000000000000000000000000000000000000000000000000000815260040160405180910390fd5b6134c8816001615258565b600290810b60608401526080830151810b9082900b036134e6575050565b5f613504612fc884604001518460020b61415390919063ffffffff16565b50602084015184519192506135309173ffffffffffffffffffffffffffffffffffffffff16908361415e565b60a08401526106a683614543565b5f613564600161303673ffffffffffffffffffffffffffffffffffffffff851680613d37565b90505f805b608089015160608a0151600291820b910b1315613195575f61358a8a6142e5565b905061359e61359882613884565b86614606565b91505f8660020b8260020b121580156135c857506fffffffffffffffffffffffffffffffff8a1615155b15613631575f6135da848a8d5f613b81565b90505f6135e9858b8e5f613cb3565b90506136078b6130e3846135fd858c613d1e565b9080821191030290565b9250828b039a5061362a838d6fffffffffffffffffffffffffffffffff1661428d565b8601955050505b6020808c0180515f9081528083526040808220600287900b8352600101909352918220805487019055518c516136809173ffffffffffffffffffffffffffffffffffffffff9091169085613ec1565b91506136a090506fffffffffffffffffffffffffffffffff8c1682612a69565b9a50839850505050613569565b6040517f90bfb8650000000000000000000000000000000000000000000000000000000080825273ffffffffffffffffffffffffffffffffffffffff851660048301527fffffffff0000000000000000000000000000000000000000000000000000000084166024830152608060448301526020601f3d018190040260a0810160648401523d608484015290913d5f60a483013e60048260a4018201527fffffffff0000000000000000000000000000000000000000000000000000000084168260c4018201528160e40181fd5b5f8080806137978587078213868805035b612fc8906001615258565b90925090506137c7816137c173ffffffffffffffffffffffffffffffffffffffff8b168a8661415e565b90614640565b90945090506137d7828287614702565b9250505094509492505050565b5f8080806137f9858707821386880503612fc8565b90925090506137c78161382373ffffffffffffffffffffffffffffffffffffffff8b168a8661415e565b9061472c565b608081015160608201515f91600290810b91900b1315613875576040517ffced566800000000000000000000000000000000000000000000000000000000815260040160405180910390fd5b506060810151612a6482614199565b60020b5f60ff82901d80830118620d89e88111156138c6576138c67f8b86327a00000000000000000000000000000000000000000000000000000000846147f4565b7001fffcb933bd6fad37aa2d162d1a594001600182160270010000000000000000000000000000000018600282161561390f576ffff97272373d413259a46990580e213a0260801c5b600482161561392e576ffff2e50f5f656932ef12357cf3c7fdcc0260801c5b600882161561394d576fffe5caca7e10e4e61c3624eaa0941cd00260801c5b601082161561396c576fffcb9843d60f6159c9db58835c9266440260801c5b602082161561398b576fff973b41fa98c081472e6896dfb254c00260801c5b60408216156139aa576fff2ea16466c96a3843ec78b326b528610260801c5b60808216156139c9576ffe5dee046a99a2a811c461f1969c30530260801c5b6101008216156139e9576ffcbe86c7900a88aedcffc83b479aa3a40260801c5b610200821615613a09576ff987a7253ac413176f2b074cf7815e540260801c5b610400821615613a29576ff3392b0822b70005940c7a398e4b70f30260801c5b610800821615613a49576fe7159475a2c29b7443b29c7fa6e889d90260801c5b611000821615613a69576fd097f3bdfd2022b8845ad8f792aa58250260801c5b612000821615613a89576fa9f746462d870fdf8a65dc1f90e061e50260801c5b614000821615613aa9576f70d869a156d2a1b890bb3df62baf32f70260801c5b618000821615613ac9576f31be135f97d08fd981231505542fcfa60260801c5b62010000821615613aea576f09aa508b5b7a84e1c677de54f3e99bc90260801c5b62020000821615613b0a576e5d6af8dedb81196699c329225ee6040260801c5b62040000821615613b29576d2216e584f5fa1ea926041bedfe980260801c5b62080000821615613b46576b048a170391f7dc42444e8fa20260801c5b5f841315613b71577fffffffffffffffffffffffffffffffffffffffffffffffffffffffffffffffff045b63ffffffff0160201c9392505050565b5f8373ffffffffffffffffffffffffffffffffffffffff168573ffffffffffffffffffffffffffffffffffffffff161115613bba579293925b73ffffffffffffffffffffffffffffffffffffffff8516613be15762bfc9215f526004601cfd5b7bffffffffffffffffffffffffffffffff000000000000000000000000606084901b1673ffffffffffffffffffffffffffffffffffffffff8686031683613c6d578673ffffffffffffffffffffffffffffffffffffffff16613c5a83838973ffffffffffffffffffffffffffffffffffffffff16614803565b81613c6757613c67614f36565b04610bea565b610bea613c9183838973ffffffffffffffffffffffffffffffffffffffff166148be565b8873ffffffffffffffffffffffffffffffffffffffff16808204910615150190565b5f73ffffffffffffffffffffffffffffffffffffffff8481169086160360ff81901d908101186c010000000000000000000000006fffffffffffffffffffffffffffffffff8516613d05818484614803565b9350845f83858409111684019350505050949350505050565b5f612aed836c0100000000000000000000000084612af4565b5f612aed83836060612a83565b5f80613d786fffffffffffffffffffffffffffffffff881673ffffffffffffffffffffffffffffffffffffffff8816613d1e565b90505f613dad6fffffffffffffffffffffffffffffffff891673ffffffffffffffffffffffffffffffffffffffff8916613d37565b90505f86613dbb84886151e9565b613dc591906151d6565b90505f805f80613dd589866148ee565b915091508a8a10613e0e57613df386613dee8d8d6151d6565b6148ee565b9094509250613e0482828686614926565b9094509250613e33565b613e1c86613dee8c8e6151d6565b9094509250613e2d8282868661497e565b90945092505b5050613e3f82826149c9565b90925090505f613e4f8383613faa565b90507bffffffffffffffffffffffffffffffff00000000000000000000000060608d901b16613e805f82818561497e565b90945092505f80613e92868689614a21565b91509150815f14613ea557613ea5615299565b613eae8161412e565b9f9e505050505050505050505050505050565b5f806006602052835f52600460405f2001602052825f5260405f20602052631e2eaeaf5f5260205f6024601c885afa613f015763535cf94b5f526004601cfd5b50505f516fffffffffffffffffffffffffffffffff81169460809190911d9350915050565b818101608081901c156105ee5763c9654ed45f526004601cfd5b5f8073ffffffffffffffffffffffffffffffffffffffff84168414613f91576040517f35278d1200000000000000000000000000000000000000000000000000000000815260040160405180910390fd5b5050606082811b60a083901c179082901b5b9250929050565b5f825f03614049576140428270ffffffffffffffffffffffffffffffffff811160071b81811c68ffffffffffffffffff1060061b1781811c64ffffffffff1060051b1781811c62ffffff1060041b1781811c620100000160b5600192831c1b0260121c80830401811c80830401811c80830401811c80830401811c80830401811c80830401811c80830401901c908190048111900390565b90506105ee565b6002836002011015614060575080151582176105ee565b60016140f3847f0706060506020504060203020504030106050205030304010505030400000000601f6f8421084210842108cc6318c6db6d54be831560081b6fffffffffffffffffffffffffffffffff851160071b1784811c67ffffffffffffffff1060061b1784811c63ffffffff1060051b1784811c61ffff1060041b1784811c60ff1060031b1793841c1c161a1790565b901c6081016001901b90506001810390505f5b5080614113848483614a21565b82811690831860011c01925050808210614106579392505050565b5f74010000000000000000000000000000000000000000821061170057611700612946565b5f8183071291050390565b5f82815260066020908152604080832084845260050190915281206118b073ffffffffffffffffffffffffffffffffffffffff861682612953565b5f806141b661378c846060015185604001515f8183071291050390565b915091508060ff165f036141f457602083015183516141ee9173ffffffffffffffffffffffffffffffffffffffff909116908461415e565b60a08401525b60a08301515f906142059083614640565b809350819250505061421c83838660400151614702565b60020b606085015280156142305750505050565b505050806080015160020b816060015160020b13156141995750565b5f8173ffffffffffffffffffffffffffffffffffffffff168373ffffffffffffffffffffffffffffffffffffffff16106142865781612aed565b5090919050565b5f70010000000000000000000000000000000083106142d8576040517f5008206500000000000000000000000000000000000000000000000000000000815260040160405180910390fd5b608083901b829004612aed565b608081015160608201515f91600290810b91900b13614330576040517ffced566800000000000000000000000000000000000000000000000000000000815260040160405180910390fd5b506060810151612a6482614543565b5f806143736fffffffffffffffffffffffffffffffff861673ffffffffffffffffffffffffffffffffffffffff8916613d1e565b90505f6143a86fffffffffffffffffffffffffffffffff871673ffffffffffffffffffffffffffffffffffffffff8a16613d37565b90505f6143b588876151e9565b90505f806143c384846148ee565b9150915084831115614478575f6143da86856151d6565b90505f806143e8838b6148ee565b915091506143f88585848461497e565b909550935061440b9150849050836149c9565b909350915061443b5f61441e8585613faa565b5f60608e6fffffffffffffffffffffffffffffffff16901b614926565b90935091505f8061444d858585614a21565b91509150815f1461446057614460615299565b6144698161412e565b985050505050505050506118b0565b848310156144f8575f61448b84876151d6565b90505f80614499838b6148ee565b915091506144a985858484614926565b90955093506144bc9150849050836149c9565b909350915061443b5f7bffffffffffffffffffffffffffffffff00000000000000000000000060608d901b16816144f38787613faa565b614926565b614537612f2361450a600160606152c6565b60ff166001901b8b6fffffffffffffffffffffffffffffffff16878b61453091906151e9565b9190612af4565b955050505050506118b0565b5f80614570612fc884604001516001866060015161456191906152df565b60020b905f8183071291050390565b915091508060ff1660ff036145af57602083015183516145a99173ffffffffffffffffffffffffffffffffffffffff909116908461415e565b60a08401525b60a08301515f906145c0908361472c565b80935081925050506145d783838660400151614702565b60020b606085015280156145eb5750505050565b505050806060015160020b816080015160020b126145435750565b5f8173ffffffffffffffffffffffffffffffffffffffff168373ffffffffffffffffffffffffffffffffffffffff16116142865781612aed565b5f805f6146db8460ff1686901c7e1f0d1e100c1d070f090b19131c1706010e11080a1a141802121b150316040581196001019091166101e07f804040554300526644320000502061067405302602000010750620017611707760fc7fb6db6db6ddddddddd34d34d349249249210842108c6318c639ce739cffffffff840260f81c161b60f71c1690811c63d76453e004601f169190911a1790565b90508061010014159250826146f15760ff6146f8565b8360ff1681015b9150509250929050565b5f8160ff8416614718600187900b610100615320565b6147229190615258565b6118709190615320565b5f805f8360ff0390505f6147cd8260ff1687901b7f0706060506020504060203020504030106050205030304010505030400000000601f6f8421084210842108cc6318c6db6d54be831560081b6fffffffffffffffffffffffffffffffff851160071b1784811c67ffffffffffffffff1060061b1784811c63ffffffff1060051b1784811c61ffff1060041b1784811c60ff1060031b1793841c1c161a1790565b90508061010014159350836147e2575f6147e9565b8160ff1681035b925050509250929050565b815f528060020b60045260245ffd5b5f838302817fffffffffffffffffffffffffffffffffffffffffffffffffffffffffffffffff85870982811083820303915050808411614841575f80fd5b805f0361485357508290049050612aed565b5f848688095f868103871696879004966002600389028118808a02820302808a02820302808a02820302808a02820302808a02820302808a02909103029181900381900460010186841190950394909402919094039290920491909117919091029150509392505050565b5f6148ca848484614803565b905081806148da576148da614f36565b83850915612aed5760010180612aed575f80fd5b5f8282027fffffffffffffffffffffffffffffffffffffffffffffffffffffffffffffffff8385098181108201900394909350915050565b828111828503819003908285039086851416868311178015614974576040517fcaccb6d900000000000000000000000000000000000000000000000000000000815260040160405180910390fd5b5094509492505050565b808301838110838601810191908210868310178015614974576040517f35278d1200000000000000000000000000000000000000000000000000000000815260040160405180910390fd5b5f8067ffffffffffffffff84168414614a0e576040517f35278d1200000000000000000000000000000000000000000000000000000000815260040160405180910390fd5b5050604081901c60c092831b1792911b90565b5f80825f03614a5c576040517f74ab0c9000000000000000000000000000000000000000000000000000000000815260040160405180910390fd5b828504915082850683858183817fffffffffffffffffffffffffffffffffffffffffffffffffffffffffffffffff8209080892965f858103861695869004600381026002908118808302820302808302820302808302820302808302820302808302820302918202900302858803879004600192889003979097049190910196909411909103949094029290921702925050565b5f60208284031215614b00575f80fd5b5035919050565b5f60a08284031215614b17575f80fd5b50919050565b5f8060c08385031215614b2e575f80fd5b614b388484614b07565b9460a0939093013593505050565b73ffffffffffffffffffffffffffffffffffffffff81168114611640575f80fd5b5f60608284031215614b17575f80fd5b5f8083601f840112614b87575f80fd5b50813567ffffffffffffffff811115614b9e575f80fd5b602083019150836020828501011115613fa3575f80fd5b5f805f805f6101408688031215614bca575f80fd5b8535614bd581614b46565b9450614be48760208801614b07565b9350614bf38760c08801614b67565b925061012086013567ffffffffffffffff811115614c0f575f80fd5b614c1b88828901614b77565b969995985093965092949392505050565b5f805f805f805f8789036101a0811215614c44575f80fd5b8835614c4f81614b46565b9750614c5e8a60208b01614b07565b965060807fffffffffffffffffffffffffffffffffffffffffffffffffffffffffffffff4082011215614c8f575f80fd5b5060c0880194506101408801359350610160880135925061018088013567ffffffffffffffff811115614cc0575f80fd5b614ccc8a828b01614b77565b989b979a50959850939692959293505050565b8060020b8114611640575f80fd5b5f805f805f6101208688031215614d02575f80fd5b614d0c8787614b07565b945060a0860135614d1c81614b46565b935060c0860135614d2c81614cdf565b925060e0860135614d3c81614cdf565b94979396509194610100013592915050565b5f60a08284031215614d5e575f80fd5b612aed8383614b07565b5f805f805f806101608789031215614d7e575f80fd5b8635614d8981614b46565b9550614d988860208901614b07565b9450614da78860c08901614b67565b9350610120870135925061014087013567ffffffffffffffff811115614dcb575f80fd5b614dd789828a01614b77565b979a9699509497509295939492505050565b62ffffff81168114611640575f80fd5b5f805f806101008587031215614e0d575f80fd5b614e178686614b07565b935060a0850135614e2781614b46565b925060c0850135614e3781614de9565b915060e0850135614e4781614de9565b939692955090935050565b5f805f60608486031215614e64575f80fd5b8335614e6f81614b46565b92506020840135614e7f81614b46565b929592945050506040919091013590565b5f805f60e08486031215614ea2575f80fd5b8335614ead81614b46565b9250614ebc8560208601614b07565b915060c0840135614ecc81614b46565b809150509250925092565b5f60208284031215614ee7575f80fd5b8135612aed81614b46565b7f4e487b71000000000000000000000000000000000000000000000000000000005f52601160045260245ffd5b80820281158282048414176105ee576105ee614ef2565b7f4e487b71000000000000000000000000000000000000000000000000000000005f52601260045260245ffd5b5f82614f96577f4e487b71000000000000000000000000000000000000000000000000000000005f52601260045260245ffd5b500490565b8015158114611640575f80fd5b5f60208284031215614fb8575f80fd5b8135612aed81614f9b565b600f82810b9082900b037fffffffffffffffffffffffffffffffff8000000000000000000000000000000081126f7fffffffffffffffffffffffffffffff821317156105ee576105ee614ef2565b5f60208284031215615021575f80fd5b8151612aed81614f9b565b5f6020828403121561503c575f80fd5b8135612aed81614cdf565b5f60208284031215615057575f80fd5b8135612aed81614de9565b803561506d81614b46565b73ffffffffffffffffffffffffffffffffffffffff168252602081013561509381614b46565b73ffffffffffffffffffffffffffffffffffffffff16602083015260408101356150bc81614de9565b62ffffff16604083015260608101356150d481614cdf565b60020b606083015260808101356150ea81614b46565b73ffffffffffffffffffffffffffffffffffffffff81166080840152505050565b60c081016151198285615062565b73ffffffffffffffffffffffffffffffffffffffff831660a08301529392505050565b5f6020828403121561514c575f80fd5b8151612aed81614cdf565b60e081016151658286615062565b62ffffff841660a083015262ffffff831660c0830152949350505050565b5f8060408385031215615194575f80fd5b825161519f81614de9565b60208401519092506151b081614de9565b809150509250929050565b62ffffff81811683821601908111156105ee576105ee614ef2565b818103818111156105ee576105ee614ef2565b808201808211156105ee576105ee614ef2565b5f8160020b7fffffffffffffffffffffffffffffffffffffffffffffffffffffffffff800000810361523057615230614ef2565b7fffffffffffffffffffffffffffffffffffffffffffffffffffffffffffffffff0192915050565b600281810b9083900b01627fffff81137fffffffffffffffffffffffffffffffffffffffffffffffffffffffffff800000821217156105ee576105ee614ef2565b7f4e487b71000000000000000000000000000000000000000000000000000000005f52600160045260245ffd5b60ff82811682821603908111156105ee576105ee614ef2565b600282810b9082900b037fffffffffffffffffffffffffffffffffffffffffffffffffffffffffff8000008112627fffff821317156105ee576105ee614ef2565b5f8260020b8260020b028060020b915080821461533f5761533f614ef2565b509291505056fea164736f6c634300081a000a","linkReferences":{}},"methodIdentifiers":{"FACTORY()":"2dd31000","afterAddLiquidity(address,(address,address,uint24,int24,address),(int24,int24,int256,bytes32),int256,int256,bytes)":"9f063efc","afterRemoveLiquidity(address,(address,address,uint24,int24,address),(int24,int24,int256,bytes32),int256,int256,bytes)":"6c2bbe7e","afterSwap(address,(address,address,uint24,int24,address),(bool,int256,uint160),int256,bytes)":"b47b2fb1","beforeInitialize(address,(address,address,uint24,int24,address),uint160)":"dc98354e","beforeSwap(address,(address,address,uint24,int24,address),(bool,int256,uint160),bytes)":"575e24b4","cancelOwnershipHandover()":"54d1f13d","completeOwnershipHandover(address)":"f04e283e","getJitTaxAmount(uint256)":"30cd3cf1","getPendingPositionRewards((address,address,uint24,int24,address),address,int24,int24,bytes32)":"7b4c7aab","getPoolFeeConfiguration((address,address,uint24,int24,address))":"9938b286","getSwapTaxAmount(uint256)":"c9f5145a","initializeNewPool((address,address,uint24,int24,address),uint160,uint24,uint24)":"cbceaa2c","owner()":"8da5cb5b","ownershipHandoverExpiresAt(address)":"fee81cf4","pullWidthrawOnly()":"880bc6cb","renounceOwnership()":"715018a6","requestOwnershipHandover()":"25692962","setProtocolSwapFee((address,address,uint24,int24,address),uint256)":"52273366","setProtocolTaxFee((address,address,uint24,int24,address),uint256)":"7668bc6e","transferOwnership(address)":"f2fde38b","withdrawCreatorRevenue(address,address,uint256)":"d8c320e7"},"id":99}