{"abi":[{"type":"constructor","inputs":[{"name":"owner","type":"address","internalType":"address"},{"name":"uniV4","type":"address","internalType":"contract IPoolManager"},{"name":"hookAddressMiner","type":"address","internalType":"contract IHookAddressMiner"}],"stateMutability":"nonpayable"},{"type":"receive","stateMutability":"payable"},{"type":"function","name":"HOOK_ADDRESS_MINER","inputs":[],"outputs":[{"name":"","type":"address","internalType":"contract IHookAddressMiner"}],"stateMutability":"view"},{"type":"function","name":"HOOK_INITCODE_STORE","inputs":[],"outputs":[{"name":"","type":"address","internalType":"address"}],"stateMutability":"view"},{"type":"function","name":"UNI_V4","inputs":[],"outputs":[{"name":"","type":"address","internalType":"contract IPoolManager"}],"stateMutability":"view"},{"type":"function","name":"allHooks","inputs":[{"name":"","type":"uint256","internalType":"uint256"}],"outputs":[{"name":"","type":"address","internalType":"contract AngstromL2"}],"stateMutability":"view"},{"type":"function","name":"cancelOwnershipHandover","inputs":[],"outputs":[],"stateMutability":"payable"},{"type":"function","name":"completeOwnershipHandover","inputs":[{"name":"pendingOwner","type":"address","internalType":"address"}],"outputs":[],"stateMutability":"payable"},{"type":"function","name":"createNewHookAndPoolWithMiner","inputs":[{"name":"initialOwner","type":"address","internalType":"address"},{"name":"key","type":"tuple","internalType":"struct PoolKey","components":[{"name":"currency0","type":"address","internalType":"Currency"},{"name":"currency1","type":"address","internalType":"Currency"},{"name":"fee","type":"uint24","internalType":"uint24"},{"name":"tickSpacing","type":"int24","internalType":"int24"},{"name":"hooks","type":"address","internalType":"contract IHooks"}]},{"name":"sqrtPriceX96","type":"uint160","internalType":"uint160"},{"name":"creatorSwapFeeE6","type":"uint24","internalType":"uint24"},{"name":"creatorTaxFeeE6","type":"uint24","internalType":"uint24"}],"outputs":[{"name":"newAngstrom","type":"address","internalType":"contract AngstromL2"}],"stateMutability":"nonpayable"},{"type":"function","name":"createNewHookAndPoolWithSalt","inputs":[{"name":"initialOwner","type":"address","internalType":"address"},{"name":"salt","type":"bytes32","internalType":"bytes32"},{"name":"key","type":"tuple","internalType":"struct PoolKey","components":[{"name":"currency0","type":"address","internalType":"Currency"},{"name":"currency1","type":"address","internalType":"Currency"},{"name":"fee","type":"uint24","internalType":"uint24"},{"name":"tickSpacing","type":"int24","internalType":"int24"},{"name":"hooks","type":"address","internalType":"contract IHooks"}]},{"name":"sqrtPriceX96","type":"uint160","internalType":"uint160"},{"name":"creatorSwapFeeE6","type":"uint24","internalType":"uint24"},{"name":"creatorTaxFeeE6","type":"uint24","internalType":"uint24"}],"outputs":[{"name":"newAngstrom","type":"address","internalType":"contract AngstromL2"}],"stateMutability":"nonpayable"},{"type":"function","name":"defaultProtocolSwapFeeAsMultipleE6","inputs":[],"outputs":[{"name":"","type":"uint24","internalType":"uint24"}],"stateMutability":"view"},{"type":"function","name":"defaultProtocolTaxFeeE6","inputs":[],"outputs":[{"name":"","type":"uint24","internalType":"uint24"}],"stateMutability":"view"},{"type":"function","name":"deployNewHook","inputs":[{"name":"owner","type":"address","internalType":"address"},{"name":"salt","type":"bytes32","internalType":"bytes32"}],"outputs":[{"name":"newAngstrom","type":"address","internalType":"contract AngstromL2"}],"stateMutability":"nonpayable"},{"type":"function","name":"getDefaultNetPoolSafeSwapFee","inputs":[{"name":"creatorSwapFeeE6","type":"uint256","internalType":"uint256"},{"name":"lpFeeE6","type":"uint256","internalType":"uint256"}],"outputs":[{"name":"","type":"uint256","internalType":"uint256"}],"stateMutability":"view"},{"type":"function","name":"getDefaultProtocolSwapFee","inputs":[{"name":"creatorSwapFeeE6","type":"uint256","internalType":"uint256"},{"name":"lpFeeE6","type":"uint256","internalType":"uint256"}],"outputs":[{"name":"","type":"uint24","internalType":"uint24"}],"stateMutability":"view"},{"type":"function","name":"isVerifiedHook","inputs":[{"name":"hook","type":"address","internalType":"contract AngstromL2"}],"outputs":[{"name":"verified","type":"bool","internalType":"bool"}],"stateMutability":"view"},{"type":"function","name":"owner","inputs":[],"outputs":[{"name":"result","type":"address","internalType":"address"}],"stateMutability":"view"},{"type":"function","name":"ownershipHandoverExpiresAt","inputs":[{"name":"pendingOwner","type":"address","internalType":"address"}],"outputs":[{"name":"result","type":"uint256","internalType":"uint256"}],"stateMutability":"view"},{"type":"function","name":"recordPoolCreationAndGetStartingProtocolFee","inputs":[{"name":"key","type":"tuple","internalType":"struct PoolKey","components":[{"name":"currency0","type":"address","internalType":"Currency"},{"name":"currency1","type":"address","internalType":"Currency"},{"name":"fee","type":"uint24","internalType":"uint24"},{"name":"tickSpacing","type":"int24","internalType":"int24"},{"name":"hooks","type":"address","internalType":"contract IHooks"}]},{"name":"creatorSwapFeeE6","type":"uint24","internalType":"uint24"},{"name":"creatorTaxFeeE6","type":"uint24","internalType":"uint24"}],"outputs":[{"name":"protocolSwapFeeE6","type":"uint24","internalType":"uint24"},{"name":"protocolTaxFeeE6","type":"uint24","internalType":"uint24"}],"stateMutability":"nonpayable"},{"type":"function","name":"renounceOwnership","inputs":[],"outputs":[],"stateMutability":"payable"},{"type":"function","name":"requestOwnershipHandover","inputs":[],"outputs":[],"stateMutability":"payable"},{"type":"function","name":"setDefaultProtocolSwapFeeMultiple","inputs":[{"name":"newDefaultProtocolSwapFeeE6","type":"uint24","internalType":"uint24"}],"outputs":[],"stateMutability":"nonpayable"},{"type":"function","name":"setDefaultProtocolTaxFee","inputs":[{"name":"newDefaultProtocolTaxFeeE6","type":"uint24","internalType":"uint24"}],"outputs":[],"stateMutability":"nonpayable"},{"type":"function","name":"setEmergencyWithdrawOnly","inputs":[],"outputs":[],"stateMutability":"nonpayable"},{"type":"function","name":"setProtocolSwapFee","inputs":[{"name":"hook","type":"address","internalType":"contract AngstromL2"},{"name":"key","type":"tuple","internalType":"struct PoolKey","components":[{"name":"currency0","type":"address","internalType":"Currency"},{"name":"currency1","type":"address","internalType":"Currency"},{"name":"fee","type":"uint24","internalType":"uint24"},{"name":"tickSpacing","type":"int24","internalType":"int24"},{"name":"hooks","type":"address","internalType":"contract IHooks"}]},{"name":"newFeeE6","type":"uint256","internalType":"uint256"}],"outputs":[],"stateMutability":"nonpayable"},{"type":"function","name":"setProtocolTaxFee","inputs":[{"name":"hook","type":"address","internalType":"contract AngstromL2"},{"name":"key","type":"tuple","internalType":"struct PoolKey","components":[{"name":"currency0","type":"address","internalType":"Currency"},{"name":"currency1","type":"address","internalType":"Currency"},{"name":"fee","type":"uint24","internalType":"uint24"},{"name":"tickSpacing","type":"int24","internalType":"int24"},{"name":"hooks","type":"address","internalType":"contract IHooks"}]},{"name":"newFeeE6","type":"uint256","internalType":"uint256"}],"outputs":[],"stateMutability":"nonpayable"},{"type":"function","name":"transferOwnership","inputs":[{"name":"newOwner","type":"address","internalType":"address"}],"outputs":[],"stateMutability":"payable"},{"type":"function","name":"withdrawOnly","inputs":[],"outputs":[{"name":"","type":"bool","internalType":"bool"}],"stateMutability":"view"},{"type":"function","name":"withdrawRevenue","inputs":[{"name":"currency","type":"address","internalType":"Currency"},{"name":"to","type":"address","internalType":"address"},{"name":"amount","type":"uint256","internalType":"uint256"}],"outputs":[],"stateMutability":"nonpayable"},{"type":"event","name":"DefaultProtocolSwapFeeE6Updated","inputs":[{"name":"newDefaultProtocolSwapFeeE6","type":"uint24","indexed":false,"internalType":"uint24"}],"anonymous":false},{"type":"event","name":"DefaultProtocolTaxFeeE6Updated","inputs":[{"name":"newDefaultProtocolTaxFeeE6","type":"uint24","indexed":false,"internalType":"uint24"}],"anonymous":false},{"type":"event","name":"FlashBlockNumberProviderUpdated","inputs":[{"name":"newFlashBlockNumberProvider","type":"address","indexed":false,"internalType":"address"}],"anonymous":false},{"type":"event","name":"OwnershipHandoverCanceled","inputs":[{"name":"pendingOwner","type":"address","indexed":true,"internalType":"address"}],"anonymous":false},{"type":"event","name":"OwnershipHandoverRequested","inputs":[{"name":"pendingOwner","type":"address","indexed":true,"internalType":"address"}],"anonymous":false},{"type":"event","name":"OwnershipTransferred","inputs":[{"name":"oldOwner","type":"address","indexed":true,"internalType":"address"},{"name":"newOwner","type":"address","indexed":true,"internalType":"address"}],"anonymous":false},{"type":"event","name":"PoolCreated","inputs":[{"name":"hook","type":"address","indexed":false,"internalType":"address"},{"name":"key","type":"tuple","indexed":false,"internalType":"struct PoolKey","components":[{"name":"currency0","type":"address","internalType":"Currency"},{"name":"currency1","type":"address","internalType":"Currency"},{"name":"fee","type":"uint24","internalType":"uint24"},{"name":"tickSpacing","type":"int24","internalType":"int24"},{"name":"hooks","type":"address","internalType":"contract IHooks"}]},{"name":"creatorSwapFeeE6","type":"uint24","indexed":false,"internalType":"uint24"},{"name":"creatorTaxFeeE6","type":"uint24","indexed":false,"internalType":"uint24"},{"name":"protocolSwapFeeE6","type":"uint24","indexed":false,"internalType":"uint24"},{"name":"protocolTaxFeeE6","type":"uint24","indexed":false,"internalType":"uint24"}],"anonymous":false},{"type":"event","name":"ProtocolSwapFeeUpdated","inputs":[{"name":"hook","type":"address","indexed":true,"internalType":"address"},{"name":"key","type":"tuple","indexed":false,"internalType":"struct PoolKey","components":[{"name":"currency0","type":"address","internalType":"Currency"},{"name":"currency1","type":"address","internalType":"Currency"},{"name":"fee","type":"uint24","internalType":"uint24"},{"name":"tickSpacing","type":"int24","internalType":"int24"},{"name":"hooks","type":"address","internalType":"contract IHooks"}]},{"name":"newFeeE6","type":"uint256","indexed":false,"internalType":"uint256"}],"anonymous":false},{"type":"event","name":"ProtocolTaxFeeUpdated","inputs":[{"name":"hook","type":"address","indexed":true,"internalType":"address"},{"name":"key","type":"tuple","indexed":false,"internalType":"struct PoolKey","components":[{"name":"currency0","type":"address","internalType":"Currency"},{"name":"currency1","type":"address","internalType":"Currency"},{"name":"fee","type":"uint24","internalType":"uint24"},{"name":"tickSpacing","type":"int24","internalType":"int24"},{"name":"hooks","type":"address","internalType":"contract IHooks"}]},{"name":"newFeeE6","type":"uint256","indexed":false,"internalType":"uint256"}],"anonymous":false},{"type":"event","name":"WithdrawOnly","inputs":[],"anonymous":false},{"type":"error","name":"AlreadyInitialized","inputs":[]},{"type":"error","name":"FlashBlockNumberProviderAlreadySet","inputs":[]},{"type":"error","name":"NewOwnerIsZeroAddress","inputs":[]},{"type":"error","name":"NoHandoverRequest","inputs":[]},{"type":"error","name":"NotVerifiedHook","inputs":[]},{"type":"error","name":"ProtocolFeeExceedsMaximum","inputs":[]},{"type":"error","name":"Unauthorized","inputs":[]},{"type":"error","name":"WithdrawOnlyMode","inputs":[]}],"bytecode":{"object":"0x60e060405234801561000f575f80fd5b5060405161759538038061759583398101604081905261002e91610130565b61003783610092565b6001600160a01b03808316608052811660a0526040516100759061005d6020820161010f565b601f1982820381018352601f909101166040526100ce565b6001600160a01b031660c05250505f805460ff191690555061017a565b6001600160a01b0316638b78c6d819819055805f7f8be0079c531659141344cd1fd0a4f28419497f9722a3daafe3b4186f6b6457e08180a35b50565b5f81518060401b6bfe61000180600a3d393df3000161fffe8211840152600b8101601584015ff09150816101095763301164255f526004601cfd5b90915290565b6159f380611ba283390190565b6001600160a01b03811681146100cb575f80fd5b5f805f60608486031215610142575f80fd5b835161014d8161011c565b602085015190935061015e8161011c565b604085015190925061016f8161011c565b809150509250925092565b60805160a05160c0516119e96101b95f395f818161026b0152610e5c01525f81816103d40152610d0b01525f81816102d10152610e9b01526119e95ff3fe6080604052600436106101a7575f3560e01c8063603dbf2e116100e7578063c065d0dc11610087578063ebb132ff11610062578063ebb132ff14610500578063f04e283e1461051f578063f2fde38b14610532578063fee81cf414610545575f80fd5b8063c065d0dc14610486578063cf42b55d146104b4578063d2de4386146104d3575f80fd5b806383588861116100c257806383588861146103f65780638da5cb5b14610415578063a31d946a14610448578063b9b7469b14610467575f80fd5b8063603dbf2e1461039c578063715018a6146103bb5780637ba0a0e8146103c3575f80fd5b80633160f2491161015257806357da44641161012d57806357da4464146102fb5780635ad212b5146103235780635f3b41661461035e578063601f53b11461037d575f80fd5b80633160f249146102a157806334556265146102c057806354d1f13d146102f3575f80fd5b8063256929621161018257806325692962146102525780632b03ad4e1461025a5780632f7f5fd51461028d575f80fd5b806303cccd07146101b25780630f22338a146101d35780631796d1b71461021c575f80fd5b366101ae57005b5f80fd5b3480156101bd575f80fd5b506101d16101cc3660046113bf565b610576565b005b3480156101de575f80fd5b506101f26101ed3660046113fc565b610691565b60405173ffffffffffffffffffffffffffffffffffffffff90911681526020015b60405180910390f35b348015610227575f80fd5b505f5461023e90640100000000900462ffffff1681565b60405162ffffff9091168152602001610213565b6101d16106c6565b348015610265575f80fd5b506101f27f000000000000000000000000000000000000000000000000000000000000000081565b348015610298575f80fd5b506101d1610713565b3480156102ac575f80fd5b506101f26102bb366004611435565b61076e565b3480156102cb575f80fd5b506101f27f000000000000000000000000000000000000000000000000000000000000000081565b6101d161080b565b348015610306575f80fd5b505f546103139060ff1681565b6040519015158152602001610213565b34801561032e575f80fd5b5061034261033d3660046114a6565b610844565b6040805162ffffff938416815292909116602083015201610213565b348015610369575f80fd5b506101d16103783660046114e7565b61095f565b348015610388575f80fd5b506101d1610397366004611500565b610a18565b3480156103a7575f80fd5b5061023e6103b636600461153e565b610a46565b6101d1610aed565b3480156103ce575f80fd5b506101f27f000000000000000000000000000000000000000000000000000000000000000081565b348015610401575f80fd5b506101d16104103660046113bf565b610b00565b348015610420575f80fd5b507fffffffffffffffffffffffffffffffffffffffffffffffffffffffff74873927546101f2565b348015610453575f80fd5b506101d16104623660046114e7565b610c0d565b348015610472575f80fd5b506101f261048136600461156f565b610cc2565b348015610491575f80fd5b506103136104a0366004611696565b60016020525f908152604090205460ff1681565b3480156104bf575f80fd5b506101f26104ce3660046116b8565b610e19565b3480156104de575f80fd5b506104f26104ed36600461153e565b610fbe565b604051908152602001610213565b34801561050b575f80fd5b505f5461023e90610100900462ffffff1681565b6101d161052d366004611696565b61102a565b6101d1610540366004611696565b611067565b348015610550575f80fd5b506104f261055f366004611696565b63389a75e1600c9081525f91909152602090205490565b61057e61108d565b620b71b08111156105bb576040517f2989d6b200000000000000000000000000000000000000000000000000000000815260040160405180910390fd5b6040517f7668bc6e00000000000000000000000000000000000000000000000000000000815273ffffffffffffffffffffffffffffffffffffffff841690637668bc6e9061060f9085908590600401611787565b5f604051808303815f87803b158015610626575f80fd5b505af1158015610638573d5f803e3d5ffd5b505050508273ffffffffffffffffffffffffffffffffffffffff167f4b2ac796fb4ea85c77a0541e8edda3d66b3ae6d76892cecf471b168f1e1e8e8b8383604051610684929190611787565b60405180910390a2505050565b600281815481106106a0575f80fd5b5f9182526020909120015473ffffffffffffffffffffffffffffffffffffffff16905081565b5f6202a30067ffffffffffffffff164201905063389a75e1600c52335f52806020600c2055337fdbf36a107da19e49527a7176a1babf963b4b0ff8cde35ee35d6cd8f1f9ac7e1d5f80a250565b61071b61108d565b5f80547fffffffffffffffffffffffffffffffffffffffffffffffffffffffffffffff001660011781556040517fe2a4a1909832721f607d4aba2c111d98fadc095cb788777117146a100a9e07919190a1565b5f6107798787610e19565b6040517fcbceaa2c00000000000000000000000000000000000000000000000000000000815290915073ffffffffffffffffffffffffffffffffffffffff82169063cbceaa2c906107d49088908890889088906004016117a2565b5f604051808303815f87803b1580156107eb575f80fd5b505af11580156107fd573d5f803e3d5ffd5b505050509695505050505050565b63389a75e1600c52335f525f6020600c2055337ffa7b8eab7da67f412cc9575ed43464468f9bfbae89d1675917346ca6d8fe3c925f80a2565b5f8054819060ff1615610883576040517fad1c9c2800000000000000000000000000000000000000000000000000000000815260040160405180910390fd5b335f9081526001602052604090205460ff166108cb576040517f82dbbfc700000000000000000000000000000000000000000000000000000000815260040160405180910390fd5b6108ee62ffffff85166108e460608801604089016114e7565b62ffffff16610a46565b5f5490925062ffffff6401000000009091048116915061c35090831611156109165761c35091505b7fde9edd0c5a7405829fcc75a5a8748eba90b3be8249cdb2e65cdadfab16663b8733868686868660405161094f969594939291906117e8565b60405180910390a1935093915050565b61096761108d565b622dc6c062ffffff821611156109a9576040517f2989d6b200000000000000000000000000000000000000000000000000000000815260040160405180910390fd5b5f80547fffffffffffffffffffffffffffffffffffffffffffffffffffffffff000000ff1661010062ffffff8416908102919091179091556040519081527f05912f33d43dfd69adb92641808f8ab0f0c71ae2b8a660681ecfe5d1b5ab2ead906020015b60405180910390a150565b610a2061108d565b610a4173ffffffffffffffffffffffffffffffffffffffff841683836110c2565b505050565b5f610ae4610a5783620f4240611879565b5f54610a6d9190610100900462ffffff1661188c565b610a7a620f42408061188c565b610a849190611879565b610a9185620f4240611879565b610a9e85620f4240611879565b610aa8919061188c565b610ab5620f42408061188c565b610abf9190611879565b5f54610ad59190610100900462ffffff1661188c565b610adf91906118a3565b6111e5565b90505b92915050565b610af561108d565b610afe5f6111fd565b565b610b0861108d565b61c350811115610b44576040517f2989d6b200000000000000000000000000000000000000000000000000000000815260040160405180910390fd5b6040517f5227336600000000000000000000000000000000000000000000000000000000815273ffffffffffffffffffffffffffffffffffffffff841690635227336690610b989085908590600401611787565b5f604051808303815f87803b158015610baf575f80fd5b505af1158015610bc1573d5f803e3d5ffd5b505050508273ffffffffffffffffffffffffffffffffffffffff167f990fe1d43253208121f4172ff444078c5bfbf71baeae9aac9024eddefba9b3268383604051610684929190611787565b610c1561108d565b620b71b062ffffff82161115610c57576040517f2989d6b200000000000000000000000000000000000000000000000000000000815260040160405180910390fd5b5f80547fffffffffffffffffffffffffffffffffffffffffffffffffff000000ffffffff1664010000000062ffffff8416908102919091179091556040519081527f37260b1b086886391ad9257e8348235da3fb32eb1212d9e35e9af01ce9dfc84c90602001610a0d565b6040517f2e2e59b900000000000000000000000000000000000000000000000000000000815273ffffffffffffffffffffffffffffffffffffffff86811660048301525f9182917f00000000000000000000000000000000000000000000000000000000000000001690632e2e59b990602401602060405180830381865afa158015610d50573d5f803e3d5ffd5b505050506040513d601f19601f82011682018060405250810190610d7491906118db565b9050610d808782610e19565b73ffffffffffffffffffffffffffffffffffffffff8116608088018190526040517fcbceaa2c0000000000000000000000000000000000000000000000000000000081529193509063cbceaa2c90610de29089908990899089906004016118f2565b5f604051808303815f87803b158015610df9575f80fd5b505af1158015610e0b573d5f803e3d5ffd5b505050505095945050505050565b5f805460ff1615610e56576040517fad1c9c2800000000000000000000000000000000000000000000000000000000815260040160405180910390fd5b5f610e807f0000000000000000000000000000000000000000000000000000000000000000611262565b6040805173ffffffffffffffffffffffffffffffffffffffff7f00000000000000000000000000000000000000000000000000000000000000008116602083015287168183015281518082038301815260608201909252610ee59291906080016119c8565b6040516020818303038152906040529050828151602083015ff5915081610f12573d5f6040513e3d604051fd5b5073ffffffffffffffffffffffffffffffffffffffff81165f818152600160208190526040822080547fffffffffffffffffffffffffffffffffffffffffffffffffffffffffffffff0016821790556002805491820181559091527f405787fa12a823e0f2b7631cc41b3ba8828b3321ca811111fa75cd3aa3bb5ace0180547fffffffffffffffffffffffff000000000000000000000000000000000000000016909117905592915050565b5f80610fca8484610a46565b62ffffff169050620f424081610fe08683611879565b610fea9190611879565b610ff785620f4240611879565b611001919061188c565b61100e620f42408061188c565b6110189190611879565b61102291906118a3565b949350505050565b61103261108d565b63389a75e1600c52805f526020600c20805442111561105857636f5e88185f526004601cfd5b5f9055611064816111fd565b50565b61106f61108d565b8060601b61108457637448fbae5f526004601cfd5b611064816111fd565b7fffffffffffffffffffffffffffffffffffffffffffffffffffffffff74873927543314610afe576382b429005f526004601cfd5b5f73ffffffffffffffffffffffffffffffffffffffff841661111d575f805f8085875af190508061111857611118835f7ff4b3b1bc000000000000000000000000000000000000000000000000000000006112ad565b6111df565b6040517fa9059cbb00000000000000000000000000000000000000000000000000000000815273ffffffffffffffffffffffffffffffffffffffff8416600482015282602482015260205f6044835f895af13d15601f3d1160015f511416171691505f81525f60208201525f604082015250806111df576111df847fa9059cbb000000000000000000000000000000000000000000000000000000007ff27f64e4000000000000000000000000000000000000000000000000000000006112ad565b50505050565b5f630100000082106111f9576111f961137b565b5090565b7fffffffffffffffffffffffffffffffffffffffffffffffffffffffff74873927805473ffffffffffffffffffffffffffffffffffffffff9092169182907f8be0079c531659141344cd1fd0a4f28419497f9722a3daafe3b4186f6b6457e05f80a355565b60405164ffffffffff7fffffffffffffffffffffffffffffffffffffffffffffffffffffffffffffffff833b0116602181015f601f8401853c80825260408201810160405250919050565b6040517f90bfb8650000000000000000000000000000000000000000000000000000000080825273ffffffffffffffffffffffffffffffffffffffff851660048301527fffffffff0000000000000000000000000000000000000000000000000000000084166024830152608060448301526020601f3d018190040260a0810160648401523d608484015290913d5f60a483013e60048260a4018201527fffffffff0000000000000000000000000000000000000000000000000000000084168260c4018201528160e40181fd5b6335278d125f526004601cfd5b73ffffffffffffffffffffffffffffffffffffffff81168114611064575f80fd5b5f60a082840312156113b9575f80fd5b50919050565b5f805f60e084860312156113d1575f80fd5b83356113dc81611388565b92506113eb85602086016113a9565b9295929450505060c0919091013590565b5f6020828403121561140c575f80fd5b5035919050565b803561141e81611388565b919050565b803562ffffff8116811461141e575f80fd5b5f805f805f80610140878903121561144b575f80fd5b863561145681611388565b95506020870135945061146c88604089016113a9565b935060e087013561147c81611388565b925061148b6101008801611423565b915061149a6101208801611423565b90509295509295509295565b5f805f60e084860312156114b8575f80fd5b6114c285856113a9565b92506114d060a08501611423565b91506114de60c08501611423565b90509250925092565b5f602082840312156114f7575f80fd5b610ae482611423565b5f805f60608486031215611512575f80fd5b833561151d81611388565b9250602084013561152d81611388565b929592945050506040919091013590565b5f806040838503121561154f575f80fd5b50508035926020909101359150565b8035600281900b811461141e575f80fd5b5f805f805f858703610120811215611585575f80fd5b863561159081611388565b955060a07fffffffffffffffffffffffffffffffffffffffffffffffffffffffffffffffe0820112156115c1575f80fd5b5060405160a0810181811067ffffffffffffffff8211171561160a577f4e487b71000000000000000000000000000000000000000000000000000000005f52604160045260245ffd5b60405261161960208801611413565b815261162760408801611413565b602082015261163860608801611423565b60408201526116496080880161155e565b606082015261165a60a08801611413565b6080820152935061166d60c08701611413565b925061167b60e08701611423565b915061168a6101008701611423565b90509295509295909350565b5f602082840312156116a6575f80fd5b81356116b181611388565b9392505050565b5f80604083850312156116c9575f80fd5b82356116d481611388565b946020939093013593505050565b80356116ed81611388565b73ffffffffffffffffffffffffffffffffffffffff168252602081013561171381611388565b73ffffffffffffffffffffffffffffffffffffffff16602083015262ffffff61173e60408301611423565b1660408301526117506060820161155e565b60020b6060830152608081013561176681611388565b73ffffffffffffffffffffffffffffffffffffffff81166080840152505050565b60c0810161179582856116e2565b8260a08301529392505050565b61010081016117b182876116e2565b73ffffffffffffffffffffffffffffffffffffffff9490941660a082015262ffffff92831660c0820152911660e090910152919050565b73ffffffffffffffffffffffffffffffffffffffff87168152610140810161181360208301886116e2565b62ffffff861660c083015262ffffff851660e083015262ffffff841661010083015262ffffff8316610120830152979650505050505050565b7f4e487b71000000000000000000000000000000000000000000000000000000005f52601160045260245ffd5b81810381811115610ae757610ae761184c565b8082028115828204841417610ae757610ae761184c565b5f826118d6577f4e487b71000000000000000000000000000000000000000000000000000000005f52601260045260245ffd5b500490565b5f602082840312156118eb575f80fd5b5051919050565b5f6101008201905073ffffffffffffffffffffffffffffffffffffffff865116825273ffffffffffffffffffffffffffffffffffffffff602087015116602083015262ffffff6040870151166040830152606086015160020b606083015273ffffffffffffffffffffffffffffffffffffffff608087015116608083015261199260a083018673ffffffffffffffffffffffffffffffffffffffff169052565b62ffffff841660c083015262ffffff831660e083015295945050505050565b5f81518060208401855e5f93019283525090919050565b5f6110226119d683866119b1565b846119b156fea164736f6c634300081a000a60c06040526001805460ff19169055348015610019575f80fd5b506040516159f33803806159f38339810160408190526100389161028d565b6001600160a01b03821660805261004e816100d8565b3360a0526100d1306100cc604080516101c0810182525f60208201819052918101829052608081018290526101008101829052610120810191909152600180825260608201819052610180820181905260a082018190526101a0820181905260c0820181905260e08201819052610140820181905261016082015290565b610114565b50506102c5565b6001600160a01b0316638b78c6d819819055805f7f8be0079c531659141344cd1fd0a4f28419497f9722a3daafe3b4186f6b6457e08180a35b50565b80511515612000831615151415806101385750602081015115156110008316151514155b8061014f5750604081015115156108008316151514155b806101665750606081015115156104008316151514155b8061017d5750608081015115156102008316151514155b80610194575060a081015115156101008316151514155b806101aa575060c0810151151560808316151514155b806101c0575060e0810151151560408316151514155b806101d75750610100810151151560208316151514155b806101ee5750610120810151151560108316151514155b806102055750610140810151151560088316151514155b8061021c5750610160810151151560048316151514155b806102335750610180810151151560028316151514155b8061024a57506101a0810151151560018316151514155b1561026057610260630732d7b560e51b83610264565b5050565b815f526001600160a01b03811660045260245ffd5b6001600160a01b0381168114610111575f80fd5b5f806040838503121561029e575f80fd5b82516102a981610279565b60208401519092506102ba81610279565b809150509250929050565b60805160a05161562d6103c65f395f81816101a1015281816109c901528181610c6e01528181610eb80152818161119d0152818161152d015281816117c4015281816120f0015281816123c50152818161256401526126d801525f81816107cc015281816108170152818161093b015281816109f801528181610a9101528181610c3801528181610e3d01528181610ee701528181610fc301528181611006015281816113f20152818161192f015281816120560152818161211f01528181612230015281816122ce01528181612388015281816124b7015281816125930152818161263c015281816127070152818161280301526128b2015261562d5ff3fe60806040526004361061017b575f3560e01c80638da5cb5b116100d1578063cc06fb331161007c578063f04e283e11610057578063f04e283e1461058f578063f2fde38b146105a2578063fee81cf4146105b5575f80fd5b8063cc06fb33146104b4578063d8c320e714610520578063dc98354e1461053f575f80fd5b8063b47b2fb1116100ac578063b47b2fb11461041c578063c9f5145a14610476578063cbceaa2c14610495575f80fd5b80638da5cb5b146103545780639938b286146103875780639f063efc146103fd575f80fd5b8063575e24b4116101315780637668bc6e1161010c5780637668bc6e146103025780637b4c7aab14610321578063880bc6cb14610340575f80fd5b8063575e24b4146102415780636c2bbe7e146102a3578063715018a6146102fa575f80fd5b806330cd3cf11161016157806330cd3cf1146101ed578063522733661461021a57806354d1f13d14610239575f80fd5b806325692962146101865780632dd3100014610190575f80fd5b3661018257005b5f80fd5b61018e6105e6565b005b34801561019b575f80fd5b506101c37f000000000000000000000000000000000000000000000000000000000000000081565b60405173ffffffffffffffffffffffffffffffffffffffff90911681526020015b60405180910390f35b3480156101f8575f80fd5b5061020c610207366004614c50565b610633565b6040519081526020016101e4565b348015610225575f80fd5b5061018e610234366004614c7d565b61066b565b61018e610722565b34801561024c575f80fd5b5061026061025b366004614d15565b61075b565b604080517fffffffff000000000000000000000000000000000000000000000000000000009094168452602084019290925262ffffff16908201526060016101e4565b3480156102ae575f80fd5b506102c26102bd366004614d8c565b6108db565b604080517fffffffff0000000000000000000000000000000000000000000000000000000090931683526020830191909152016101e4565b61018e610b58565b34801561030d575f80fd5b5061018e61031c366004614c7d565b610b6b565b34801561032c575f80fd5b5061020c61033b366004614e4d565b610c17565b34801561034b575f80fd5b5061018e610c6c565b34801561035f575f80fd5b507fffffffffffffffffffffffffffffffffffffffffffffffffffffffff74873927546101c3565b348015610392575f80fd5b506103a66103a1366004614eae565b610d2a565b6040516101e491905f60a08201905082511515825262ffffff602084015116602083015262ffffff604084015116604083015262ffffff606084015116606083015262ffffff608084015116608083015292915050565b348015610408575f80fd5b506102c2610417366004614d8c565b610dd6565b348015610427575f80fd5b5061043b610436366004614ec8565b610f7e565b604080517fffffffff000000000000000000000000000000000000000000000000000000009093168352600f9190910b6020830152016101e4565b348015610481575f80fd5b5061020c610490366004614c50565b61111f565b3480156104a0575f80fd5b5061018e6104af366004614f59565b61112f565b3480156104bf575f80fd5b506104d36104ce366004614c50565b611663565b6040805173ffffffffffffffffffffffffffffffffffffffff9687168152948616602086015262ffffff9093169284019290925260020b606083015291909116608082015260a0016101e4565b34801561052b575f80fd5b5061018e61053a366004614fb2565b6116ed565b34801561054a575f80fd5b5061055e610559366004614ff0565b611716565b6040517fffffffff0000000000000000000000000000000000000000000000000000000090911681526020016101e4565b61018e61059d366004615037565b611749565b61018e6105b0366004615037565b611786565b3480156105c0575f80fd5b5061020c6105cf366004615037565b63389a75e1600c9081525f91909152602090205490565b5f6202a30067ffffffffffffffff164201905063389a75e1600c52335f52806020600c2055337fdbf36a107da19e49527a7176a1babf963b4b0ff8cde35ee35d6cd8f1f9ac7e1d5f80a250565b5f81620186a060026106476031600361507f565b61065191906150c3565b61065b919061507f565b610665919061507f565b92915050565b6106736117ac565b5f60025f6106808561181b565b815260208101919091526040015f20805490915060ff166106cd576040517f486aa30700000000000000000000000000000000000000000000000000000000815260040160405180910390fd5b6106d68261182f565b815462ffffff919091166a0100000000000000000000027fffffffffffffffffffffffffffffffffffffff000000ffffffffffffffffffff90911617815561071d81611847565b505050565b63389a75e1600c52335f525f6020600c2055337ffa7b8eab7da67f412cc9575ed43464468f9bfbae89d1675917346ca6d8fe3c925f80a2565b5f805f610766611917565b60015460ff16156107a3576040517fad1c9c2800000000000000000000000000000000000000000000000000000000815260040160405180910390fd5b5f6107ad8861181b565b90506107fa6107f273ffffffffffffffffffffffffffffffffffffffff7f00000000000000000000000000000000000000000000000000000000000000001683611986565b6004906119bb565b61085761083d73ffffffffffffffffffffffffffffffffffffffff7f000000000000000000000000000000000000000000000000000000000000000016836119c2565b6003906fffffffffffffffffffffffffffffffff166119bb565b5f6108686108636119fc565b611a19565b90505f60208901803582139061087e908b615108565b15151490507f575e24b400000000000000000000000000000000000000000000000000000000816108c1576fffffffffffffffffffffffffffffffff83166108c7565b608083901b5b909c909b505f9a5098505050505050505050565b5f806108e5611917565b60015460ff161561091a57507f6c2bbe7e0000000000000000000000000000000000000000000000000000000090505f610b4c565b5f6109248961181b565b5f81815260208190526040812091925090610962907f0000000000000000000000000000000000000000000000000000000000000000848e8d611a39565b90505f60408a01351561097c57610977611bb7565b61097e565b5f5b90508015610a50576040517f0b0d9c090000000000000000000000000000000000000000000000000000000081525f600482015273ffffffffffffffffffffffffffffffffffffffff7f000000000000000000000000000000000000000000000000000000000000000081166024830152604482018390527f00000000000000000000000000000000000000000000000000000000000000001690630b0d9c09906064015f604051808303815f87803b158015610a39575f80fd5b505af1158015610a4b573d5f803e3d5ffd5b505050505b8115610afe576040517ff5298aca0000000000000000000000000000000000000000000000000000000081523060048201525f6024820152604481018390527f000000000000000000000000000000000000000000000000000000000000000073ffffffffffffffffffffffffffffffffffffffff169063f5298aca906064015f604051808303815f87803b158015610ae7575f80fd5b505af1158015610af9573d5f803e3d5ffd5b505050505b7f6c2bbe7e00000000000000000000000000000000000000000000000000000000610b44610b2b84611a19565b610b3484611a19565b610b3e9190615123565b60801b90565b945094505050505b97509795505050505050565b610b60611bce565b610b695f611c03565b565b610b736117ac565b5f60025f610b808561181b565b815260208101919091526040015f20805490915060ff16610bcd576040517f486aa30700000000000000000000000000000000000000000000000000000000815260040160405180910390fd5b610bd68261182f565b815462ffffff91909116640100000000027fffffffffffffffffffffffffffffffffffffffffffffffffff000000ffffffff90911617815561071d81611847565b5f80610c228761181b565b5f818152602081905260409020909150610c61907f00000000000000000000000000000000000000000000000000000000000000008389898989611c68565b979650505050505050565b7f000000000000000000000000000000000000000000000000000000000000000073ffffffffffffffffffffffffffffffffffffffff166357da44646040518163ffffffff1660e01b8152600401602060405180830381865afa158015610cd5573d5f803e3d5ffd5b505050506040513d601f19601f82011682018060405250810190610cf99190615171565b600180547fffffffffffffffffffffffffffffffffffffffffffffffffffffffffffffff0016911515919091179055565b6040805160a0810182525f8082526020820181905291810182905260608101829052608081019190915260025f610d608461181b565b815260208082019290925260409081015f20815160a081018352905460ff81161515825262ffffff610100820481169483019490945264010000000081048416928201929092526701000000000000008204831660608201526a0100000000000000000000909104909116608082015292915050565b5f80610de0611917565b60015460ff1615610e1d576040517fad1c9c2800000000000000000000000000000000000000000000000000000000815260040160405180910390fd5b5f610e278961181b565b5f818152602081905260409020909150610e64907f0000000000000000000000000000000000000000000000000000000000000000838d8c611d1e565b5f610e6d611bb7565b90508015610f3f576040517f0b0d9c090000000000000000000000000000000000000000000000000000000081525f600482015273ffffffffffffffffffffffffffffffffffffffff7f000000000000000000000000000000000000000000000000000000000000000081166024830152604482018390527f00000000000000000000000000000000000000000000000000000000000000001690630b0d9c09906064015f604051808303815f87803b158015610f28575f80fd5b505af1158015610f3a573d5f803e3d5ffd5b505050505b7f9f063efc00000000000000000000000000000000000000000000000000000000610f6c610b3e83611a19565b93509350505097509795505050505050565b5f80610f88611917565b5f610f928861181b565b90505f80610faa8a848b8b610fa56119fc565b611ea4565b91509150610fb782611a19565b93508960045c5f610ffe7f000000000000000000000000000000000000000000000000000000000000000073ffffffffffffffffffffffffffffffffffffffff1687611986565b9050611066867f00000000000000000000000000000000000000000000000000000000000000006110328560a01c60020b90565b61103f8560a01c60020b90565b61104f6080890160608a0161518c565b5f8c81526020819052604090209493929190612774565b835f0361109c57507fb47b2fb1000000000000000000000000000000000000000000000000000000009650611114945050505050565b6110a960208d018d615108565b6110ce576110c9866110c1608086016060870161518c565b8484886127fd565b6110ea565b6110ea866110e2608086016060870161518c565b8484886128ac565b507fb47b2fb100000000000000000000000000000000000000000000000000000000965050505050505b965096945050505050565b5f8161065b620186a0603161507f565b7fffffffffffffffffffffffffffffffffffffffffffffffffffffffff748739275473ffffffffffffffffffffffffffffffffffffffff163373ffffffffffffffffffffffffffffffffffffffff1614806111bf57503373ffffffffffffffffffffffffffffffffffffffff7f000000000000000000000000000000000000000000000000000000000000000016145b6111f5576040517f82b4290000000000000000000000000000000000000000000000000000000000815260040160405180910390fd5b5f61121f6112066020870187615037565b73ffffffffffffffffffffffffffffffffffffffff1690565b14611256576040517ffafd184b00000000000000000000000000000000000000000000000000000000815260040160405180910390fd5b61127661126960608601604087016151a7565b62ffffff16628000001490565b156112ad576040517ffafd184b00000000000000000000000000000000000000000000000000000000815260040160405180910390fd5b5f60025f6112ba8761181b565b815260208101919091526040015f20805490915060ff1615611308576040517f7983c05100000000000000000000000000000000000000000000000000000000815260040160405180910390fd5b62030d408362ffffff16111561134a576040517fbb4568d600000000000000000000000000000000000000000000000000000000815260040160405180910390fd5b6207a1208262ffffff16111561138c576040517fbb4568d600000000000000000000000000000000000000000000000000000000815260040160405180910390fd5b80547fffffffffffffffffffffffffffffffffffffffffffffffffffffffffffffff001660011781556040517f6276cbbe00000000000000000000000000000000000000000000000000000000815273ffffffffffffffffffffffffffffffffffffffff7f00000000000000000000000000000000000000000000000000000000000000001690636276cbbe90611429908890889060040161526b565b6020604051808303815f875af1158015611445573d5f803e3d5ffd5b505050506040513d601f19601f82011682018060405250810190611469919061529c565b506114788362ffffff1661182f565b81547fffffffffffffffffffffffffffffffffffffffffffff000000ffffffffffffff1667010000000000000062ffffff928316021782556114bb90831661182f565b815462ffffff91909116610100027fffffffffffffffffffffffffffffffffffffffffffffffffffffffff000000ff9091161781556040517f5ad212b500000000000000000000000000000000000000000000000000000000815273ffffffffffffffffffffffffffffffffffffffff7f00000000000000000000000000000000000000000000000000000000000000001690635ad212b590611566908890879087906004016152b7565b60408051808303815f875af1158015611581573d5f803e3d5ffd5b505050506040513d601f19601f820116820180604052508101906115a591906152e3565b82547fffffffffffffffffffffffffffffffffffffff000000ffffff000000ffffffff1664010000000062ffffff928316027fffffffffffffffffffffffffffffffffffffff000000ffffffffffffffffffff16176a0100000000000000000000929091169190910217815561161a81611847565b600580546001810182555f9190915285906003027f036b6384b5eca791c62761152d0c79bb0604c104a5fb6f4eb0703f3154bb3db00161165a828261531b565b50505050505050565b60058181548110611672575f80fd5b5f91825260209091206003909102018054600182015460029283015473ffffffffffffffffffffffffffffffffffffffff92831694508183169362ffffff740100000000000000000000000000000000000000008404169377010000000000000000000000000000000000000000000000909304900b911685565b6116f5611bce565b61071d73ffffffffffffffffffffffffffffffffffffffff84168383612966565b5f6040517f82b4290000000000000000000000000000000000000000000000000000000000815260040160405180910390fd5b611751611bce565b63389a75e1600c52805f526020600c20805442111561177757636f5e88185f526004601cfd5b5f905561178381611c03565b50565b61178e611bce565b8060601b6117a357637448fbae5f526004601cfd5b61178381611c03565b3373ffffffffffffffffffffffffffffffffffffffff7f00000000000000000000000000000000000000000000000000000000000000001614610b69576040517f82b4290000000000000000000000000000000000000000000000000000000000815260040160405180910390fd5b6040515f9060a083823760a0902092915050565b5f6301000000821061184357611843612a89565b5090565b8054620f4240906118789062ffffff6a01000000000000000000008204811691670100000000000000900416615495565b62ffffff1611156118b5576040517f5102563b00000000000000000000000000000000000000000000000000000000815260040160405180910390fd5b8054620f4240906118da9062ffffff6401000000008204811691610100900416615495565b62ffffff161115611783576040517f5102563b00000000000000000000000000000000000000000000000000000000815260040160405180910390fd5b3373ffffffffffffffffffffffffffffffffffffffff7f00000000000000000000000000000000000000000000000000000000000000001614610b69576040517ff832861400000000000000000000000000000000000000000000000000000000815260040160405180910390fd5b5f8181526006602052604081206119b373ffffffffffffffffffffffffffffffffffffffff851682612a96565b949350505050565b80825d5050565b5f8181526006602052604081205f6119f373ffffffffffffffffffffffffffffffffffffffff861660038401612a96565b95945050505050565b5f80611a08483a6154b0565b9050611a138161111f565b91505090565b5f6f80000000000000000000000000000000821061184357611843612a89565b5f8080611a8a85611a4d602087018761518c565b611a5d604088016020890161518c565b6006526003525f90815260608601356026908152603a600c209082905280825260208b9052604090912091565b90925090505f611abc611ab373ffffffffffffffffffffffffffffffffffffffff8a1689611986565b60a01c60020b90565b90505f611ae982611ad0602089018961518c565b611ae060408a0160208b0161518c565b8d929190612ac6565b90505f611b0d73ffffffffffffffffffffffffffffffffffffffff8b168a86612b25565b905086604001355f1215611b4d576040517ff0b815e900000000000000000000000000000000000000000000000000000000815260040160405180910390fd5b5f611b77611b5e8960400135612b80565b6fffffffffffffffffffffffffffffffff841690612bac565b9050611b9c865f01548403826fffffffffffffffffffffffffffffffff166080612bc6565b96508615611ba8578286555b50505050505095945050505050565b5f80611bc3483a6154b0565b9050611a1381610633565b7fffffffffffffffffffffffffffffffffffffffffffffffffffffffff74873927543314610b69576382b429005f526004601cfd5b7fffffffffffffffffffffffffffffffffffffffffffffffffffffffff74873927805473ffffffffffffffffffffffffffffffffffffffff9092169182907f8be0079c531659141344cd1fd0a4f28419497f9722a3daafe3b4186f6b6457e05f80a355565b600682905260038390525f8481526026828152603a600c20908290528082526020899052604082209082611cb5611ab373ffffffffffffffffffffffffffffffffffffffff8c168b611986565b90505f611cc48c838a8a612ac6565b90505f611ce873ffffffffffffffffffffffffffffffffffffffff8d168c86612b25565b9050611d0d855f01548303826fffffffffffffffffffffffffffffffff166080612bc6565b9d9c50505050505050505050505050565b5f611d42611ab373ffffffffffffffffffffffffffffffffffffffff871686611986565b90505f611d6f82611d56602086018661518c565b611d66604087016020880161518c565b8a929190612ac6565b90505f80611dc186611d84602088018861518c565b611d946040890160208a0161518c565b6006526003525f90815260608701356026908152603a600c209082905280825260208c9052604090912091565b90925090505f611de873ffffffffffffffffffffffffffffffffffffffff8a168984612b25565b90505f86604001351215611e28576040517f4faf60ad00000000000000000000000000000000000000000000000000000000815260040160405180910390fd5b5f611e39611b5e8860400135612b80565b9050806fffffffffffffffffffffffffffffffff165f03611e5c57848455611e97565b5f611e91855f01548703836fffffffffffffffffffffffffffffffff16856fffffffffffffffffffffffffffffffff16612c37565b86038555505b5050505050505050505050565b5f84815260026020526040812080548291908290611ee29062ffffff67010000000000000082048116916a0100000000000000000000900416615495565b62ffffff1690505f6020880135811390808315611fc1575f611f0760208c018c615108565b151584151503611f2057611f1b8a600f0b90565b611f2a565b611f2a8a60801d90565b90505f611f4082600f0b60ff81901d9081011890565b905084611f6d57611f5486620f42406154b0565b611f5e878361507f565b611f6891906150c3565b611f85565b620f4240611f7b878361507f565b611f8591906150c3565b87549099508690611fa690670100000000000000900462ffffff168b61507f565b611fb091906150c3565b9350611fbc848a6154b0565b925050505b5f611fcf60208c018c615108565b151584151503611fee57611fe960408e0160208f01615037565b611ffb565b611ffb60208e018e615037565b9050885f03612187576040517f0b0d9c0900000000000000000000000000000000000000000000000000000000815273ffffffffffffffffffffffffffffffffffffffff8281166004830152306024830152604482018590527f00000000000000000000000000000000000000000000000000000000000000001690630b0d9c09906064015f604051808303815f87803b158015612097575f80fd5b505af11580156120a9573d5f803e3d5ffd5b50506040517f0b0d9c0900000000000000000000000000000000000000000000000000000000815273ffffffffffffffffffffffffffffffffffffffff84811660048301527f000000000000000000000000000000000000000000000000000000000000000081166024830152604482018690527f0000000000000000000000000000000000000000000000000000000000000000169250630b0d9c0991506064015f604051808303815f87803b158015612162575f80fd5b505af1158015612174573d5f803e3d5ffd5b505f995061276a98505050505050505050565b85545f90620f4240906121a490610100900462ffffff168c61507f565b6121ae91906150c3565b87549091505f90620f4240906121d190640100000000900462ffffff168d61507f565b6121db91906150c3565b9050806121e8838d6154b0565b6121f291906154b0565b6040517f156e29f60000000000000000000000000000000000000000000000000000000081523060048201525f6024820152604481018290529099507f000000000000000000000000000000000000000000000000000000000000000073ffffffffffffffffffffffffffffffffffffffff169063156e29f6906064015f604051808303815f87803b158015612286575f80fd5b505af1158015612298573d5f803e3d5ffd5b5050505073ffffffffffffffffffffffffffffffffffffffff831661247c5773ffffffffffffffffffffffffffffffffffffffff7f000000000000000000000000000000000000000000000000000000000000000016630b0d9c095f306122ff868a6154c3565b6040517fffffffff0000000000000000000000000000000000000000000000000000000060e086901b16815273ffffffffffffffffffffffffffffffffffffffff938416600482015292909116602483015260448201526064015f604051808303815f87803b158015612370575f80fd5b505af1158015612382573d5f803e3d5ffd5b505050507f000000000000000000000000000000000000000000000000000000000000000073ffffffffffffffffffffffffffffffffffffffff16630b0d9c095f7f000000000000000000000000000000000000000000000000000000000000000084886123f091906154c3565b6040517fffffffff0000000000000000000000000000000000000000000000000000000060e086901b16815273ffffffffffffffffffffffffffffffffffffffff938416600482015292909116602483015260448201526064015f604051808303815f87803b158015612461575f80fd5b505af1158015612473573d5f803e3d5ffd5b50505050612761565b6040517f0b0d9c090000000000000000000000000000000000000000000000000000000081525f6004820152306024820152604481018390527f000000000000000000000000000000000000000000000000000000000000000073ffffffffffffffffffffffffffffffffffffffff1690630b0d9c09906064015f604051808303815f87803b15801561250d575f80fd5b505af115801561251f573d5f803e3d5ffd5b50506040517f0b0d9c090000000000000000000000000000000000000000000000000000000081525f600482015273ffffffffffffffffffffffffffffffffffffffff7f000000000000000000000000000000000000000000000000000000000000000081166024830152604482018590527f0000000000000000000000000000000000000000000000000000000000000000169250630b0d9c0991506064015f604051808303815f87803b1580156125d6575f80fd5b505af11580156125e8573d5f803e3d5ffd5b50506040517f0b0d9c0900000000000000000000000000000000000000000000000000000000815273ffffffffffffffffffffffffffffffffffffffff8681166004830152306024830152604482018990527f0000000000000000000000000000000000000000000000000000000000000000169250630b0d9c0991506064015f604051808303815f87803b15801561267f575f80fd5b505af1158015612691573d5f803e3d5ffd5b50506040517f0b0d9c0900000000000000000000000000000000000000000000000000000000815273ffffffffffffffffffffffffffffffffffffffff86811660048301527f000000000000000000000000000000000000000000000000000000000000000081166024830152604482018890527f0000000000000000000000000000000000000000000000000000000000000000169250630b0d9c0991506064015f604051808303815f87803b15801561274a575f80fd5b505af115801561275c573d5f803e3d5ffd5b505050505b50505050505050505b9550959350505050565b8260020b8260020b13156127b8578260020b61279c828460020b612ce490919063ffffffff16565b60020b13156127b3576127b3868587868686612cf5565b6127f5565b8260020b8260020b12156127f5575f600284900b828107919091129082900503810260020b8260020b12156127f5576127f5868587868686612d5e565b505050505050565b5f6128437f000000000000000000000000000000000000000000000000000000000000000087876128318860a01c60020b90565b61283e8860a01c60020b90565b612dd3565b90505f61285160035c612e29565b90505f806128628484878a8a612e4a565b9150915061287d6128768860a01c60020b90565b8590613079565b6128a184848773ffffffffffffffffffffffffffffffffffffffff8b16868661314a565b505050505050505050565b5f6128f27f000000000000000000000000000000000000000000000000000000000000000087876128e08860a01c60020b90565b6128ed8860a01c60020b90565b613316565b90505f61290060035c612e29565b90505f8061292784848773ffffffffffffffffffffffffffffffffffffffff8b168a61336c565b9150915061294261293b8860a01c60020b90565b85906135b3565b6128a184848773ffffffffffffffffffffffffffffffffffffffff8b16868661369e565b5f73ffffffffffffffffffffffffffffffffffffffff84166129c1575f805f8085875af19050806129bc576129bc835f7ff4b3b1bc0000000000000000000000000000000000000000000000000000000061380d565b612a83565b6040517fa9059cbb00000000000000000000000000000000000000000000000000000000815273ffffffffffffffffffffffffffffffffffffffff8416600482015282602482015260205f6044835f895af13d15601f3d1160015f511416171691505f81525f60208201525f60408201525080612a8357612a83847fa9059cbb000000000000000000000000000000000000000000000000000000007ff27f64e40000000000000000000000000000000000000000000000000000000061380d565b50505050565b6335278d125f526004601cfd5b5f81602052631e2eaeaf5f5260205f6024601c865afa612abd5763535cf94b5f526004601cfd5b50505f51919050565b600282810b5f8181526001870160205260408082205485850b835290822054919390929087900b1215612afc57900390506119b3565b8560020b8460020b13612b11570390506119b3565b600287015491909103039050949350505050565b5f6006602052825f52600660405f2001602052815f5260405f20602052631e2eaeaf5f5260205f6024601c875afa612b645763535cf94b5f526004601cfd5b50505f516fffffffffffffffffffffffffffffffff1692915050565b5f6f80000000000000000000000000000000820160801c612b9f575090565b612ba7612a89565b919050565b808203608081901c156106655763c9654ed45f526004601cfd5b8282028284820414841517612c2a5760ff82167fffffffffffffffffffffffffffffffffffffffffffffffffffffffffffffffff8486098281108301900380821c612c1b576101008290031b91901c01612c30565b505063ae47f7025f526004601cfd5b60ff82161c5b9392505050565b82820281838583041485151702612cdd577fffffffffffffffffffffffffffffffffffffffffffffffffffffffffffffffff8385098181108201900382848609835f038416828511612c905763ae47f7025f526004601cfd5b93849004938382119092035f839003839004600101029203041760026003830281188084028203028084028203028084028203028084028203028084028203028084029091030202612c30565b0492915050565b5f8183071291819005919091030290565b60028601545b5f612d1e73ffffffffffffffffffffffffffffffffffffffff88168787866138db565b95509050600285810b9085900b1215612d37575061165a565b8015612d5857600285900b5f90815260018901602052604090208054830390555b50612cfb565b60028601545b5f612d8773ffffffffffffffffffffffffffffffffffffffff8816878786613944565b95509050600284810b9086900b13612d9f575061165a565b8015612dc057600285900b5f90815260018901602052604090208054830390555b84612dca816154d6565b95505050612d64565b6040805160c0810182525f6060820181905260a082015273ffffffffffffffffffffffffffffffffffffffff8716815260208101869052600285810b928201929092529082900b60808201526119f38184613079565b5f700100000000000000000000000000000000821061184357611843612a89565b5f80808073ffffffffffffffffffffffffffffffffffffffff8616815b60808b015160608c0151600291820b910b13612f9457612e868b613989565b9550612e91866139e4565b90505f612ea083838d5f613ce1565b90505f612eaf84848e5f613e13565b9050612ebb82876154c3565b9550612ec781866154c3565b94508a861115612f3d575f612ee6612edf8d896154b0565b8790613e7e565b9050612f0873ffffffffffffffffffffffffffffffffffffffff851680613e97565b8111612f3b57612f2d8d868e612f1e878c6154b0565b612f28878c6154b0565b613ea4565b97505050505050505061276a565b505b505060208b01518b515f91612f699173ffffffffffffffffffffffffffffffffffffffff169089614021565b9150612f8990506fffffffffffffffffffffffffffffffff8c1682614086565b9a5081925050612e67565b5073ffffffffffffffffffffffffffffffffffffffff86165f612fb983838d84613ce1565b90505f612fc884848e5f613e13565b9050612fd482876154c3565b9550612fe081866154c3565b94505f612ff0612edf8d896154b0565b905061301273ffffffffffffffffffffffffffffffffffffffff851680613e97565b811161303c576130288d868e612f1e878c6154b0565b9750627fffff98505050505050505061276a565b5f806130485f846140a0565b91509150627fffff61306261305d848461410a565b61428e565b9a509a505050505050505050509550959350505050565b816080015160020b8160020b13156130bd576040517f561ce9bb00000000000000000000000000000000000000000000000000000000815260040160405180910390fd5b600281810b60608401819052608084015190910b90036130e45750627fffff606090910152565b5f61311061310284604001518460020b6142b390919063ffffffff16565b600881901d9160ff90911690565b506020840151845191925061313c9173ffffffffffffffffffffffffffffffffffffffff1690836142be565b60a084015261071d836142f9565b5f61317c600161317073ffffffffffffffffffffffffffffffffffffffff851680613e97565b90808218908210021890565b90505f805b608089015160608a0151600291820b910b136132cf575f6131a18a613989565b90506131b56131af826139e4565b866143ac565b91505f8660020b8260020b131580156131df57506fffffffffffffffffffffffffffffffff8a1615155b15613253575f6131f189858d5f613ce1565b90505f6132008a868e5f613e13565b90506132298b61321d613213848b613e7e565b8086039086110290565b90808218908211021890565b9250828b039a5061324c838d6fffffffffffffffffffffffffffffffff166143ed565b8601955050505b6020808c0180515f9081528083526040808220600287900b8352600101909352918220805487019055518c516132a29173ffffffffffffffffffffffffffffffffffffffff9091169085614021565b91506132c290506fffffffffffffffffffffffffffffffff8c1682614086565b9a50839850505050613181565b6132eb87896fffffffffffffffffffffffffffffffff166143ed565b6020998a01515f908152998a9052604090992060020180549990920198909801905550505050505050565b6040805160c0810182525f6060820181905260a082015273ffffffffffffffffffffffffffffffffffffffff8716815260208101869052600285810b928201929092529082900b60808201526119f381846135b3565b5f805f805f5b60808a015160608b0151600291820b910b1315613490576133928a614445565b945061339d856139e4565b90505f6133ac82898c5f613ce1565b90505f6133bb838a8d5f613e13565b90506133c782866154c3565b94506133d381856154c3565b93506133f573ffffffffffffffffffffffffffffffffffffffff841680613e97565b6134096134028c886154c3565b8690613e7e565b106134395761342d898b8d61341e868a6154b0565b613428868a6154b0565b61449f565b9550505050505061276a565b505060208a01518a515f916134659173ffffffffffffffffffffffffffffffffffffffff169088614021565b915061348590506fffffffffffffffffffffffffffffffff8b1682612bac565b995081975050613372565b5073ffffffffffffffffffffffffffffffffffffffff85165f6134b582898c84613ce1565b90505f6134c4838a8d5f613e13565b90506134d082866154c3565b94506134dc81856154c3565b93505f6134ec6134028c886154c3565b905061350e73ffffffffffffffffffffffffffffffffffffffff851680613e97565b81111561355f5761352f8a8c8e613525878b6154b0565b613428878b6154b0565b96507fffffffffffffffffffffffffffffffffffffffffffffffffffffffffff800000975050505050505061276a565b5f8061356b5f846140a0565b915091507fffffffffffffffffffffffffffffffffffffffffffffffffffffffffff80000061359d61305d848461410a565b9950995050505050505050509550959350505050565b8060020b826080015160020b13156135f7576040517f561ce9bb00000000000000000000000000000000000000000000000000000000815260040160405180910390fd5b613602816001615532565b600290810b60608401526080830151810b9082900b0361364657507fffffffffffffffffffffffffffffffffffffffffffffffffffffffffff800000606090910152565b5f61366461310284604001518460020b6142b390919063ffffffff16565b50602084015184519192506136909173ffffffffffffffffffffffffffffffffffffffff1690836142be565b60a084015261071d836146a3565b5f6136c4600161317073ffffffffffffffffffffffffffffffffffffffff851680613e97565b90505f805b608089015160608a0151600291820b910b13156132cf575f6136ea8a614445565b90506136fe6136f8826139e4565b86614766565b91505f8660020b8260020b1215801561372857506fffffffffffffffffffffffffffffffff8a1615155b15613791575f61373a848a8d5f613ce1565b90505f613749858b8e5f613e13565b90506137678b61321d8461375d858c613e7e565b9080821191030290565b9250828b039a5061378a838d6fffffffffffffffffffffffffffffffff166143ed565b8601955050505b6020808c0180515f9081528083526040808220600287900b8352600101909352918220805487019055518c516137e09173ffffffffffffffffffffffffffffffffffffffff9091169085614021565b915061380090506fffffffffffffffffffffffffffffffff8c1682612bac565b9a508398505050506136c9565b6040517f90bfb8650000000000000000000000000000000000000000000000000000000080825273ffffffffffffffffffffffffffffffffffffffff851660048301527fffffffff0000000000000000000000000000000000000000000000000000000084166024830152608060448301526020601f3d018190040260a0810160648401523d608484015290913d5f60a483013e60048260a4018201527fffffffff0000000000000000000000000000000000000000000000000000000084168260c4018201528160e40181fd5b5f8080806138f78587078213868805035b613102906001615532565b90925090506139278161392173ffffffffffffffffffffffffffffffffffffffff8b168a866142be565b906147a0565b9094509050613937828287614862565b9250505094509492505050565b5f808080613959858707821386880503613102565b90925090506139278161398373ffffffffffffffffffffffffffffffffffffffff8b168a866142be565b9061488c565b608081015160608201515f91600290810b91900b13156139d5576040517ffced566800000000000000000000000000000000000000000000000000000000815260040160405180910390fd5b506060810151612ba7826142f9565b60020b5f60ff82901d80830118620d89e8811115613a2657613a267f8b86327a0000000000000000000000000000000000000000000000000000000084614954565b7001fffcb933bd6fad37aa2d162d1a5940016001821602700100000000000000000000000000000000186002821615613a6f576ffff97272373d413259a46990580e213a0260801c5b6004821615613a8e576ffff2e50f5f656932ef12357cf3c7fdcc0260801c5b6008821615613aad576fffe5caca7e10e4e61c3624eaa0941cd00260801c5b6010821615613acc576fffcb9843d60f6159c9db58835c9266440260801c5b6020821615613aeb576fff973b41fa98c081472e6896dfb254c00260801c5b6040821615613b0a576fff2ea16466c96a3843ec78b326b528610260801c5b6080821615613b29576ffe5dee046a99a2a811c461f1969c30530260801c5b610100821615613b49576ffcbe86c7900a88aedcffc83b479aa3a40260801c5b610200821615613b69576ff987a7253ac413176f2b074cf7815e540260801c5b610400821615613b89576ff3392b0822b70005940c7a398e4b70f30260801c5b610800821615613ba9576fe7159475a2c29b7443b29c7fa6e889d90260801c5b611000821615613bc9576fd097f3bdfd2022b8845ad8f792aa58250260801c5b612000821615613be9576fa9f746462d870fdf8a65dc1f90e061e50260801c5b614000821615613c09576f70d869a156d2a1b890bb3df62baf32f70260801c5b618000821615613c29576f31be135f97d08fd981231505542fcfa60260801c5b62010000821615613c4a576f09aa508b5b7a84e1c677de54f3e99bc90260801c5b62020000821615613c6a576e5d6af8dedb81196699c329225ee6040260801c5b62040000821615613c89576d2216e584f5fa1ea926041bedfe980260801c5b62080000821615613ca6576b048a170391f7dc42444e8fa20260801c5b5f841315613cd1577fffffffffffffffffffffffffffffffffffffffffffffffffffffffffffffffff045b63ffffffff0160201c9392505050565b5f8373ffffffffffffffffffffffffffffffffffffffff168573ffffffffffffffffffffffffffffffffffffffff161115613d1a579293925b73ffffffffffffffffffffffffffffffffffffffff8516613d415762bfc9215f526004601cfd5b7bffffffffffffffffffffffffffffffff000000000000000000000000606084901b1673ffffffffffffffffffffffffffffffffffffffff8686031683613dcd578673ffffffffffffffffffffffffffffffffffffffff16613dba83838973ffffffffffffffffffffffffffffffffffffffff16614963565b81613dc757613dc7615096565b04610c61565b610c61613df183838973ffffffffffffffffffffffffffffffffffffffff16614a1e565b8873ffffffffffffffffffffffffffffffffffffffff16808204910615150190565b5f73ffffffffffffffffffffffffffffffffffffffff8481169086160360ff81901d908101186c010000000000000000000000006fffffffffffffffffffffffffffffffff8516613e65818484614963565b9350845f83858409111684019350505050949350505050565b5f612c30836c0100000000000000000000000084612c37565b5f612c3083836060612bc6565b5f80613ed86fffffffffffffffffffffffffffffffff881673ffffffffffffffffffffffffffffffffffffffff8816613e7e565b90505f613f0d6fffffffffffffffffffffffffffffffff891673ffffffffffffffffffffffffffffffffffffffff8916613e97565b90505f86613f1b84886154c3565b613f2591906154b0565b90505f805f80613f358986614a4e565b915091508a8a10613f6e57613f5386613f4e8d8d6154b0565b614a4e565b9094509250613f6482828686614a86565b9094509250613f93565b613f7c86613f4e8c8e6154b0565b9094509250613f8d82828686614ade565b90945092505b5050613f9f8282614b29565b90925090505f613faf838361410a565b90507bffffffffffffffffffffffffffffffff00000000000000000000000060608d901b16613fe05f828185614ade565b90945092505f80613ff2868689614b81565b91509150815f1461400557614005615573565b61400e8161428e565b9f9e505050505050505050505050505050565b5f806006602052835f52600460405f2001602052825f5260405f20602052631e2eaeaf5f5260205f6024601c885afa6140615763535cf94b5f526004601cfd5b50505f516fffffffffffffffffffffffffffffffff81169460809190911d9350915050565b818101608081901c156106655763c9654ed45f526004601cfd5b5f8073ffffffffffffffffffffffffffffffffffffffff841684146140f1576040517f35278d1200000000000000000000000000000000000000000000000000000000815260040160405180910390fd5b5050606082811b60a083901c179082901b5b9250929050565b5f825f036141a9576141a28270ffffffffffffffffffffffffffffffffff811160071b81811c68ffffffffffffffffff1060061b1781811c64ffffffffff1060051b1781811c62ffffff1060041b1781811c620100000160b5600192831c1b0260121c80830401811c80830401811c80830401811c80830401811c80830401811c80830401811c80830401901c908190048111900390565b9050610665565b60028360020110156141c057508015158217610665565b6001614253847f0706060506020504060203020504030106050205030304010505030400000000601f6f8421084210842108cc6318c6db6d54be831560081b6fffffffffffffffffffffffffffffffff851160071b1784811c67ffffffffffffffff1060061b1784811c63ffffffff1060051b1784811c61ffff1060041b1784811c60ff1060031b1793841c1c161a1790565b901c6081016001901b90506001810390505f5b5080614273848483614b81565b82811690831860011c01925050808210614266579392505050565b5f74010000000000000000000000000000000000000000821061184357611843612a89565b5f8183071291050390565b5f82815260066020908152604080832084845260050190915281206119f373ffffffffffffffffffffffffffffffffffffffff861682612a96565b5f806143166138ec846060015185604001515f8183071291050390565b915091508060ff165f03614354576020830151835161434e9173ffffffffffffffffffffffffffffffffffffffff90911690846142be565b60a08401525b60a08301515f9061436590836147a0565b809350819250505061437c83838660400151614862565b60020b606085015280156143905750505050565b505050806080015160020b816060015160020b13156142f95750565b5f8173ffffffffffffffffffffffffffffffffffffffff168373ffffffffffffffffffffffffffffffffffffffff16106143e65781612c30565b5090919050565b5f7001000000000000000000000000000000008310614438576040517f5008206500000000000000000000000000000000000000000000000000000000815260040160405180910390fd5b608083901b829004612c30565b608081015160608201515f91600290810b91900b13614490576040517ffced566800000000000000000000000000000000000000000000000000000000815260040160405180910390fd5b506060810151612ba7826146a3565b5f806144d36fffffffffffffffffffffffffffffffff861673ffffffffffffffffffffffffffffffffffffffff8916613e7e565b90505f6145086fffffffffffffffffffffffffffffffff871673ffffffffffffffffffffffffffffffffffffffff8a16613e97565b90505f61451588876154c3565b90505f806145238484614a4e565b91509150848311156145d8575f61453a86856154b0565b90505f80614548838b614a4e565b9150915061455885858484614ade565b909550935061456b915084905083614b29565b909350915061459b5f61457e858561410a565b5f60608e6fffffffffffffffffffffffffffffffff16901b614a86565b90935091505f806145ad858585614b81565b91509150815f146145c0576145c0615573565b6145c98161428e565b985050505050505050506119f3565b84831015614658575f6145eb84876154b0565b90505f806145f9838b614a4e565b9150915061460985858484614a86565b909550935061461c915084905083614b29565b909350915061459b5f7bffffffffffffffffffffffffffffffff00000000000000000000000060608d901b1681614653878761410a565b614a86565b61469761305d61466a600160606155a0565b60ff166001901b8b6fffffffffffffffffffffffffffffffff16878b61469091906154c3565b9190612c37565b955050505050506119f3565b5f806146d06131028460400151600186606001516146c191906155b9565b60020b905f8183071291050390565b915091508060ff1660ff0361470f57602083015183516147099173ffffffffffffffffffffffffffffffffffffffff90911690846142be565b60a08401525b60a08301515f90614720908361488c565b809350819250505061473783838660400151614862565b60020b6060850152801561474b5750505050565b505050806060015160020b816080015160020b126146a35750565b5f8173ffffffffffffffffffffffffffffffffffffffff168373ffffffffffffffffffffffffffffffffffffffff16116143e65781612c30565b5f805f61483b8460ff1686901c7e1f0d1e100c1d070f090b19131c1706010e11080a1a141802121b150316040581196001019091166101e07f804040554300526644320000502061067405302602000010750620017611707760fc7fb6db6db6ddddddddd34d34d349249249210842108c6318c639ce739cffffffff840260f81c161b60f71c1690811c63d76453e004601f169190911a1790565b90508061010014159250826148515760ff614858565b8360ff1681015b9150509250929050565b5f8160ff8416614878600187900b6101006155fa565b6148829190615532565b6119b391906155fa565b5f805f8360ff0390505f61492d8260ff1687901b7f0706060506020504060203020504030106050205030304010505030400000000601f6f8421084210842108cc6318c6db6d54be831560081b6fffffffffffffffffffffffffffffffff851160071b1784811c67ffffffffffffffff1060061b1784811c63ffffffff1060051b1784811c61ffff1060041b1784811c60ff1060031b1793841c1c161a1790565b9050806101001415935083614942575f614949565b8160ff1681035b925050509250929050565b815f528060020b60045260245ffd5b5f838302817fffffffffffffffffffffffffffffffffffffffffffffffffffffffffffffffff858709828110838203039150508084116149a1575f80fd5b805f036149b357508290049050612c30565b5f848688095f868103871696879004966002600389028118808a02820302808a02820302808a02820302808a02820302808a02820302808a02909103029181900381900460010186841190950394909402919094039290920491909117919091029150509392505050565b5f614a2a848484614963565b90508180614a3a57614a3a615096565b83850915612c305760010180612c30575f80fd5b5f8282027fffffffffffffffffffffffffffffffffffffffffffffffffffffffffffffffff8385098181108201900394909350915050565b828111828503819003908285039086851416868311178015614ad4576040517fcaccb6d900000000000000000000000000000000000000000000000000000000815260040160405180910390fd5b5094509492505050565b808301838110838601810191908210868310178015614ad4576040517f35278d1200000000000000000000000000000000000000000000000000000000815260040160405180910390fd5b5f8067ffffffffffffffff84168414614b6e576040517f35278d1200000000000000000000000000000000000000000000000000000000815260040160405180910390fd5b5050604081901c60c092831b1792911b90565b5f80825f03614bbc576040517f74ab0c9000000000000000000000000000000000000000000000000000000000815260040160405180910390fd5b828504915082850683858183817fffffffffffffffffffffffffffffffffffffffffffffffffffffffffffffffff8209080892965f858103861695869004600381026002908118808302820302808302820302808302820302808302820302808302820302918202900302858803879004600192889003979097049190910196909411909103949094029290921702925050565b5f60208284031215614c60575f80fd5b5035919050565b5f60a08284031215614c77575f80fd5b50919050565b5f8060c08385031215614c8e575f80fd5b614c988484614c67565b9460a0939093013593505050565b73ffffffffffffffffffffffffffffffffffffffff81168114611783575f80fd5b5f60608284031215614c77575f80fd5b5f8083601f840112614ce7575f80fd5b50813567ffffffffffffffff811115614cfe575f80fd5b602083019150836020828501011115614103575f80fd5b5f805f805f6101408688031215614d2a575f80fd5b8535614d3581614ca6565b9450614d448760208801614c67565b9350614d538760c08801614cc7565b925061012086013567ffffffffffffffff811115614d6f575f80fd5b614d7b88828901614cd7565b969995985093965092949392505050565b5f805f805f805f8789036101a0811215614da4575f80fd5b8835614daf81614ca6565b9750614dbe8a60208b01614c67565b965060807fffffffffffffffffffffffffffffffffffffffffffffffffffffffffffffff4082011215614def575f80fd5b5060c0880194506101408801359350610160880135925061018088013567ffffffffffffffff811115614e20575f80fd5b614e2c8a828b01614cd7565b989b979a50959850939692959293505050565b8060020b8114611783575f80fd5b5f805f805f6101208688031215614e62575f80fd5b614e6c8787614c67565b945060a0860135614e7c81614ca6565b935060c0860135614e8c81614e3f565b925060e0860135614e9c81614e3f565b94979396509194610100013592915050565b5f60a08284031215614ebe575f80fd5b612c308383614c67565b5f805f805f806101608789031215614ede575f80fd5b8635614ee981614ca6565b9550614ef88860208901614c67565b9450614f078860c08901614cc7565b9350610120870135925061014087013567ffffffffffffffff811115614f2b575f80fd5b614f3789828a01614cd7565b979a9699509497509295939492505050565b62ffffff81168114611783575f80fd5b5f805f806101008587031215614f6d575f80fd5b614f778686614c67565b935060a0850135614f8781614ca6565b925060c0850135614f9781614f49565b915060e0850135614fa781614f49565b939692955090935050565b5f805f60608486031215614fc4575f80fd5b8335614fcf81614ca6565b92506020840135614fdf81614ca6565b929592945050506040919091013590565b5f805f60e08486031215615002575f80fd5b833561500d81614ca6565b925061501c8560208601614c67565b915060c084013561502c81614ca6565b809150509250925092565b5f60208284031215615047575f80fd5b8135612c3081614ca6565b7f4e487b71000000000000000000000000000000000000000000000000000000005f52601160045260245ffd5b808202811582820484141761066557610665615052565b7f4e487b71000000000000000000000000000000000000000000000000000000005f52601260045260245ffd5b5f826150f6577f4e487b71000000000000000000000000000000000000000000000000000000005f52601260045260245ffd5b500490565b8015158114611783575f80fd5b5f60208284031215615118575f80fd5b8135612c30816150fb565b600f82810b9082900b037fffffffffffffffffffffffffffffffff8000000000000000000000000000000081126f7fffffffffffffffffffffffffffffff8213171561066557610665615052565b5f60208284031215615181575f80fd5b8151612c30816150fb565b5f6020828403121561519c575f80fd5b8135612c3081614e3f565b5f602082840312156151b7575f80fd5b8135612c3081614f49565b80356151cd81614ca6565b73ffffffffffffffffffffffffffffffffffffffff16825260208101356151f381614ca6565b73ffffffffffffffffffffffffffffffffffffffff166020830152604081013561521c81614f49565b62ffffff166040830152606081013561523481614e3f565b60020b6060830152608081013561524a81614ca6565b73ffffffffffffffffffffffffffffffffffffffff81166080840152505050565b60c0810161527982856151c2565b73ffffffffffffffffffffffffffffffffffffffff831660a08301529392505050565b5f602082840312156152ac575f80fd5b8151612c3081614e3f565b60e081016152c582866151c2565b62ffffff841660a083015262ffffff831660c0830152949350505050565b5f80604083850312156152f4575f80fd5b82516152ff81614f49565b602084015190925061531081614f49565b809150509250929050565b813561532681614ca6565b81547fffffffffffffffffffffffff00000000000000000000000000000000000000001673ffffffffffffffffffffffffffffffffffffffff82161782555060018101602083013561537781614ca6565b81547fffffffffffffffffffffffff00000000000000000000000000000000000000001673ffffffffffffffffffffffffffffffffffffffff82161782555060408301356153c481614f49565b815460608501356153d481614e3f565b8060b81b79ffffff00000000000000000000000000000000000000000000001676ffffff00000000000000000000000000000000000000008460a01b167fffffffffffff000000000000ffffffffffffffffffffffffffffffffffffffff841617178455505050505f608083013561544b81614ca6565b6002830180547fffffffffffffffffffffffff00000000000000000000000000000000000000001673ffffffffffffffffffffffffffffffffffffffff8316179055905080612a83565b62ffffff818116838216019081111561066557610665615052565b8181038181111561066557610665615052565b8082018082111561066557610665615052565b5f8160020b7fffffffffffffffffffffffffffffffffffffffffffffffffffffffffff800000810361550a5761550a615052565b7fffffffffffffffffffffffffffffffffffffffffffffffffffffffffffffffff0192915050565b600281810b9083900b01627fffff81137fffffffffffffffffffffffffffffffffffffffffffffffffffffffffff8000008212171561066557610665615052565b7f4e487b71000000000000000000000000000000000000000000000000000000005f52600160045260245ffd5b60ff828116828216039081111561066557610665615052565b600282810b9082900b037fffffffffffffffffffffffffffffffffffffffffffffffffffffffffff8000008112627fffff8213171561066557610665615052565b5f8260020b8260020b028060020b915080821461561957615619615052565b509291505056fea164736f6c634300081a000a","linkReferences":{}},"methodIdentifiers":{"HOOK_ADDRESS_MINER()":"7ba0a0e8","HOOK_INITCODE_STORE()":"2b03ad4e","UNI_V4()":"34556265","allHooks(uint256)":"0f22338a","cancelOwnershipHandover()":"54d1f13d","completeOwnershipHandover(address)":"f04e283e","createNewHookAndPoolWithMiner(address,(address,address,uint24,int24,address),uint160,uint24,uint24)":"b9b7469b","createNewHookAndPoolWithSalt(address,bytes32,(address,address,uint24,int24,address),uint160,uint24,uint24)":"3160f249","defaultProtocolSwapFeeAsMultipleE6()":"ebb132ff","defaultProtocolTaxFeeE6()":"1796d1b7","deployNewHook(address,bytes32)":"cf42b55d","getDefaultNetPoolSafeSwapFee(uint256,uint256)":"d2de4386","getDefaultProtocolSwapFee(uint256,uint256)":"603dbf2e","isVerifiedHook(address)":"c065d0dc","owner()":"8da5cb5b","ownershipHandoverExpiresAt(address)":"fee81cf4","recordPoolCreationAndGetStartingProtocolFee((address,address,uint24,int24,address),uint24,uint24)":"5ad212b5","renounceOwnership()":"715018a6","requestOwnershipHandover()":"25692962","setDefaultProtocolSwapFeeMultiple(uint24)":"5f3b4166","setDefaultProtocolTaxFee(uint24)":"a31d946a","setEmergencyWithdrawOnly()":"2f7f5fd5","setProtocolSwapFee(address,(address,address,uint24,int24,address),uint256)":"83588861","setProtocolTaxFee(address,(address,address,uint24,int24,address),uint256)":"03cccd07","transferOwnership(address)":"f2fde38b","withdrawOnly()":"57da4464","withdrawRevenue(address,address,uint256)":"601f53b1"},"id":100}