{"abi":[{"type":"constructor","inputs":[{"name":"owner","type":"address","internalType":"address"},{"name":"uniV4","type":"address","internalType":"contract IPoolManager"},{"name":"hookAddressMiner","type":"address","internalType":"contract IHookAddressMiner"}],"stateMutability":"nonpayable"},{"type":"receive","stateMutability":"payable"},{"type":"function","name":"HOOK_ADDRESS_MINER","inputs":[],"outputs":[{"name":"","type":"address","internalType":"contract IHookAddressMiner"}],"stateMutability":"view"},{"type":"function","name":"HOOK_INITCODE_STORE","inputs":[],"outputs":[{"name":"","type":"address","internalType":"address"}],"stateMutability":"view"},{"type":"function","name":"UNI_V4","inputs":[],"outputs":[{"name":"","type":"address","internalType":"contract IPoolManager"}],"stateMutability":"view"},{"type":"function","name":"allHooks","inputs":[{"name":"","type":"uint256","internalType":"uint256"}],"outputs":[{"name":"","type":"address","internalType":"contract AngstromL2"}],"stateMutability":"view"},{"type":"function","name":"cancelOwnershipHandover","inputs":[],"outputs":[],"stateMutability":"payable"},{"type":"function","name":"completeOwnershipHandover","inputs":[{"name":"pendingOwner","type":"address","internalType":"address"}],"outputs":[],"stateMutability":"payable"},{"type":"function","name":"createNewHookAndPoolWithMiner","inputs":[{"name":"initialOwner","type":"address","internalType":"address"},{"name":"key","type":"tuple","internalType":"struct PoolKey","components":[{"name":"currency0","type":"address","internalType":"Currency"},{"name":"currency1","type":"address","internalType":"Currency"},{"name":"fee","type":"uint24","internalType":"uint24"},{"name":"tickSpacing","type":"int24","internalType":"int24"},{"name":"hooks","type":"address","internalType":"contract IHooks"}]},{"name":"sqrtPriceX96","type":"uint160","internalType":"uint160"},{"name":"creatorSwapFeeE6","type":"uint24","internalType":"uint24"},{"name":"creatorTaxFeeE6","type":"uint24","internalType":"uint24"}],"outputs":[{"name":"newAngstrom","type":"address","internalType":"contract AngstromL2"}],"stateMutability":"nonpayable"},{"type":"function","name":"createNewHookAndPoolWithSalt","inputs":[{"name":"initialOwner","type":"address","internalType":"address"},{"name":"salt","type":"bytes32","internalType":"bytes32"},{"name":"key","type":"tuple","internalType":"struct PoolKey","components":[{"name":"currency0","type":"address","internalType":"Currency"},{"name":"currency1","type":"address","internalType":"Currency"},{"name":"fee","type":"uint24","internalType":"uint24"},{"name":"tickSpacing","type":"int24","internalType":"int24"},{"name":"hooks","type":"address","internalType":"contract IHooks"}]},{"name":"sqrtPriceX96","type":"uint160","internalType":"uint160"},{"name":"creatorSwapFeeE6","type":"uint24","internalType":"uint24"},{"name":"creatorTaxFeeE6","type":"uint24","internalType":"uint24"}],"outputs":[{"name":"newAngstrom","type":"address","internalType":"contract AngstromL2"}],"stateMutability":"nonpayable"},{"type":"function","name":"defaultJITTaxEnabled","inputs":[],"outputs":[{"name":"","type":"bool","internalType":"bool"}],"stateMutability":"view"},{"type":"function","name":"defaultPriorityFeeTaxFloor","inputs":[],"outputs":[{"name":"","type":"uint256","internalType":"uint256"}],"stateMutability":"view"},{"type":"function","name":"defaultProtocolSwapFeeAsMultipleE6","inputs":[],"outputs":[{"name":"","type":"uint24","internalType":"uint24"}],"stateMutability":"view"},{"type":"function","name":"defaultProtocolTaxFeeE6","inputs":[],"outputs":[{"name":"","type":"uint24","internalType":"uint24"}],"stateMutability":"view"},{"type":"function","name":"defaultSwapMEVTaxFactor","inputs":[],"outputs":[{"name":"","type":"uint256","internalType":"uint256"}],"stateMutability":"view"},{"type":"function","name":"deployNewHook","inputs":[{"name":"owner","type":"address","internalType":"address"},{"name":"salt","type":"bytes32","internalType":"bytes32"}],"outputs":[{"name":"newAngstrom","type":"address","internalType":"contract AngstromL2"}],"stateMutability":"nonpayable"},{"type":"function","name":"getDefaultNetPoolSafeSwapFee","inputs":[{"name":"creatorSwapFeeE6","type":"uint256","internalType":"uint256"},{"name":"lpFeeE6","type":"uint256","internalType":"uint256"}],"outputs":[{"name":"","type":"uint256","internalType":"uint256"}],"stateMutability":"view"},{"type":"function","name":"getDefaultProtocolSwapFee","inputs":[{"name":"creatorSwapFeeE6","type":"uint256","internalType":"uint256"},{"name":"lpFeeE6","type":"uint256","internalType":"uint256"}],"outputs":[{"name":"","type":"uint24","internalType":"uint24"}],"stateMutability":"view"},{"type":"function","name":"hookPoolIds","inputs":[{"name":"id","type":"bytes32","internalType":"PoolId"}],"outputs":[{"name":"hook","type":"address","internalType":"contract AngstromL2"}],"stateMutability":"view"},{"type":"function","name":"isVerifiedHook","inputs":[{"name":"hook","type":"address","internalType":"contract AngstromL2"}],"outputs":[{"name":"verified","type":"bool","internalType":"bool"}],"stateMutability":"view"},{"type":"function","name":"owner","inputs":[],"outputs":[{"name":"result","type":"address","internalType":"address"}],"stateMutability":"view"},{"type":"function","name":"ownershipHandoverExpiresAt","inputs":[{"name":"pendingOwner","type":"address","internalType":"address"}],"outputs":[{"name":"result","type":"uint256","internalType":"uint256"}],"stateMutability":"view"},{"type":"function","name":"recordPoolCreationAndGetStartingProtocolFee","inputs":[{"name":"key","type":"tuple","internalType":"struct PoolKey","components":[{"name":"currency0","type":"address","internalType":"Currency"},{"name":"currency1","type":"address","internalType":"Currency"},{"name":"fee","type":"uint24","internalType":"uint24"},{"name":"tickSpacing","type":"int24","internalType":"int24"},{"name":"hooks","type":"address","internalType":"contract IHooks"}]},{"name":"creatorSwapFeeE6","type":"uint24","internalType":"uint24"},{"name":"creatorTaxFeeE6","type":"uint24","internalType":"uint24"}],"outputs":[{"name":"protocolSwapFeeE6","type":"uint24","internalType":"uint24"},{"name":"protocolTaxFeeE6","type":"uint24","internalType":"uint24"}],"stateMutability":"nonpayable"},{"type":"function","name":"renounceOwnership","inputs":[],"outputs":[],"stateMutability":"payable"},{"type":"function","name":"requestOwnershipHandover","inputs":[],"outputs":[],"stateMutability":"payable"},{"type":"function","name":"setDefaultJITTaxEnabled","inputs":[{"name":"newDefaultJITTaxEnabled","type":"bool","internalType":"bool"}],"outputs":[],"stateMutability":"nonpayable"},{"type":"function","name":"setDefaultPriorityFeeTaxFloor","inputs":[{"name":"newDefaultPriorityFeeTaxFloor","type":"uint256","internalType":"uint256"}],"outputs":[],"stateMutability":"nonpayable"},{"type":"function","name":"setDefaultProtocolSwapFeeMultiple","inputs":[{"name":"newDefaultProtocolSwapFeeE6","type":"uint24","internalType":"uint24"}],"outputs":[],"stateMutability":"nonpayable"},{"type":"function","name":"setDefaultProtocolTaxFee","inputs":[{"name":"newDefaultProtocolTaxFeeE6","type":"uint24","internalType":"uint24"}],"outputs":[],"stateMutability":"nonpayable"},{"type":"function","name":"setDefaultSwapMEVTaxFactor","inputs":[{"name":"newDefaultSwapMEVTaxFactor","type":"uint256","internalType":"uint256"}],"outputs":[],"stateMutability":"nonpayable"},{"type":"function","name":"setEmergencyWithdrawOnly","inputs":[],"outputs":[],"stateMutability":"nonpayable"},{"type":"function","name":"setJITTaxEnabled","inputs":[{"name":"hook","type":"address","internalType":"contract AngstromL2"},{"name":"newJITTaxEnabled","type":"bool","internalType":"bool"}],"outputs":[],"stateMutability":"nonpayable"},{"type":"function","name":"setPriorityFeeTaxFloor","inputs":[{"name":"hook","type":"address","internalType":"contract AngstromL2"},{"name":"newPriorityFeeTaxFloor","type":"uint256","internalType":"uint256"}],"outputs":[],"stateMutability":"nonpayable"},{"type":"function","name":"setProtocolSwapFee","inputs":[{"name":"hook","type":"address","internalType":"contract AngstromL2"},{"name":"key","type":"tuple","internalType":"struct PoolKey","components":[{"name":"currency0","type":"address","internalType":"Currency"},{"name":"currency1","type":"address","internalType":"Currency"},{"name":"fee","type":"uint24","internalType":"uint24"},{"name":"tickSpacing","type":"int24","internalType":"int24"},{"name":"hooks","type":"address","internalType":"contract IHooks"}]},{"name":"newFeeE6","type":"uint256","internalType":"uint256"}],"outputs":[],"stateMutability":"nonpayable"},{"type":"function","name":"setProtocolTaxFee","inputs":[{"name":"hook","type":"address","internalType":"contract AngstromL2"},{"name":"key","type":"tuple","internalType":"struct PoolKey","components":[{"name":"currency0","type":"address","internalType":"Currency"},{"name":"currency1","type":"address","internalType":"Currency"},{"name":"fee","type":"uint24","internalType":"uint24"},{"name":"tickSpacing","type":"int24","internalType":"int24"},{"name":"hooks","type":"address","internalType":"contract IHooks"}]},{"name":"newFeeE6","type":"uint256","internalType":"uint256"}],"outputs":[],"stateMutability":"nonpayable"},{"type":"function","name":"setSwapMEVTaxFactor","inputs":[{"name":"hook","type":"address","internalType":"contract AngstromL2"},{"name":"newSwapMEVTaxFactor","type":"uint256","internalType":"uint256"}],"outputs":[],"stateMutability":"nonpayable"},{"type":"function","name":"transferOwnership","inputs":[{"name":"newOwner","type":"address","internalType":"address"}],"outputs":[],"stateMutability":"payable"},{"type":"function","name":"withdrawOnly","inputs":[],"outputs":[{"name":"","type":"bool","internalType":"bool"}],"stateMutability":"view"},{"type":"function","name":"withdrawRevenue","inputs":[{"name":"currency","type":"address","internalType":"Currency"},{"name":"to","type":"address","internalType":"address"},{"name":"amount","type":"uint256","internalType":"uint256"}],"outputs":[],"stateMutability":"nonpayable"},{"type":"event","name":"DefaultJITTaxStatusUpdated","inputs":[{"name":"newDefaultJITTaxEnabled","type":"bool","indexed":false,"internalType":"bool"}],"anonymous":false},{"type":"event","name":"DefaultPriorityFeeTaxFloorUpdated","inputs":[{"name":"newDefaultPriorityFeeTaxFloor","type":"uint256","indexed":false,"internalType":"uint256"}],"anonymous":false},{"type":"event","name":"DefaultProtocolSwapFeeE6Updated","inputs":[{"name":"newDefaultProtocolSwapFeeE6","type":"uint24","indexed":false,"internalType":"uint24"}],"anonymous":false},{"type":"event","name":"DefaultProtocolTaxFeeE6Updated","inputs":[{"name":"newDefaultProtocolTaxFeeE6","type":"uint24","indexed":false,"internalType":"uint24"}],"anonymous":false},{"type":"event","name":"DefaultSwapMEVTaxFactorUpdated","inputs":[{"name":"newDefaultSwapMEVTaxFactor","type":"uint256","indexed":false,"internalType":"uint256"}],"anonymous":false},{"type":"event","name":"JITTaxStatusUpdated","inputs":[{"name":"hook","type":"address","indexed":true,"internalType":"address"},{"name":"newJITTaxEnabled","type":"bool","indexed":false,"internalType":"bool"}],"anonymous":false},{"type":"event","name":"OwnershipHandoverCanceled","inputs":[{"name":"pendingOwner","type":"address","indexed":true,"internalType":"address"}],"anonymous":false},{"type":"event","name":"OwnershipHandoverRequested","inputs":[{"name":"pendingOwner","type":"address","indexed":true,"internalType":"address"}],"anonymous":false},{"type":"event","name":"OwnershipTransferred","inputs":[{"name":"oldOwner","type":"address","indexed":true,"internalType":"address"},{"name":"newOwner","type":"address","indexed":true,"internalType":"address"}],"anonymous":false},{"type":"event","name":"PoolCreated","inputs":[{"name":"hook","type":"address","indexed":false,"internalType":"address"},{"name":"key","type":"tuple","indexed":false,"internalType":"struct PoolKey","components":[{"name":"currency0","type":"address","internalType":"Currency"},{"name":"currency1","type":"address","internalType":"Currency"},{"name":"fee","type":"uint24","internalType":"uint24"},{"name":"tickSpacing","type":"int24","internalType":"int24"},{"name":"hooks","type":"address","internalType":"contract IHooks"}]},{"name":"creatorSwapFeeE6","type":"uint24","indexed":false,"internalType":"uint24"},{"name":"creatorTaxFeeE6","type":"uint24","indexed":false,"internalType":"uint24"},{"name":"protocolSwapFeeE6","type":"uint24","indexed":false,"internalType":"uint24"},{"name":"protocolTaxFeeE6","type":"uint24","indexed":false,"internalType":"uint24"}],"anonymous":false},{"type":"event","name":"PriorityFeeTaxFloorUpdated","inputs":[{"name":"hook","type":"address","indexed":true,"internalType":"address"},{"name":"newPriorityFeeTaxFloor","type":"uint256","indexed":false,"internalType":"uint256"}],"anonymous":false},{"type":"event","name":"ProtocolRevenueWithdrawn","inputs":[{"name":"currency","type":"address","indexed":true,"internalType":"Currency"},{"name":"to","type":"address","indexed":true,"internalType":"address"},{"name":"amount","type":"uint256","indexed":false,"internalType":"uint256"}],"anonymous":false},{"type":"event","name":"ProtocolSwapFeeUpdated","inputs":[{"name":"hook","type":"address","indexed":true,"internalType":"address"},{"name":"key","type":"tuple","indexed":false,"internalType":"struct PoolKey","components":[{"name":"currency0","type":"address","internalType":"Currency"},{"name":"currency1","type":"address","internalType":"Currency"},{"name":"fee","type":"uint24","internalType":"uint24"},{"name":"tickSpacing","type":"int24","internalType":"int24"},{"name":"hooks","type":"address","internalType":"contract IHooks"}]},{"name":"newFeeE6","type":"uint256","indexed":false,"internalType":"uint256"}],"anonymous":false},{"type":"event","name":"ProtocolTaxFeeUpdated","inputs":[{"name":"hook","type":"address","indexed":true,"internalType":"address"},{"name":"key","type":"tuple","indexed":false,"internalType":"struct PoolKey","components":[{"name":"currency0","type":"address","internalType":"Currency"},{"name":"currency1","type":"address","internalType":"Currency"},{"name":"fee","type":"uint24","internalType":"uint24"},{"name":"tickSpacing","type":"int24","internalType":"int24"},{"name":"hooks","type":"address","internalType":"contract IHooks"}]},{"name":"newFeeE6","type":"uint256","indexed":false,"internalType":"uint256"}],"anonymous":false},{"type":"event","name":"SwapMEVTaxFactorUpdated","inputs":[{"name":"hook","type":"address","indexed":true,"internalType":"address"},{"name":"newSwapMEVTaxFactor","type":"uint256","indexed":false,"internalType":"uint256"}],"anonymous":false},{"type":"event","name":"WithdrawOnly","inputs":[],"anonymous":false},{"type":"error","name":"AlreadyInitialized","inputs":[]},{"type":"error","name":"FlashBlockNumberProviderAlreadySet","inputs":[]},{"type":"error","name":"NewOwnerIsZeroAddress","inputs":[]},{"type":"error","name":"NoHandoverRequest","inputs":[]},{"type":"error","name":"NotVerifiedHook","inputs":[]},{"type":"error","name":"PriorityFeeTaxFloorExceedsMax","inputs":[]},{"type":"error","name":"ProtocolFeeExceedsMaximum","inputs":[]},{"type":"error","name":"SwapMEVTaxFactorExceedsMax","inputs":[]},{"type":"error","name":"Unauthorized","inputs":[]},{"type":"error","name":"WithdrawOnlyMode","inputs":[]}],"bytecode":{"object":"0x60e060405234801561000f575f80fd5b506040516183c93803806183c983398101604081905261002e91610130565b61003783610092565b6001600160a01b03808316608052811660a0526040516100759061005d6020820161010f565b601f1982820381018352601f909101166040526100ce565b6001600160a01b031660c05250505f805460ff191690555061017a565b6001600160a01b0316638b78c6d819819055805f7f8be0079c531659141344cd1fd0a4f28419497f9722a3daafe3b4186f6b6457e08180a35b50565b5f81518060401b6bfe61000180600a3d393df3000161fffe8211840152600b8101601584015ff09150816101095763301164255f526004601cfd5b90915290565b615e3a8061258f83390190565b6001600160a01b03811681146100cb575f80fd5b5f805f60608486031215610142575f80fd5b835161014d8161011c565b602085015190935061015e8161011c565b604085015190925061016f8161011c565b809150509250925092565b60805160a05160c0516123d66101b95f395f8181610395015261156e01525f818161058c015261141d01525f81816103fb01526115ad01526123d65ff3fe608060405260043610610260575f3560e01c8063603be0101161014b578063a31d946a116100c6578063e068c8b51161007c578063f04e283e11610062578063f04e283e14610720578063f2fde38b14610733578063fee81cf414610746575f80fd5b8063e068c8b5146106ec578063ebb132ff14610701575f80fd5b8063c065d0dc116100ac578063c065d0dc14610680578063cf42b55d146106ae578063d2de4386146106cd575f80fd5b8063a31d946a14610642578063b9b7469b14610661575f80fd5b80637ba0a0e81161011b5780638b14f43b116101015780638b14f43b146105cd5780638da5cb5b146105f0578063903cee2714610623575f80fd5b80637ba0a0e81461057b57806383588861146105ae575f80fd5b8063603be01014610516578063603dbf2e14610535578063715018a61461055457806375ecc9701461055c575f80fd5b80633160f249116101db57806357da4464116101ab5780635b97e691116101915780635b97e691146104b95780635f3b4166146104d8578063601f53b1146104f7575f80fd5b806357da4464146104665780635ad212b51461047e575f80fd5b80633160f249146103cb57806334556265146103ea5780634217272d1461041d57806354d1f13d1461045e575f80fd5b806310bce7b7116102305780632569296211610216578063256929621461037c5780632b03ad4e146103845780632f7f5fd5146103b7575f80fd5b806310bce7b7146103275780631796d1b714610346575f80fd5b806303cccd071461026b578063042d51731461028c5780630641a685146102c45780630f22338a146102e3575f80fd5b3661026757005b5f80fd5b348015610276575f80fd5b5061028a610285366004611d42565b610777565b005b348015610297575f80fd5b505f546102af90670100000000000000900460ff1681565b60405190151581526020015b60405180910390f35b3480156102cf575f80fd5b5061028a6102de366004611d7f565b610892565b3480156102ee575f80fd5b506103026102fd366004611d7f565b610915565b60405173ffffffffffffffffffffffffffffffffffffffff90911681526020016102bb565b348015610332575f80fd5b5061028a610341366004611d96565b61094a565b348015610351575f80fd5b505f5461036890640100000000900462ffffff1681565b60405162ffffff90911681526020016102bb565b61028a610a5d565b34801561038f575f80fd5b506103027f000000000000000000000000000000000000000000000000000000000000000081565b3480156103c2575f80fd5b5061028a610aaa565b3480156103d6575f80fd5b506103026103e5366004611de2565b610b05565b3480156103f5575f80fd5b506103027f000000000000000000000000000000000000000000000000000000000000000081565b348015610428575f80fd5b50610302610437366004611d7f565b60056020525f908152604090205473ffffffffffffffffffffffffffffffffffffffff1681565b61028a610ba2565b348015610471575f80fd5b505f546102af9060ff1681565b348015610489575f80fd5b5061049d610498366004611e53565b610bdb565b6040805162ffffff9384168152929091166020830152016102bb565b3480156104c4575f80fd5b5061028a6104d3366004611ea3565b610d4d565b3480156104e3575f80fd5b5061028a6104f2366004611ed6565b610e1b565b348015610502575f80fd5b5061028a610511366004611eef565b610ecd565b348015610521575f80fd5b5061028a610530366004611d96565b610f62565b348015610540575f80fd5b5061036861054f366004611f2d565b61106c565b61028a611113565b348015610567575f80fd5b5061028a610576366004611f4d565b611126565b348015610586575f80fd5b506103027f000000000000000000000000000000000000000000000000000000000000000081565b3480156105b9575f80fd5b5061028a6105c8366004611d42565b611199565b3480156105d8575f80fd5b506105e260025481565b6040519081526020016102bb565b3480156105fb575f80fd5b507fffffffffffffffffffffffffffffffffffffffffffffffffffffffff7487392754610302565b34801561062e575f80fd5b5061028a61063d366004611d7f565b6112a6565b34801561064d575f80fd5b5061028a61065c366004611ed6565b61131f565b34801561066c575f80fd5b5061030261067b36600461202b565b6113d4565b34801561068b575f80fd5b506102af61069a366004612093565b60036020525f908152604090205460ff1681565b3480156106b9575f80fd5b506103026106c8366004611d96565b61152b565b3480156106d8575f80fd5b506105e26106e7366004611f2d565b611941565b3480156106f7575f80fd5b506105e260015481565b34801561070c575f80fd5b505f5461036890610100900462ffffff1681565b61028a61072e366004612093565b6119ad565b61028a610741366004612093565b6119ea565b348015610751575f80fd5b506105e2610760366004612093565b63389a75e1600c9081525f91909152602090205490565b61077f611a10565b620b71b08111156107bc576040517f2989d6b200000000000000000000000000000000000000000000000000000000815260040160405180910390fd5b6040517f7668bc6e00000000000000000000000000000000000000000000000000000000815273ffffffffffffffffffffffffffffffffffffffff841690637668bc6e90610810908590859060040161215a565b5f604051808303815f87803b158015610827575f80fd5b505af1158015610839573d5f803e3d5ffd5b505050508273ffffffffffffffffffffffffffffffffffffffff167f4b2ac796fb4ea85c77a0541e8edda3d66b3ae6d76892cecf471b168f1e1e8e8b838360405161088592919061215a565b60405180910390a2505050565b61089a611a10565b64174876e8008111156108d9576040517f9e29e83700000000000000000000000000000000000000000000000000000000815260040160405180910390fd5b60028190556040518181527fd9cfe37feb2551caa264eb739e230869accdd1757667f875090fd75777099d94906020015b60405180910390a150565b60048181548110610924575f80fd5b5f9182526020909120015473ffffffffffffffffffffffffffffffffffffffff16905081565b610952611a10565b61270f81111561098e576040517f3d4ed5f500000000000000000000000000000000000000000000000000000000815260040160405180910390fd5b6040517fac9334e00000000000000000000000000000000000000000000000000000000081526004810182905273ffffffffffffffffffffffffffffffffffffffff83169063ac9334e0906024015f604051808303815f87803b1580156109f3575f80fd5b505af1158015610a05573d5f803e3d5ffd5b505050508173ffffffffffffffffffffffffffffffffffffffff167f3fbe20cdaabf7ba1989d02b8a6ae9c7afa9dd871b81cdc8b6d5609fe8bd181db82604051610a5191815260200190565b60405180910390a25050565b5f6202a30067ffffffffffffffff164201905063389a75e1600c52335f52806020600c2055337fdbf36a107da19e49527a7176a1babf963b4b0ff8cde35ee35d6cd8f1f9ac7e1d5f80a250565b610ab2611a10565b5f80547fffffffffffffffffffffffffffffffffffffffffffffffffffffffffffffff001660011781556040517fe2a4a1909832721f607d4aba2c111d98fadc095cb788777117146a100a9e07919190a1565b5f610b10878761152b565b6040517fcbceaa2c00000000000000000000000000000000000000000000000000000000815290915073ffffffffffffffffffffffffffffffffffffffff82169063cbceaa2c90610b6b908890889088908890600401612175565b5f604051808303815f87803b158015610b82575f80fd5b505af1158015610b94573d5f803e3d5ffd5b505050509695505050505050565b63389a75e1600c52335f525f6020600c2055337ffa7b8eab7da67f412cc9575ed43464468f9bfbae89d1675917346ca6d8fe3c925f80a2565b5f8054819060ff1615610c1a576040517fad1c9c2800000000000000000000000000000000000000000000000000000000815260040160405180910390fd5b335f9081526003602052604090205460ff16610c62576040517f82dbbfc700000000000000000000000000000000000000000000000000000000815260040160405180910390fd5b610c8562ffffff8516610c7b6060880160408901611ed6565b62ffffff1661106c565b5f5490925062ffffff6401000000009091048116915061c3509083161115610cad5761c35091505b5f610cc7610cc0368890038801886121bb565b60a0902090565b5f818152600560205260409081902080547fffffffffffffffffffffffff0000000000000000000000000000000000000000163390811790915590519192507fde9edd0c5a7405829fcc75a5a8748eba90b3be8249cdb2e65cdadfab16663b8791610d3c9190899089908990899089906121d5565b60405180910390a150935093915050565b610d55611a10565b6040517ffa543c18000000000000000000000000000000000000000000000000000000008152811515600482015273ffffffffffffffffffffffffffffffffffffffff83169063fa543c18906024015f604051808303815f87803b158015610dbb575f80fd5b505af1158015610dcd573d5f803e3d5ffd5b505050508173ffffffffffffffffffffffffffffffffffffffff167fadb78a97618ca6b317c48a7ce9779d032274e0dc84361bd89793dacbfa113b0d82604051610a51911515815260200190565b610e23611a10565b620f423f62ffffff82161115610e65576040517f2989d6b200000000000000000000000000000000000000000000000000000000815260040160405180910390fd5b5f80547fffffffffffffffffffffffffffffffffffffffffffffffffffffffff000000ff1661010062ffffff8416908102919091179091556040519081527f05912f33d43dfd69adb92641808f8ab0f0c71ae2b8a660681ecfe5d1b5ab2ead9060200161090a565b610ed5611a10565b8173ffffffffffffffffffffffffffffffffffffffff168373ffffffffffffffffffffffffffffffffffffffff167f0da3fedd68d8fe429c5ec0bdf631033ce832bc7d229c6498f8f12993e4db760d83604051610f3491815260200190565b60405180910390a3610f5d73ffffffffffffffffffffffffffffffffffffffff84168383611a45565b505050565b610f6a611a10565b64174876e800811115610fa9576040517f9e29e83700000000000000000000000000000000000000000000000000000000815260040160405180910390fd5b6040517f691d5ed40000000000000000000000000000000000000000000000000000000081526004810182905273ffffffffffffffffffffffffffffffffffffffff83169063691d5ed4906024015f604051808303815f87803b15801561100e575f80fd5b505af1158015611020573d5f803e3d5ffd5b505050508173ffffffffffffffffffffffffffffffffffffffff167fff06cd3128e25866a88744bae5a7cb597790ce45a9e2de9ce657758e25c1e2a182604051610a5191815260200190565b5f61110a61107d83620f4240612266565b5f546110939190610100900462ffffff16612279565b6110a0620f424080612279565b6110aa9190612266565b6110b785620f4240612266565b6110c485620f4240612266565b6110ce9190612279565b6110db620f424080612279565b6110e59190612266565b5f546110fb9190610100900462ffffff16612279565b6111059190612290565b611b68565b90505b92915050565b61111b611a10565b6111245f611b80565b565b61112e611a10565b5f8054821515670100000000000000027fffffffffffffffffffffffffffffffffffffffffffffffff00ffffffffffffff9091161790556040517fc1eafbbbfa6412817f198ad9582cbb188e919e729283d7d11007a73f40437f719061090a90831515815260200190565b6111a1611a10565b61c3508111156111dd576040517f2989d6b200000000000000000000000000000000000000000000000000000000815260040160405180910390fd5b6040517f5227336600000000000000000000000000000000000000000000000000000000815273ffffffffffffffffffffffffffffffffffffffff841690635227336690611231908590859060040161215a565b5f604051808303815f87803b158015611248575f80fd5b505af115801561125a573d5f803e3d5ffd5b505050508273ffffffffffffffffffffffffffffffffffffffff167f990fe1d43253208121f4172ff444078c5bfbf71baeae9aac9024eddefba9b326838360405161088592919061215a565b6112ae611a10565b61270f8111156112ea576040517f3d4ed5f500000000000000000000000000000000000000000000000000000000815260040160405180910390fd5b60018190556040518181527f96650c624b559fc3d67f1d51286fd15dbfcf7137c7e7db6241e2f937af3311909060200161090a565b611327611a10565b620b71b062ffffff82161115611369576040517f2989d6b200000000000000000000000000000000000000000000000000000000815260040160405180910390fd5b5f80547fffffffffffffffffffffffffffffffffffffffffffffffffff000000ffffffff1664010000000062ffffff8416908102919091179091556040519081527f37260b1b086886391ad9257e8348235da3fb32eb1212d9e35e9af01ce9dfc84c9060200161090a565b6040517f2e2e59b900000000000000000000000000000000000000000000000000000000815273ffffffffffffffffffffffffffffffffffffffff86811660048301525f9182917f00000000000000000000000000000000000000000000000000000000000000001690632e2e59b990602401602060405180830381865afa158015611462573d5f803e3d5ffd5b505050506040513d601f19601f8201168201806040525081019061148691906122c8565b9050611492878261152b565b73ffffffffffffffffffffffffffffffffffffffff8116608088018190526040517fcbceaa2c0000000000000000000000000000000000000000000000000000000081529193509063cbceaa2c906114f49089908990899089906004016122df565b5f604051808303815f87803b15801561150b575f80fd5b505af115801561151d573d5f803e3d5ffd5b505050505095945050505050565b5f805460ff1615611568576040517fad1c9c2800000000000000000000000000000000000000000000000000000000815260040160405180910390fd5b5f6115927f0000000000000000000000000000000000000000000000000000000000000000611be5565b6040805173ffffffffffffffffffffffffffffffffffffffff7f000000000000000000000000000000000000000000000000000000000000000081166020830152871681830152815180820383018152606082019092526115f79291906080016123b5565b6040516020818303038152906040529050828151602083015ff5915081611624573d5f6040513e3d604051fd5b73ffffffffffffffffffffffffffffffffffffffff82165f8181526003602052604080822080547fffffffffffffffffffffffffffffffffffffffffffffffffffffffffffffff00166001908117909155600480548083018255938190527f8a35acfbc15ff81a39ae7d344fd709f28e8600b4aa8c65c6b64bfe7fe36bd19b90930180547fffffffffffffffffffffffff000000000000000000000000000000000000000016851790555490517fac9334e00000000000000000000000000000000000000000000000000000000081529182015263ac9334e0906024015f604051808303815f87803b158015611718575f80fd5b505af115801561172a573d5f803e3d5ffd5b505050508173ffffffffffffffffffffffffffffffffffffffff167f3fbe20cdaabf7ba1989d02b8a6ae9c7afa9dd871b81cdc8b6d5609fe8bd181db60015460405161177891815260200190565b60405180910390a25f546040517ffa543c1800000000000000000000000000000000000000000000000000000000815267010000000000000090910460ff161515600482015273ffffffffffffffffffffffffffffffffffffffff83169063fa543c18906024015f604051808303815f87803b1580156117f6575f80fd5b505af1158015611808573d5f803e3d5ffd5b50505f5460405167010000000000000090910460ff161515815273ffffffffffffffffffffffffffffffffffffffff851692507fadb78a97618ca6b317c48a7ce9779d032274e0dc84361bd89793dacbfa113b0d915060200160405180910390a26002546040517f691d5ed4000000000000000000000000000000000000000000000000000000008152600481019190915273ffffffffffffffffffffffffffffffffffffffff83169063691d5ed4906024015f604051808303815f87803b1580156118d2575f80fd5b505af11580156118e4573d5f803e3d5ffd5b505050508173ffffffffffffffffffffffffffffffffffffffff167fff06cd3128e25866a88744bae5a7cb597790ce45a9e2de9ce657758e25c1e2a160025460405161193291815260200190565b60405180910390a25092915050565b5f8061194d848461106c565b62ffffff169050620f4240816119638683612266565b61196d9190612266565b61197a85620f4240612266565b6119849190612279565b611991620f424080612279565b61199b9190612266565b6119a59190612290565b949350505050565b6119b5611a10565b63389a75e1600c52805f526020600c2080544211156119db57636f5e88185f526004601cfd5b5f90556119e781611b80565b50565b6119f2611a10565b8060601b611a0757637448fbae5f526004601cfd5b6119e781611b80565b7fffffffffffffffffffffffffffffffffffffffffffffffffffffffff74873927543314611124576382b429005f526004601cfd5b5f73ffffffffffffffffffffffffffffffffffffffff8416611aa0575f805f8085875af1905080611a9b57611a9b835f7ff4b3b1bc00000000000000000000000000000000000000000000000000000000611c30565b611b62565b6040517fa9059cbb00000000000000000000000000000000000000000000000000000000815273ffffffffffffffffffffffffffffffffffffffff8416600482015282602482015260205f6044835f895af13d15601f3d1160015f511416171691505f81525f60208201525f60408201525080611b6257611b62847fa9059cbb000000000000000000000000000000000000000000000000000000007ff27f64e400000000000000000000000000000000000000000000000000000000611c30565b50505050565b5f63010000008210611b7c57611b7c611cfe565b5090565b7fffffffffffffffffffffffffffffffffffffffffffffffffffffffff74873927805473ffffffffffffffffffffffffffffffffffffffff9092169182907f8be0079c531659141344cd1fd0a4f28419497f9722a3daafe3b4186f6b6457e05f80a355565b60405164ffffffffff7fffffffffffffffffffffffffffffffffffffffffffffffffffffffffffffffff833b0116602181015f601f8401853c80825260408201810160405250919050565b6040517f90bfb8650000000000000000000000000000000000000000000000000000000080825273ffffffffffffffffffffffffffffffffffffffff851660048301527fffffffff0000000000000000000000000000000000000000000000000000000084166024830152608060448301526020601f3d018190040260a0810160648401523d608484015290913d5f60a483013e60048260a4018201527fffffffff0000000000000000000000000000000000000000000000000000000084168260c4018201528160e40181fd5b6335278d125f526004601cfd5b73ffffffffffffffffffffffffffffffffffffffff811681146119e7575f80fd5b5f60a08284031215611d3c575f80fd5b50919050565b5f805f60e08486031215611d54575f80fd5b8335611d5f81611d0b565b9250611d6e8560208601611d2c565b9295929450505060c0919091013590565b5f60208284031215611d8f575f80fd5b5035919050565b5f8060408385031215611da7575f80fd5b8235611db281611d0b565b946020939093013593505050565b8035611dcb81611d0b565b919050565b803562ffffff81168114611dcb575f80fd5b5f805f805f806101408789031215611df8575f80fd5b8635611e0381611d0b565b955060208701359450611e198860408901611d2c565b935060e0870135611e2981611d0b565b9250611e386101008801611dd0565b9150611e476101208801611dd0565b90509295509295509295565b5f805f60e08486031215611e65575f80fd5b611e6f8585611d2c565b9250611e7d60a08501611dd0565b9150611e8b60c08501611dd0565b90509250925092565b80358015158114611dcb575f80fd5b5f8060408385031215611eb4575f80fd5b8235611ebf81611d0b565b9150611ecd60208401611e94565b90509250929050565b5f60208284031215611ee6575f80fd5b61110a82611dd0565b5f805f60608486031215611f01575f80fd5b8335611f0c81611d0b565b92506020840135611f1c81611d0b565b929592945050506040919091013590565b5f8060408385031215611f3e575f80fd5b50508035926020909101359150565b5f60208284031215611f5d575f80fd5b61110a82611e94565b8035600281900b8114611dcb575f80fd5b5f60a08284031215611f87575f80fd5b60405160a0810181811067ffffffffffffffff82111715611fcf577f4e487b71000000000000000000000000000000000000000000000000000000005f52604160045260245ffd5b604052905080611fde83611dc0565b8152611fec60208401611dc0565b6020820152611ffd60408401611dd0565b604082015261200e60608401611f66565b606082015261201f60808401611dc0565b60808201525092915050565b5f805f805f6101208688031215612040575f80fd5b853561204b81611d0b565b945061205a8760208801611f77565b935060c086013561206a81611d0b565b925061207860e08701611dd0565b91506120876101008701611dd0565b90509295509295909350565b5f602082840312156120a3575f80fd5b81356120ae81611d0b565b9392505050565b80356120c081611d0b565b73ffffffffffffffffffffffffffffffffffffffff16825260208101356120e681611d0b565b73ffffffffffffffffffffffffffffffffffffffff16602083015262ffffff61211160408301611dd0565b16604083015261212360608201611f66565b60020b6060830152608081013561213981611d0b565b73ffffffffffffffffffffffffffffffffffffffff81166080840152505050565b60c0810161216882856120b5565b8260a08301529392505050565b610100810161218482876120b5565b73ffffffffffffffffffffffffffffffffffffffff9490941660a082015262ffffff92831660c0820152911660e090910152919050565b5f60a082840312156121cb575f80fd5b61110a8383611f77565b73ffffffffffffffffffffffffffffffffffffffff87168152610140810161220060208301886120b5565b62ffffff861660c083015262ffffff851660e083015262ffffff841661010083015262ffffff8316610120830152979650505050505050565b7f4e487b71000000000000000000000000000000000000000000000000000000005f52601160045260245ffd5b8181038181111561110d5761110d612239565b808202811582820484141761110d5761110d612239565b5f826122c3577f4e487b71000000000000000000000000000000000000000000000000000000005f52601260045260245ffd5b500490565b5f602082840312156122d8575f80fd5b5051919050565b5f6101008201905073ffffffffffffffffffffffffffffffffffffffff865116825273ffffffffffffffffffffffffffffffffffffffff602087015116602083015262ffffff6040870151166040830152606086015160020b606083015273ffffffffffffffffffffffffffffffffffffffff608087015116608083015261237f60a083018673ffffffffffffffffffffffffffffffffffffffff169052565b62ffffff841660c083015262ffffff831660e083015295945050505050565b5f81518060208401855e5f93019283525090919050565b5f6119a56123c3838661239e565b8461239e56fea164736f6c634300081a000a60c06040526002805460ff19169055348015610019575f80fd5b50604051615e3a380380615e3a8339810160408190526100389161028d565b6001600160a01b03821660805261004e816100d8565b3360a0526100d1306100cc604080516101c0810182525f60208201819052918101829052608081018290526101008101829052610120810191909152600180825260608201819052610180820181905260a082018190526101a0820181905260c0820181905260e08201819052610140820181905261016082015290565b610114565b50506102c5565b6001600160a01b0316638b78c6d819819055805f7f8be0079c531659141344cd1fd0a4f28419497f9722a3daafe3b4186f6b6457e08180a35b50565b80511515612000831615151415806101385750602081015115156110008316151514155b8061014f5750604081015115156108008316151514155b806101665750606081015115156104008316151514155b8061017d5750608081015115156102008316151514155b80610194575060a081015115156101008316151514155b806101aa575060c0810151151560808316151514155b806101c0575060e0810151151560408316151514155b806101d75750610100810151151560208316151514155b806101ee5750610120810151151560108316151514155b806102055750610140810151151560088316151514155b8061021c5750610160810151151560048316151514155b806102335750610180810151151560028316151514155b8061024a57506101a0810151151560018316151514155b1561026057610260630732d7b560e51b83610264565b5050565b815f526001600160a01b03811660045260245ffd5b6001600160a01b0381168114610111575f80fd5b5f806040838503121561029e575f80fd5b82516102a981610279565b60208401519092506102ba81610279565b809150509250929050565b60805160a051615a746103c65f395f81816101ee0152818161078301528181610da701528181611240015281816115c70152818161198101528181611c74015281816125800152818161294a01528181612b360152612d1801525f8181610a0401528181610a4201528181610cec01528181610dd601528181610e6f0152818161100d015281816111980152818161126f015281816113f70152818161142d0152818161185301528181611dd9015281816124f3015281816125af015281816126fa0152818161286d0152818161291a01528181612aa301528181612b6501528181612c8b01528181612d4701528181612e440152612eef0152615a745ff3fe6080604052600436106101c8575f3560e01c80639938b286116100f2578063cbceaa2c11610092578063f04e283e11610062578063f04e283e14610667578063f2fde38b1461067a578063fa543c181461068d578063fee81cf4146106ac575f80fd5b8063cbceaa2c1461057a578063cc06fb3314610599578063d8c320e7146105f8578063dc98354e14610617575f80fd5b8063addb13e0116100cd578063addb13e0146104d8578063af172083146104ec578063b47b2fb114610501578063c9f5145a1461055b575f80fd5b80639938b286146104245780639f063efc1461049a578063ac9334e0146104b9575f80fd5b8063575e24b41161016857806371e4eaa61161013857806371e4eaa61461039e5780637668bc6e146103b35780637b4c7aab146103d25780638da5cb5b146103f1575f80fd5b8063575e24b4146102be578063691d5ed4146103205780636c2bbe7e1461033f578063715018a614610396575f80fd5b806330cd3cf1116101a357806330cd3cf114610256578063439e83ac14610283578063522733661461029757806354d1f13d146102b6575f80fd5b806325692962146101d35780632dd31000146101dd5780632eb4ae1c1461022d575f80fd5b366101cf57005b5f80fd5b6101db6106dd565b005b3480156101e8575f80fd5b506102107f000000000000000000000000000000000000000000000000000000000000000081565b6040516001600160a01b0390911681526020015b60405180910390f35b348015610238575f80fd5b50600a546102469060ff1681565b6040519015158152602001610224565b348015610261575f80fd5b506102756102703660046150b1565b61072a565b604051908152602001610224565b34801561028e575f80fd5b506101db610780565b3480156102a2575f80fd5b506101db6102b13660046150de565b61086c565b6101db610923565b3480156102c9575f80fd5b506102dd6102d8366004615169565b61095c565b604080517fffffffff000000000000000000000000000000000000000000000000000000009094168452602084019290925262ffffff1690820152606001610224565b34801561032b575f80fd5b506101db61033a3660046150b1565b610bfc565b34801561034a575f80fd5b5061035e6103593660046151e0565b610c48565b604080517fffffffff000000000000000000000000000000000000000000000000000000009093168352602083019190915201610224565b6101db610f2d565b3480156103a9575f80fd5b5061027560085481565b3480156103be575f80fd5b506101db6103cd3660046150de565b610f40565b3480156103dd575f80fd5b506102756103ec3660046152a1565b610fec565b3480156103fc575f80fd5b507fffffffffffffffffffffffffffffffffffffffffffffffffffffffff7487392754610210565b34801561042f575f80fd5b5061044361043e366004615302565b611041565b60405161022491905f60a08201905082511515825262ffffff602084015116602083015262ffffff604084015116604083015262ffffff606084015116606083015262ffffff608084015116608083015292915050565b3480156104a5575f80fd5b5061035e6104b43660046151e0565b6110ed565b3480156104c4575f80fd5b506101db6104d33660046150b1565b611304565b3480156104e3575f80fd5b5061027561134d565b3480156104f7575f80fd5b5061027560095481565b34801561050c575f80fd5b5061052061051b36600461531c565b61136e565b604080517fffffffff000000000000000000000000000000000000000000000000000000009093168352600f9190910b602083015201610224565b348015610566575f80fd5b506102756105753660046150b1565b611551565b348015610585575f80fd5b506101db6105943660046153ad565b611580565b3480156105a4575f80fd5b506105b86105b33660046150b1565b611ab7565b604080516001600160a01b039687168152948616602086015262ffffff9093169284019290925260020b606083015291909116608082015260a001610224565b348015610603575f80fd5b506101db610612366004615406565b611b34565b348015610622575f80fd5b50610636610631366004615444565b611b9d565b6040517fffffffff000000000000000000000000000000000000000000000000000000009091168152602001610224565b6101db61067536600461548b565b611bd0565b6101db61068836600461548b565b611c0a565b348015610698575f80fd5b506101db6106a73660046154b3565b611c30565b3480156106b7575f80fd5b506102756106c636600461548b565b63389a75e1600c9081525f91909152602090205490565b5f6202a30067ffffffffffffffff164201905063389a75e1600c52335f52806020600c2055337fdbf36a107da19e49527a7176a1babf963b4b0ff8cde35ee35d6cd8f1f9ac7e1d5f80a250565b600a545f9060ff1661073d57505f919050565b600954821161074d57505f919050565b60095461075a90836154fb565b6201d4c061076661134d565b610770919061550e565b61077a919061550e565b92915050565b5f7f00000000000000000000000000000000000000000000000000000000000000006001600160a01b03166357da44646040518163ffffffff1660e01b8152600401602060405180830381865afa1580156107dd573d5f803e3d5ffd5b505050506040513d601f19601f820116820180604052508101906108019190615525565b60025490915060ff16151581151514610869576040517f800ebd2738ded2fc681025ada05467e0701713b32af8aeca4ba54ae6cc21dc0f905f90a1600280547fffffffffffffffffffffffffffffffffffffffffffffffffffffffffffffff00168215151790555b50565b610874611c69565b5f60035f61088185611ccb565b815260208101919091526040015f20805490915060ff166108ce576040517f486aa30700000000000000000000000000000000000000000000000000000000815260040160405180910390fd5b6108d782611cdf565b815462ffffff919091166a0100000000000000000000027fffffffffffffffffffffffffffffffffffffff000000ffffffffffffffffffff90911617815561091e81611cf7565b505050565b63389a75e1600c52335f525f6020600c2055337ffa7b8eab7da67f412cc9575ed43464468f9bfbae89d1675917346ca6d8fe3c925f80a2565b5f8080805c15610998576040517f3a79ca5500000000000000000000000000000000000000000000000000000000815260040160405180910390fd5b6109a35f6001611dc7565b6109ab611dce565b60025460ff16156109e8576040517fad1c9c2800000000000000000000000000000000000000000000000000000000815260040160405180910390fd5b5f6109f288611ccb565b9050610a32610a2a6001600160a01b037f00000000000000000000000000000000000000000000000000000000000000001683611e30565b600690611dc7565b610a82610a686001600160a01b037f00000000000000000000000000000000000000000000000000000000000000001683611e58565b6004906fffffffffffffffffffffffffffffffff16611dc7565b5f610a93610a8e611e85565b611ea2565b90505f60208901803582139190610aaa908b6154b3565b5f858152600360205260408120805492935091610ae79062ffffff67010000000000000082048116916a0100000000000000000000900416615540565b62ffffff1690505f8415610b365760208d013560ff81901d908101188415610b1a57610b17600f88900b826154fb565b90505b620f4240610b28848361550e565b610b329190615588565b9150505b610b41600582611dc7565b5f848015610b4c5750855b15610b7457610b6d610b5d83611ea2565b610b6790896155c0565b60801b90565b9050610bb8565b84158015610b80575085155b15610b8f57608087901b610b6d565b610bb5610b9b83611ea2565b60801b6fffffffffffffffffffffffffffffffff89161790565b90505b7f575e24b4000000000000000000000000000000000000000000000000000000009a5098505f975050505050505050610bf15f80611dc7565b955095509592505050565b610c04611c69565b64174876e800811115610c43576040517f9e29e83700000000000000000000000000000000000000000000000000000000815260040160405180910390fd5b600955565b5f80805c15610c83576040517f3a79ca5500000000000000000000000000000000000000000000000000000000815260040160405180910390fd5b610c8e5f6001611dc7565b610c96611dce565b60025460ff1615610ccb57507f6c2bbe7e0000000000000000000000000000000000000000000000000000000090505f610f17565b5f610cd589611ccb565b5f81815260016020526040812091925090610d13907f0000000000000000000000000000000000000000000000000000000000000000848e8d611ec2565b90505f60408a013515610d2d57610d28612026565b610d2f565b5f5b90508015610e2e57827f0dbfe120312172037c51cea150ca4997bb0b0043d1de19b71d66493fd748096282604051610d6991815260200190565b60405180910390a26040517f0b0d9c090000000000000000000000000000000000000000000000000000000081525f60048201526001600160a01b037f000000000000000000000000000000000000000000000000000000000000000081166024830152604482018390527f00000000000000000000000000000000000000000000000000000000000000001690630b0d9c09906064015f604051808303815f87803b158015610e17575f80fd5b505af1158015610e29573d5f803e3d5ffd5b505050505b8115610ecf576040517ff5298aca0000000000000000000000000000000000000000000000000000000081523060048201525f6024820152604481018390527f00000000000000000000000000000000000000000000000000000000000000006001600160a01b03169063f5298aca906064015f604051808303815f87803b158015610eb8575f80fd5b505af1158015610eca573d5f803e3d5ffd5b505050505b7f6c2bbe7e00000000000000000000000000000000000000000000000000000000610f0f610efc84611ea2565b610f0584611ea2565b610b67919061560e565b945094505050505b610f215f80611dc7565b97509795505050505050565b610f3561203d565b610f3e5f612072565b565b610f48611c69565b5f60035f610f5585611ccb565b815260208101919091526040015f20805490915060ff16610fa2576040517f486aa30700000000000000000000000000000000000000000000000000000000815260040160405180910390fd5b610fab82611cdf565b815462ffffff91909116640100000000027fffffffffffffffffffffffffffffffffffffffffffffffffff000000ffffffff90911617815561091e81611cf7565b5f80610ff787611ccb565b5f818152600160205260409020909150611036907f000000000000000000000000000000000000000000000000000000000000000083898989896120ca565b979650505050505050565b6040805160a0810182525f8082526020820181905291810182905260608101829052608081019190915260035f61107784611ccb565b815260208082019290925260409081015f20815160a081018352905460ff81161515825262ffffff610100820481169483019490945264010000000081048416928201929092526701000000000000008204831660608201526a0100000000000000000000909104909116608082015292915050565b5f80805c15611128576040517f3a79ca5500000000000000000000000000000000000000000000000000000000815260040160405180910390fd5b6111335f6001611dc7565b61113b611dce565b60025460ff1615611178576040517fad1c9c2800000000000000000000000000000000000000000000000000000000815260040160405180910390fd5b5f61118289611ccb565b5f8181526001602052604090209091506111bf907f0000000000000000000000000000000000000000000000000000000000000000838d8c612166565b5f6111c8612026565b905080156112c757817f0dbfe120312172037c51cea150ca4997bb0b0043d1de19b71d66493fd74809628260405161120291815260200190565b60405180910390a26040517f0b0d9c090000000000000000000000000000000000000000000000000000000081525f60048201526001600160a01b037f000000000000000000000000000000000000000000000000000000000000000081166024830152604482018390527f00000000000000000000000000000000000000000000000000000000000000001690630b0d9c09906064015f604051808303815f87803b1580156112b0575f80fd5b505af11580156112c2573d5f803e3d5ffd5b505050505b7f9f063efc000000000000000000000000000000000000000000000000000000006112f4610b6783611ea2565b935093505050610f215f80611dc7565b61130c611c69565b61270f811115611348576040517f3d4ed5f500000000000000000000000000000000000000000000000000000000815260040160405180910390fd5b600855565b5f6002600854600361135f919061550e565b6113699190615588565b905090565b5f80805c156113a9576040517f3a79ca5500000000000000000000000000000000000000000000000000000000815260040160405180910390fd5b6113b45f6001611dc7565b6113bc611dce565b5f6113c688611ccb565b90505f806113de8a848b8b6113d9611e85565b6122d2565b915091506113eb82611ea2565b93508960065c5f6114257f00000000000000000000000000000000000000000000000000000000000000006001600160a01b031687611e30565b905061148d867f00000000000000000000000000000000000000000000000000000000000000006114598560a01c60020b90565b6114668560a01c60020b90565b6114766080890160608a0161565c565b5f8c81526001602052604090209493929190612db5565b835f036114c357507fb47b2fb100000000000000000000000000000000000000000000000000000000965061153c945050505050565b6114d060208d018d6154b3565b156114f6576114f1866114e9608086016060870161565c565b848488612e3e565b611512565b6115128661150a608086016060870161565c565b848488612ee9565b507fb47b2fb100000000000000000000000000000000000000000000000000000000965050505050505b6115465f80611dc7565b965096945050505050565b5f600954821161156257505f919050565b60095461156f90836154fb565b6201d4c0600854610770919061550e565b7fffffffffffffffffffffffffffffffffffffffffffffffffffffffff74873927546001600160a01b0316336001600160a01b031614806115e95750336001600160a01b037f000000000000000000000000000000000000000000000000000000000000000016145b61161f576040517f82b4290000000000000000000000000000000000000000000000000000000000815260040160405180910390fd5b3061163060a086016080870161548b565b6001600160a01b031614611670576040517faf6a7d2600000000000000000000000000000000000000000000000000000000815260040160405180910390fd5b5f61168d611681602087018761548b565b6001600160a01b031690565b146116c4576040517ffafd184b00000000000000000000000000000000000000000000000000000000815260040160405180910390fd5b6116e46116d76060860160408701615677565b62ffffff16628000001490565b1561171b576040517ffafd184b00000000000000000000000000000000000000000000000000000000815260040160405180910390fd5b5f60035f61172887611ccb565b815260208101919091526040015f20805490915060ff1615611776576040517f7983c05100000000000000000000000000000000000000000000000000000000815260040160405180910390fd5b62030d408362ffffff1611156117b8576040517fbb4568d600000000000000000000000000000000000000000000000000000000815260040160405180910390fd5b6207a1208262ffffff1611156117fa576040517fbb4568d600000000000000000000000000000000000000000000000000000000815260040160405180910390fd5b80547fffffffffffffffffffffffffffffffffffffffffffffffffffffffffffffff001660011781556040517f6276cbbe0000000000000000000000000000000000000000000000000000000081526001600160a01b037f00000000000000000000000000000000000000000000000000000000000000001690636276cbbe9061188a9088908890600401615714565b6020604051808303815f875af11580156118a6573d5f803e3d5ffd5b505050506040513d601f19601f820116820180604052508101906118ca9190615738565b506118d98362ffffff16611cdf565b81547fffffffffffffffffffffffffffffffffffffffffffff000000ffffffffffffff1667010000000000000062ffffff9283160217825561191c908316611cdf565b815462ffffff91909116610100027fffffffffffffffffffffffffffffffffffffffffffffffffffffffff000000ff9091161781556040517f5ad212b50000000000000000000000000000000000000000000000000000000081526001600160a01b037f00000000000000000000000000000000000000000000000000000000000000001690635ad212b5906119ba90889087908790600401615753565b60408051808303815f875af11580156119d5573d5f803e3d5ffd5b505050506040513d601f19601f820116820180604052508101906119f9919061577f565b82547fffffffffffffffffffffffffffffffffffffff000000ffffff000000ffffffff1664010000000062ffffff928316027fffffffffffffffffffffffffffffffffffffff000000ffffffffffffffffffff16176a01000000000000000000009290911691909102178155611a6e81611cf7565b600780546001810182555f9190915285906003027fa66cc928b5edb82af9bd49922954155ab7b0942694bea4ce44661d9a8736c68801611aae82826157b7565b50505050505050565b60078181548110611ac6575f80fd5b5f9182526020909120600390910201805460018201546002928301546001600160a01b0392831694508183169362ffffff740100000000000000000000000000000000000000008404169377010000000000000000000000000000000000000000000000909304900b911685565b611b3c61203d565b816001600160a01b0316836001600160a01b03167ff46cd303fce92adbd224105c57a7f6d872ce4efbdc279a2e16eeb0349e03ef6083604051611b8191815260200190565b60405180910390a361091e6001600160a01b0384168383612f89565b5f6040517f82b4290000000000000000000000000000000000000000000000000000000000815260040160405180910390fd5b611bd861203d565b63389a75e1600c52805f526020600c208054421115611bfe57636f5e88185f526004601cfd5b5f905561086981612072565b611c1261203d565b8060601b611c2757637448fbae5f526004601cfd5b61086981612072565b611c38611c69565b600a80547fffffffffffffffffffffffffffffffffffffffffffffffffffffffffffffff0016911515919091179055565b336001600160a01b037f00000000000000000000000000000000000000000000000000000000000000001614610f3e576040517f82b4290000000000000000000000000000000000000000000000000000000000815260040160405180910390fd5b6040515f9060a083823760a0902092915050565b5f63010000008210611cf357611cf3613092565b5090565b8054620f424090611d289062ffffff6a01000000000000000000008204811691670100000000000000900416615540565b62ffffff161115611d65576040517f5102563b00000000000000000000000000000000000000000000000000000000815260040160405180910390fd5b8054620f424090611d8a9062ffffff6401000000008204811691610100900416615540565b62ffffff161115610869576040517f5102563b00000000000000000000000000000000000000000000000000000000815260040160405180910390fd5b80825d5050565b336001600160a01b037f00000000000000000000000000000000000000000000000000000000000000001614610f3e576040517ff832861400000000000000000000000000000000000000000000000000000000815260040160405180910390fd5b5f818152600660205260408120611e506001600160a01b0385168261309f565b949350505050565b5f8181526006602052604081205f611e7c6001600160a01b0386166003840161309f565b95945050505050565b5f80611e91483a6154fb565b9050611e9c81611551565b91505090565b5f6f800000000000000000000000000000008210611cf357611cf3613092565b5f8080611f1385611ed6602087018761565c565b611ee6604088016020890161565c565b6006526003525f90815260608601356026908152603a600c209082905280825260208b9052604090912091565b90925090505f611f38611f2f6001600160a01b038a1689611e30565b60a01c60020b90565b90505f611f6582611f4c602089018961565c565b611f5c60408a0160208b0161565c565b8d9291906130cf565b90505f611f7c6001600160a01b038b168a8661312e565b905086604001355f1215611fbc576040517ff0b815e900000000000000000000000000000000000000000000000000000000815260040160405180910390fd5b5f611fe6611fcd8960400135613189565b6fffffffffffffffffffffffffffffffff8416906131b5565b905061200b865f01548403826fffffffffffffffffffffffffffffffff1660806131cf565b96508615612017578286555b50505050505095945050505050565b5f80612032483a6154fb565b9050611e9c8161072a565b7fffffffffffffffffffffffffffffffffffffffffffffffffffffffff74873927543314610f3e576382b429005f526004601cfd5b7fffffffffffffffffffffffffffffffffffffffffffffffffffffffff7487392780546001600160a01b039092169182907f8be0079c531659141344cd1fd0a4f28419497f9722a3daafe3b4186f6b6457e05f80a355565b600682905260038390525f8481526026828152603a600c2090829052808252602089905260408220908261210a611f2f6001600160a01b038c168b611e30565b90505f6121198c838a8a6130cf565b90505f6121306001600160a01b038d168c8661312e565b9050612155855f01548303826fffffffffffffffffffffffffffffffff1660806131cf565b9d9c50505050505050505050505050565b5f61217d611f2f6001600160a01b03871686611e30565b90505f6121aa82612191602086018661565c565b6121a1604087016020880161565c565b8a9291906130cf565b90505f806121fc866121bf602088018861565c565b6121cf6040890160208a0161565c565b6006526003525f90815260608701356026908152603a600c209082905280825260208c9052604090912091565b90925090505f6122166001600160a01b038a16898461312e565b90505f86604001351215612256576040517f4faf60ad00000000000000000000000000000000000000000000000000000000815260040160405180910390fd5b5f612267611fcd8860400135613189565b9050806fffffffffffffffffffffffffffffffff165f0361228a578484556122c5565b5f6122bf855f01548703836fffffffffffffffffffffffffffffffff16856fffffffffffffffffffffffffffffffff16613240565b86038555505b5050505050505050505050565b5f848152600360205260408120805482919082906123109062ffffff67010000000000000082048116916a0100000000000000000000900416615540565b62ffffff1690505f602088013581139082156123a1578115612335575060055c6123a1565b5f61234360208b018b6154b3565b6123565761235189600f0b90565b612360565b6123608960801d90565b90505f61237682600f0b60ff81901d9081011890565b905061238585620f42406154fb565b61238f868361550e565b6123999190615588565b925082975050505b5f835f036123af575f6123d7565b845484906123cd90670100000000000000900462ffffff168461550e565b6123d79190615588565b90505f6123e482846154fb565b90505f6123f460208d018d6154b3565b612410578d602001602081019061240b919061548b565b61241d565b61241d60208f018f61548b565b9050895f0361261857806001600160a01b03168d7f4f3af47ae845818dccca02b720630938172f8f30f297ce36d610f6031f4f9cdd8560405161246291815260200190565b60405180910390a3806001600160a01b03168d7fb661c59053cc5d835744f8d73767a91b37592bb2b3ecc41763d6cff1b640cdbd846040516124a691815260200190565b60405180910390a36040517f0b0d9c090000000000000000000000000000000000000000000000000000000081526001600160a01b038281166004830152306024830152604482018590527f00000000000000000000000000000000000000000000000000000000000000001690630b0d9c09906064015f604051808303815f87803b158015612534575f80fd5b505af1158015612546573d5f803e3d5ffd5b50506040517f0b0d9c090000000000000000000000000000000000000000000000000000000081526001600160a01b0384811660048301527f000000000000000000000000000000000000000000000000000000000000000081166024830152604482018690527f0000000000000000000000000000000000000000000000000000000000000000169250630b0d9c0991506064015f604051808303815f87803b1580156125f2575f80fd5b505af1158015612604573d5f803e3d5ffd5b505f9a50612dab9950505050505050505050565b86545f90620f42409061263590610100900462ffffff168d61550e565b61263f9190615588565b88549091505f90620f42409061266290640100000000900462ffffff168e61550e565b61266c9190615588565b905080612679838e6154fb565b61268391906154fb565b99508e7f2c41765716fd143510d8216efd05e61f53d4510170841703d30bedbfd8b065268b6040516126b791815260200190565b60405180910390a26040517f156e29f60000000000000000000000000000000000000000000000000000000081523060048201525f6024820152604481018b90527f00000000000000000000000000000000000000000000000000000000000000006001600160a01b03169063156e29f6906064015f604051808303815f87803b158015612743575f80fd5b505af1158015612755573d5f803e3d5ffd5b505050506001600160a01b0383166129f4578e7f3ef0693476890caad2b9d55d2dc4f7d7049b3d1e6b22db3e8cb392128bc42cc78360405161279991815260200190565b60405180910390a28e7fd1d2a18b5ef4b8cb25db7c1c03b777c3b4548f0fdd6c100619ae390d44179614826040516127d391815260200190565b60405180910390a25f6001600160a01b03168f7f4f3af47ae845818dccca02b720630938172f8f30f297ce36d610f6031f4f9cdd8760405161281791815260200190565b60405180910390a35f6001600160a01b03168f7fb661c59053cc5d835744f8d73767a91b37592bb2b3ecc41763d6cff1b640cdbd8660405161285b91815260200190565b60405180910390a36001600160a01b037f000000000000000000000000000000000000000000000000000000000000000016630b0d9c095f3061289e868a61590a565b6040517fffffffff0000000000000000000000000000000000000000000000000000000060e086901b1681526001600160a01b03938416600482015292909116602483015260448201526064015f604051808303815f87803b158015612902575f80fd5b505af1158015612914573d5f803e3d5ffd5b505050507f00000000000000000000000000000000000000000000000000000000000000006001600160a01b0316630b0d9c095f7f00000000000000000000000000000000000000000000000000000000000000008488612975919061590a565b6040517fffffffff0000000000000000000000000000000000000000000000000000000060e086901b1681526001600160a01b03938416600482015292909116602483015260448201526064015f604051808303815f87803b1580156129d9575f80fd5b505af11580156129eb573d5f803e3d5ffd5b50505050612da1565b8e7f3ef0693476890caad2b9d55d2dc4f7d7049b3d1e6b22db3e8cb392128bc42cc783604051612a2691815260200190565b60405180910390a28e7fd1d2a18b5ef4b8cb25db7c1c03b777c3b4548f0fdd6c100619ae390d4417961482604051612a6091815260200190565b60405180910390a26040517f0b0d9c090000000000000000000000000000000000000000000000000000000081525f6004820152306024820152604481018390527f00000000000000000000000000000000000000000000000000000000000000006001600160a01b031690630b0d9c09906064015f604051808303815f87803b158015612aec575f80fd5b505af1158015612afe573d5f803e3d5ffd5b50506040517f0b0d9c090000000000000000000000000000000000000000000000000000000081525f60048201526001600160a01b037f000000000000000000000000000000000000000000000000000000000000000081166024830152604482018590527f0000000000000000000000000000000000000000000000000000000000000000169250630b0d9c0991506064015f604051808303815f87803b158015612ba8575f80fd5b505af1158015612bba573d5f803e3d5ffd5b50505050826001600160a01b03168f7f4f3af47ae845818dccca02b720630938172f8f30f297ce36d610f6031f4f9cdd87604051612bfa91815260200190565b60405180910390a3826001600160a01b03168f7fb661c59053cc5d835744f8d73767a91b37592bb2b3ecc41763d6cff1b640cdbd86604051612c3e91815260200190565b60405180910390a36040517f0b0d9c090000000000000000000000000000000000000000000000000000000081526001600160a01b038481166004830152306024830152604482018790527f00000000000000000000000000000000000000000000000000000000000000001690630b0d9c09906064015f604051808303815f87803b158015612ccc575f80fd5b505af1158015612cde573d5f803e3d5ffd5b50506040517f0b0d9c090000000000000000000000000000000000000000000000000000000081526001600160a01b0386811660048301527f000000000000000000000000000000000000000000000000000000000000000081166024830152604482018890527f0000000000000000000000000000000000000000000000000000000000000000169250630b0d9c0991506064015f604051808303815f87803b158015612d8a575f80fd5b505af1158015612d9c573d5f803e3d5ffd5b505050505b5050505050505050505b9550959350505050565b8260020b8260020b1315612df9578260020b612ddd828460020b6132ed90919063ffffffff16565b60020b1315612df457612df48685878686866132fe565b612e36565b8260020b8260020b1215612e36575f600284900b828107919091129082900503810260020b8260020b1215612e3657612e3686858786868661335a565b505050505050565b5f612e847f00000000000000000000000000000000000000000000000000000000000000008787612e728860a01c60020b90565b612e7f8860a01c60020b90565b6133c2565b90505f612e9260045c61340b565b90505f80612eac8484876001600160a01b038b168a61342c565b91509150612ec7612ec08860a01c60020b90565b8590613644565b612ede8484876001600160a01b038b168686613730565b505050505050505050565b5f612f2f7f00000000000000000000000000000000000000000000000000000000000000008787612f1d8860a01c60020b90565b612f2a8860a01c60020b90565b613957565b90505f612f3d60045c61340b565b90505f80612f578484876001600160a01b038b168a6139a0565b91509150612f72612f6b8860a01c60020b90565b8590613b5f565b612ede8484876001600160a01b038b168686613c15565b5f6001600160a01b038416612fd7575f805f8085875af1905080612fd257612fd2835f7ff4b3b1bc00000000000000000000000000000000000000000000000000000000613da6565b61308c565b6040517fa9059cbb0000000000000000000000000000000000000000000000000000000081526001600160a01b038416600482015282602482015260205f6044835f895af13d15601f3d1160015f511416171691505f81525f60208201525f6040820152508061308c5761308c847fa9059cbb000000000000000000000000000000000000000000000000000000007ff27f64e400000000000000000000000000000000000000000000000000000000613da6565b50505050565b6335278d125f526004601cfd5b5f81602052631e2eaeaf5f5260205f6024601c865afa6130c65763535cf94b5f526004601cfd5b50505f51919050565b600282810b5f8181526001870160205260408082205485850b835290822054919390929087900b12156131055790039050611e50565b8560020b8460020b1361311a57039050611e50565b600287015491909103039050949350505050565b5f6006602052825f52600660405f2001602052815f5260405f20602052631e2eaeaf5f5260205f6024601c875afa61316d5763535cf94b5f526004601cfd5b50505f516fffffffffffffffffffffffffffffffff1692915050565b5f6f80000000000000000000000000000000820160801c6131a8575090565b6131b0613092565b919050565b808203608081901c1561077a5763c9654ed45f526004601cfd5b82820282848204148415176132335760ff82167fffffffffffffffffffffffffffffffffffffffffffffffffffffffffffffffff8486098281108301900380821c613224576101008290031b91901c01613239565b505063ae47f7025f526004601cfd5b60ff82161c5b9392505050565b828202818385830414851517026132e6577fffffffffffffffffffffffffffffffffffffffffffffffffffffffffffffffff8385098181108201900382848609835f0384168285116132995763ae47f7025f526004601cfd5b93849004938382119092035f839003839004600101029203041760026003830281188084028203028084028203028084028203028084028203028084028203028084029091030202613239565b0492915050565b5f8183071291819005919091030290565b60028601545b5f61331a6001600160a01b038816878786613e67565b95509050600285810b9085900b12156133335750611aae565b801561335457600285900b5f90815260018901602052604090208054830390555b50613304565b60028601545b5f6133766001600160a01b038816878786613ec3565b95509050600284810b9086900b1361338e5750611aae565b80156133af57600285900b5f90815260018901602052604090208054830390555b846133b98161591d565b95505050613360565b6040805160c0810182525f6060820181905260a08201526001600160a01b038716815260208101869052600285810b928201929092529082900b6080820152611e7c8184613644565b5f7001000000000000000000000000000000008210611cf357611cf3613092565b5f805f805f5b60808a015160608b0151600291820b910b1315613536576134528a613efb565b945061345d85613f55565b90505f61346c82898c5f614252565b90505f61347b838a8d5f61431c565b9050613487828661590a565b9450613493818561590a565b93506134a86001600160a01b0384168061437a565b6134bc6134b58c8861590a565b8690614387565b106134ec576134e0898b8d6134d1868a6154fb565b6134db868a6154fb565b6143a0565b95505050505050612dab565b505060208a01518a515f9161350b916001600160a01b0316908861458a565b915061352b90506fffffffffffffffffffffffffffffffff8b16826131b5565b995081975050613432565b506001600160a01b0385165f61354e82898c84614252565b90505f61355d838a8d5f61431c565b9050613569828661590a565b9450613575818561590a565b93505f6135856134b58c8861590a565b905061359a6001600160a01b0385168061437a565b8111156135eb576135bb8a8c8e6135b1878b6154fb565b6134db878b6154fb565b96507fffffffffffffffffffffffffffffffffffffffffffffffffffffffffff8000009750505050505050612dab565b5f806135f75f846145ef565b915091507fffffffffffffffffffffffffffffffffffffffffffffffffffffffffff80000061362e613629848461464c565b6147d0565b9950995050505050505050509550959350505050565b8060020b826080015160020b1315613688576040517f561ce9bb00000000000000000000000000000000000000000000000000000000815260040160405180910390fd5b613693816001615979565b600290810b60608401526080830151810b9082900b036136d757507fffffffffffffffffffffffffffffffffffffffffffffffffffffffffff800000606090910152565b5f6137036136f584604001518460020b6147f590919063ffffffff16565b600881901d9160ff90911690565b5060208401518451919250613722916001600160a01b03169083614800565b60a084015261091e8361482e565b5f61375560016137496001600160a01b0385168061437a565b90808218908210021890565b90505f805b608089015160608a0151600291820b910b13156138db575f61377b8a613efb565b905061378f61378982613f55565b866148e4565b91505f8660020b8260020b121580156137b957506fffffffffffffffffffffffffffffffff8a1615155b1561382e575f6137cb848a8d5f614252565b90505f6137da858b8e5f61431c565b90506138048b6137f8846137ee858c614387565b9080821191030290565b90808218908211021890565b9250828b039a50613827838d6fffffffffffffffffffffffffffffffff1661490b565b8601955050505b60208b810180515f90815260018084526040808320600288900b8085529201855291829020805489019055915181519283529282018790527fc6c4b1cb6cb30eda704448c7d7d60e9a7994aaa0aa9aa71da50d8acbce80da78910160405180910390a260208b01518b515f916138ae916001600160a01b0316908561458a565b91506138ce90506fffffffffffffffffffffffffffffffff8c16826131b5565b9a5083985050505061375a565b6138f787896fffffffffffffffffffffffffffffffff1661490b565b60208a810180515f908152600183526040908190206002018054969094019586019093555191518481527f422196c03172843fe0a93ef5f2a2edae3275f7a41285011dfec95fd8958ea21e910160405180910390a2505050505050505050565b6040805160c0810182525f6060820181905260a08201526001600160a01b038716815260208101869052600285810b928201929092529082900b6080820152611e7c8184613b5f565b5f805f805f5b60808a015160608b0151600291820b910b13613ab1576139c58a614963565b94506139d085613f55565b90505f6139df88838c5f614252565b90505f6139ee89848d5f61431c565b90506139fa828661590a565b9450613a06818561590a565b935089851115613a67575f613a1e6134b58c886154fb565b9050613a336001600160a01b0385168061437a565b8111613a6557613a588c8b8d613a49878b6154fb565b613a53878b6154fb565b6149be565b9650505050505050612dab565b505b505060208a01518a515f91613a86916001600160a01b0316908861458a565b9150613aa690506fffffffffffffffffffffffffffffffff8b1682614b21565b9950819750506139a6565b506001600160a01b0385165f613ac988838c84614252565b90505f613ad889848d5f61431c565b9050613ae4828661590a565b9450613af0818561590a565b93505f613b006134b58c886154fb565b9050613b156001600160a01b0385168061437a565b8111613b3e57613b2b8c8b8d613a49878b6154fb565b9650627fffff9750505050505050612dab565b5f80613b4a5f846145ef565b91509150627fffff61362e613629848461464c565b816080015160020b8160020b1315613ba3576040517f561ce9bb00000000000000000000000000000000000000000000000000000000815260040160405180910390fd5b600281810b60608401819052608084015190910b9003613bca5750627fffff606090910152565b5f613be86136f584604001518460020b6147f590919063ffffffff16565b5060208401518451919250613c07916001600160a01b03169083614800565b60a084015261091e83614b3b565b5f613c2e60016137496001600160a01b0385168061437a565b90505f805b608089015160608a0151600291820b910b136138db575f613c538a614963565b9050613c67613c6182613f55565b86614be1565b91505f8660020b8260020b13158015613c9157506fffffffffffffffffffffffffffffffff8a1615155b15613cf9575f613ca389858d5f614252565b90505f613cb28a868e5f61431c565b9050613ccf8b6137f8613cc5848b614387565b8086039086110290565b9250828b039a50613cf2838d6fffffffffffffffffffffffffffffffff1661490b565b8601955050505b60208b810180515f90815260018084526040808320600288900b8085529201855291829020805489019055915181519283529282018790527fc6c4b1cb6cb30eda704448c7d7d60e9a7994aaa0aa9aa71da50d8acbce80da78910160405180910390a260208b01518b515f91613d79916001600160a01b0316908561458a565b9150613d9990506fffffffffffffffffffffffffffffffff8c1682614b21565b9a50839850505050613c33565b6040517f90bfb865000000000000000000000000000000000000000000000000000000008082526001600160a01b03851660048301527fffffffff0000000000000000000000000000000000000000000000000000000084166024830152608060448301526020601f3d018190040260a0810160648401523d608484015290913d5f60a483013e60048260a4018201527fffffffff0000000000000000000000000000000000000000000000000000000084168260c4018201528160e40181fd5b5f808080613e838587078213868805035b6136f5906001615979565b9092509050613ea681613ea06001600160a01b038b168a86614800565b90614c01565b9094509050613eb6828287614cc3565b9250505094509492505050565b5f808080613ed88587078213868805036136f5565b9092509050613ea681613ef56001600160a01b038b168a86614800565b90614ced565b608081015160608201515f91600290810b91900b13613f46576040517ffced566800000000000000000000000000000000000000000000000000000000815260040160405180910390fd5b5060608101516131b08261482e565b60020b5f60ff82901d80830118620d89e8811115613f9757613f977f8b86327a0000000000000000000000000000000000000000000000000000000084614db5565b7001fffcb933bd6fad37aa2d162d1a5940016001821602700100000000000000000000000000000000186002821615613fe0576ffff97272373d413259a46990580e213a0260801c5b6004821615613fff576ffff2e50f5f656932ef12357cf3c7fdcc0260801c5b600882161561401e576fffe5caca7e10e4e61c3624eaa0941cd00260801c5b601082161561403d576fffcb9843d60f6159c9db58835c9266440260801c5b602082161561405c576fff973b41fa98c081472e6896dfb254c00260801c5b604082161561407b576fff2ea16466c96a3843ec78b326b528610260801c5b608082161561409a576ffe5dee046a99a2a811c461f1969c30530260801c5b6101008216156140ba576ffcbe86c7900a88aedcffc83b479aa3a40260801c5b6102008216156140da576ff987a7253ac413176f2b074cf7815e540260801c5b6104008216156140fa576ff3392b0822b70005940c7a398e4b70f30260801c5b61080082161561411a576fe7159475a2c29b7443b29c7fa6e889d90260801c5b61100082161561413a576fd097f3bdfd2022b8845ad8f792aa58250260801c5b61200082161561415a576fa9f746462d870fdf8a65dc1f90e061e50260801c5b61400082161561417a576f70d869a156d2a1b890bb3df62baf32f70260801c5b61800082161561419a576f31be135f97d08fd981231505542fcfa60260801c5b620100008216156141bb576f09aa508b5b7a84e1c677de54f3e99bc90260801c5b620200008216156141db576e5d6af8dedb81196699c329225ee6040260801c5b620400008216156141fa576d2216e584f5fa1ea926041bedfe980260801c5b62080000821615614217576b048a170391f7dc42444e8fa20260801c5b5f841315614242577fffffffffffffffffffffffffffffffffffffffffffffffffffffffffffffffff045b63ffffffff0160201c9392505050565b5f836001600160a01b0316856001600160a01b03161115614271579293925b6001600160a01b03851661428b5762bfc9215f526004601cfd5b7bffffffffffffffffffffffffffffffff000000000000000000000000606084901b166001600160a01b0386860316836142f057866001600160a01b03166142dd8383896001600160a01b0316614dc4565b816142ea576142ea61555b565b04611036565b6110366143078383896001600160a01b0316614e7f565b886001600160a01b0316808204910615150190565b5f6001600160a01b038481169086160360ff81901d908101186c010000000000000000000000006fffffffffffffffffffffffffffffffff8516614361818484614dc4565b9350845f83858409111684019350505050949350505050565b5f613239838360606131cf565b5f613239836c0100000000000000000000000084613240565b5f806143c76fffffffffffffffffffffffffffffffff86166001600160a01b038916614387565b90505f6143ef6fffffffffffffffffffffffffffffffff87166001600160a01b038a1661437a565b90505f6143fc888761590a565b90505f8061440a8484614eaf565b91509150848311156144bf575f61442186856154fb565b90505f8061442f838b614eaf565b9150915061443f85858484614ee7565b9095509350614452915084905083614f3c565b90935091506144825f614465858561464c565b5f60608e6fffffffffffffffffffffffffffffffff16901b614f94565b90935091505f80614494858585614fe2565b91509150815f146144a7576144a76159ba565b6144b0816147d0565b98505050505050505050611e7c565b8483101561453f575f6144d284876154fb565b90505f806144e0838b614eaf565b915091506144f085858484614f94565b9095509350614503915084905083614f3c565b90935091506144825f7bffffffffffffffffffffffffffffffff00000000000000000000000060608d901b168161453a878761464c565b614f94565b61457e613629614551600160606159e7565b60ff166001901b8b6fffffffffffffffffffffffffffffffff16878b614577919061590a565b9190613240565b95505050505050611e7c565b5f806006602052835f52600460405f2001602052825f5260405f20602052631e2eaeaf5f5260205f6024601c885afa6145ca5763535cf94b5f526004601cfd5b50505f516fffffffffffffffffffffffffffffffff81169460809190911d9350915050565b5f806001600160a01b0384168414614633576040517f35278d1200000000000000000000000000000000000000000000000000000000815260040160405180910390fd5b5050606082811b60a083901c179082901b5b9250929050565b5f825f036146eb576146e48270ffffffffffffffffffffffffffffffffff811160071b81811c68ffffffffffffffffff1060061b1781811c64ffffffffff1060051b1781811c62ffffff1060041b1781811c620100000160b5600192831c1b0260121c80830401811c80830401811c80830401811c80830401811c80830401811c80830401811c80830401901c908190048111900390565b905061077a565b60028360020110156147025750801515821761077a565b6001614795847f0706060506020504060203020504030106050205030304010505030400000000601f6f8421084210842108cc6318c6db6d54be831560081b6fffffffffffffffffffffffffffffffff851160071b1784811c67ffffffffffffffff1060061b1784811c63ffffffff1060051b1784811c61ffff1060041b1784811c60ff1060031b1793841c1c161a1790565b901c6081016001901b90506001810390505f5b50806147b5848483614fe2565b82811690831860011c019250508082106147a8579392505050565b5f740100000000000000000000000000000000000000008210611cf357611cf3613092565b5f8183071291050390565b5f8281526006602090815260408083208484526005019091528120611e7c6001600160a01b0386168261309f565b5f8061485b6136f584604001516001866060015161484c9190615a00565b60020b905f8183071291050390565b915091508060ff1660ff0361488d5760208301518351614887916001600160a01b039091169084614800565b60a08401525b60a08301515f9061489e9083614ced565b80935081925050506148b583838660400151614cc3565b60020b606085015280156148c95750505050565b505050806060015160020b816080015160020b1261482e5750565b5f816001600160a01b0316836001600160a01b0316116149045781613239565b5090919050565b5f7001000000000000000000000000000000008310614956576040517f5008206500000000000000000000000000000000000000000000000000000000815260040160405180910390fd5b608083901b829004613239565b608081015160608201515f91600290810b91900b13156149af576040517ffced566800000000000000000000000000000000000000000000000000000000815260040160405180910390fd5b5060608101516131b082614b3b565b5f806149e56fffffffffffffffffffffffffffffffff88166001600160a01b038816614387565b90505f614a0d6fffffffffffffffffffffffffffffffff89166001600160a01b03891661437a565b90505f86614a1b848861590a565b614a2591906154fb565b90505f805f80614a358986614eaf565b915091508a8a10614a6e57614a5386614a4e8d8d6154fb565b614eaf565b9094509250614a6482828686614f94565b9094509250614a93565b614a7c86614a4e8c8e6154fb565b9094509250614a8d82828686614ee7565b90945092505b5050614a9f8282614f3c565b90925090505f614aaf838361464c565b90507bffffffffffffffffffffffffffffffff00000000000000000000000060608d901b16614ae05f828185614ee7565b90945092505f80614af2868689614fe2565b91509150815f14614b0557614b056159ba565b614b0e816147d0565b9f9e505050505050505050505050505050565b818101608081901c1561077a5763c9654ed45f526004601cfd5b5f80614b58613e78846060015185604001515f8183071291050390565b915091508060ff165f03614b895760208301518351614b83916001600160a01b039091169084614800565b60a08401525b60a08301515f90614b9a9083614c01565b8093508192505050614bb183838660400151614cc3565b60020b60608501528015614bc55750505050565b505050806080015160020b816060015160020b1315614b3b5750565b5f816001600160a01b0316836001600160a01b0316106149045781613239565b5f805f614c9c8460ff1686901c7e1f0d1e100c1d070f090b19131c1706010e11080a1a141802121b150316040581196001019091166101e07f804040554300526644320000502061067405302602000010750620017611707760fc7fb6db6db6ddddddddd34d34d349249249210842108c6318c639ce739cffffffff840260f81c161b60f71c1690811c63d76453e004601f169190911a1790565b9050806101001415925082614cb25760ff614cb9565b8360ff1681015b9150509250929050565b5f8160ff8416614cd9600187900b610100615a41565b614ce39190615979565b611e509190615a41565b5f805f8360ff0390505f614d8e8260ff1687901b7f0706060506020504060203020504030106050205030304010505030400000000601f6f8421084210842108cc6318c6db6d54be831560081b6fffffffffffffffffffffffffffffffff851160071b1784811c67ffffffffffffffff1060061b1784811c63ffffffff1060051b1784811c61ffff1060041b1784811c60ff1060031b1793841c1c161a1790565b9050806101001415935083614da3575f614daa565b8160ff1681035b925050509250929050565b815f528060020b60045260245ffd5b5f838302817fffffffffffffffffffffffffffffffffffffffffffffffffffffffffffffffff85870982811083820303915050808411614e02575f80fd5b805f03614e1457508290049050613239565b5f848688095f868103871696879004966002600389028118808a02820302808a02820302808a02820302808a02820302808a02820302808a02909103029181900381900460010186841190950394909402919094039290920491909117919091029150509392505050565b5f614e8b848484614dc4565b90508180614e9b57614e9b61555b565b838509156132395760010180613239575f80fd5b5f8282027fffffffffffffffffffffffffffffffffffffffffffffffffffffffffffffffff8385098181108201900394909350915050565b808301838110838601810191908210868310178015614f32576040517f35278d1200000000000000000000000000000000000000000000000000000000815260040160405180910390fd5b5094509492505050565b5f8067ffffffffffffffff84168414614f81576040517f35278d1200000000000000000000000000000000000000000000000000000000815260040160405180910390fd5b5050604081901c60c092831b1792911b90565b828111828503819003908285039086851416868311178015614f32576040517fcaccb6d900000000000000000000000000000000000000000000000000000000815260040160405180910390fd5b5f80825f0361501d576040517f74ab0c9000000000000000000000000000000000000000000000000000000000815260040160405180910390fd5b828504915082850683858183817fffffffffffffffffffffffffffffffffffffffffffffffffffffffffffffffff8209080892965f858103861695869004600381026002908118808302820302808302820302808302820302808302820302808302820302918202900302858803879004600192889003979097049190910196909411909103949094029290921702925050565b5f602082840312156150c1575f80fd5b5035919050565b5f60a082840312156150d8575f80fd5b50919050565b5f8060c083850312156150ef575f80fd5b6150f984846150c8565b9460a0939093013593505050565b6001600160a01b0381168114610869575f80fd5b5f606082840312156150d8575f80fd5b5f8083601f84011261513b575f80fd5b50813567ffffffffffffffff811115615152575f80fd5b602083019150836020828501011115614645575f80fd5b5f805f805f610140868803121561517e575f80fd5b853561518981615107565b945061519887602088016150c8565b93506151a78760c0880161511b565b925061012086013567ffffffffffffffff8111156151c3575f80fd5b6151cf8882890161512b565b969995985093965092949392505050565b5f805f805f805f8789036101a08112156151f8575f80fd5b883561520381615107565b97506152128a60208b016150c8565b965060807fffffffffffffffffffffffffffffffffffffffffffffffffffffffffffffff4082011215615243575f80fd5b5060c0880194506101408801359350610160880135925061018088013567ffffffffffffffff811115615274575f80fd5b6152808a828b0161512b565b989b979a50959850939692959293505050565b8060020b8114610869575f80fd5b5f805f805f61012086880312156152b6575f80fd5b6152c087876150c8565b945060a08601356152d081615107565b935060c08601356152e081615293565b925060e08601356152f081615293565b94979396509194610100013592915050565b5f60a08284031215615312575f80fd5b61323983836150c8565b5f805f805f806101608789031215615332575f80fd5b863561533d81615107565b955061534c88602089016150c8565b945061535b8860c0890161511b565b9350610120870135925061014087013567ffffffffffffffff81111561537f575f80fd5b61538b89828a0161512b565b979a9699509497509295939492505050565b62ffffff81168114610869575f80fd5b5f805f8061010085870312156153c1575f80fd5b6153cb86866150c8565b935060a08501356153db81615107565b925060c08501356153eb8161539d565b915060e08501356153fb8161539d565b939692955090935050565b5f805f60608486031215615418575f80fd5b833561542381615107565b9250602084013561543381615107565b929592945050506040919091013590565b5f805f60e08486031215615456575f80fd5b833561546181615107565b925061547085602086016150c8565b915060c084013561548081615107565b809150509250925092565b5f6020828403121561549b575f80fd5b813561323981615107565b8015158114610869575f80fd5b5f602082840312156154c3575f80fd5b8135613239816154a6565b7f4e487b71000000000000000000000000000000000000000000000000000000005f52601160045260245ffd5b8181038181111561077a5761077a6154ce565b808202811582820484141761077a5761077a6154ce565b5f60208284031215615535575f80fd5b8151613239816154a6565b62ffffff818116838216019081111561077a5761077a6154ce565b7f4e487b71000000000000000000000000000000000000000000000000000000005f52601260045260245ffd5b5f826155bb577f4e487b71000000000000000000000000000000000000000000000000000000005f52601260045260245ffd5b500490565b600f81810b9083900b016f7fffffffffffffffffffffffffffffff81137fffffffffffffffffffffffffffffffff800000000000000000000000000000008212171561077a5761077a6154ce565b600f82810b9082900b037fffffffffffffffffffffffffffffffff8000000000000000000000000000000081126f7fffffffffffffffffffffffffffffff8213171561077a5761077a6154ce565b5f6020828403121561566c575f80fd5b813561323981615293565b5f60208284031215615687575f80fd5b81356132398161539d565b803561569d81615107565b6001600160a01b0316825260208101356156b681615107565b6001600160a01b0316602083015260408101356156d28161539d565b62ffffff16604083015260608101356156ea81615293565b60020b6060830152608081013561570081615107565b6001600160a01b0381166080840152505050565b60c081016157228285615692565b6001600160a01b03831660a08301529392505050565b5f60208284031215615748575f80fd5b815161323981615293565b60e081016157618286615692565b62ffffff841660a083015262ffffff831660c0830152949350505050565b5f8060408385031215615790575f80fd5b825161579b8161539d565b60208401519092506157ac8161539d565b809150509250929050565b81356157c281615107565b81547fffffffffffffffffffffffff0000000000000000000000000000000000000000166001600160a01b0382161782555060018101602083013561580681615107565b81547fffffffffffffffffffffffff0000000000000000000000000000000000000000166001600160a01b0382161782555060408301356158468161539d565b8154606085013561585681615293565b8060b81b79ffffff00000000000000000000000000000000000000000000001676ffffff00000000000000000000000000000000000000008460a01b167fffffffffffff000000000000ffffffffffffffffffffffffffffffffffffffff841617178455505050505f60808301356158cd81615107565b6002830180547fffffffffffffffffffffffff0000000000000000000000000000000000000000166001600160a01b03831617905590508061308c565b8082018082111561077a5761077a6154ce565b5f8160020b7fffffffffffffffffffffffffffffffffffffffffffffffffffffffffff8000008103615951576159516154ce565b7fffffffffffffffffffffffffffffffffffffffffffffffffffffffffffffffff0192915050565b600281810b9083900b01627fffff81137fffffffffffffffffffffffffffffffffffffffffffffffffffffffffff8000008212171561077a5761077a6154ce565b7f4e487b71000000000000000000000000000000000000000000000000000000005f52600160045260245ffd5b60ff828116828216039081111561077a5761077a6154ce565b600282810b9082900b037fffffffffffffffffffffffffffffffffffffffffffffffffffffffffff8000008112627fffff8213171561077a5761077a6154ce565b5f8260020b8260020b028060020b9150808214615a6057615a606154ce565b509291505056fea164736f6c634300081a000a","linkReferences":{}},"methodIdentifiers":{"HOOK_ADDRESS_MINER()":"7ba0a0e8","HOOK_INITCODE_STORE()":"2b03ad4e","UNI_V4()":"34556265","allHooks(uint256)":"0f22338a","cancelOwnershipHandover()":"54d1f13d","completeOwnershipHandover(address)":"f04e283e","createNewHookAndPoolWithMiner(address,(address,address,uint24,int24,address),uint160,uint24,uint24)":"b9b7469b","createNewHookAndPoolWithSalt(address,bytes32,(address,address,uint24,int24,address),uint160,uint24,uint24)":"3160f249","defaultJITTaxEnabled()":"042d5173","defaultPriorityFeeTaxFloor()":"8b14f43b","defaultProtocolSwapFeeAsMultipleE6()":"ebb132ff","defaultProtocolTaxFeeE6()":"1796d1b7","defaultSwapMEVTaxFactor()":"e068c8b5","deployNewHook(address,bytes32)":"cf42b55d","getDefaultNetPoolSafeSwapFee(uint256,uint256)":"d2de4386","getDefaultProtocolSwapFee(uint256,uint256)":"603dbf2e","hookPoolIds(bytes32)":"4217272d","isVerifiedHook(address)":"c065d0dc","owner()":"8da5cb5b","ownershipHandoverExpiresAt(address)":"fee81cf4","recordPoolCreationAndGetStartingProtocolFee((address,address,uint24,int24,address),uint24,uint24)":"5ad212b5","renounceOwnership()":"715018a6","requestOwnershipHandover()":"25692962","setDefaultJITTaxEnabled(bool)":"75ecc970","setDefaultPriorityFeeTaxFloor(uint256)":"0641a685","setDefaultProtocolSwapFeeMultiple(uint24)":"5f3b4166","setDefaultProtocolTaxFee(uint24)":"a31d946a","setDefaultSwapMEVTaxFactor(uint256)":"903cee27","setEmergencyWithdrawOnly()":"2f7f5fd5","setJITTaxEnabled(address,bool)":"5b97e691","setPriorityFeeTaxFloor(address,uint256)":"603be010","setProtocolSwapFee(address,(address,address,uint24,int24,address),uint256)":"83588861","setProtocolTaxFee(address,(address,address,uint24,int24,address),uint256)":"03cccd07","setSwapMEVTaxFactor(address,uint256)":"10bce7b7","transferOwnership(address)":"f2fde38b","withdrawOnly()":"57da4464","withdrawRevenue(address,address,uint256)":"601f53b1"},"id":114}