{"abi":[{"type":"constructor","inputs":[{"name":"owner","type":"address","internalType":"address"},{"name":"uniV4","type":"address","internalType":"contract IPoolManager"},{"name":"hookAddressMiner","type":"address","internalType":"contract IHookAddressMiner"}],"stateMutability":"nonpayable"},{"type":"receive","stateMutability":"payable"},{"type":"function","name":"HOOK_ADDRESS_MINER","inputs":[],"outputs":[{"name":"","type":"address","internalType":"contract IHookAddressMiner"}],"stateMutability":"view"},{"type":"function","name":"HOOK_INITCODE_STORE","inputs":[],"outputs":[{"name":"","type":"address","internalType":"address"}],"stateMutability":"view"},{"type":"function","name":"UNI_V4","inputs":[],"outputs":[{"name":"","type":"address","internalType":"contract IPoolManager"}],"stateMutability":"view"},{"type":"function","name":"allHooks","inputs":[{"name":"","type":"uint256","internalType":"uint256"}],"outputs":[{"name":"","type":"address","internalType":"contract AngstromL2"}],"stateMutability":"view"},{"type":"function","name":"cancelOwnershipHandover","inputs":[],"outputs":[],"stateMutability":"payable"},{"type":"function","name":"completeOwnershipHandover","inputs":[{"name":"pendingOwner","type":"address","internalType":"address"}],"outputs":[],"stateMutability":"payable"},{"type":"function","name":"createNewHookAndPoolWithMiner","inputs":[{"name":"initialOwner","type":"address","internalType":"address"},{"name":"key","type":"tuple","internalType":"struct PoolKey","components":[{"name":"currency0","type":"address","internalType":"Currency"},{"name":"currency1","type":"address","internalType":"Currency"},{"name":"fee","type":"uint24","internalType":"uint24"},{"name":"tickSpacing","type":"int24","internalType":"int24"},{"name":"hooks","type":"address","internalType":"contract IHooks"}]},{"name":"sqrtPriceX96","type":"uint160","internalType":"uint160"},{"name":"creatorSwapFeeE6","type":"uint24","internalType":"uint24"},{"name":"creatorTaxFeeE6","type":"uint24","internalType":"uint24"}],"outputs":[{"name":"newAngstrom","type":"address","internalType":"contract AngstromL2"}],"stateMutability":"nonpayable"},{"type":"function","name":"createNewHookAndPoolWithSalt","inputs":[{"name":"initialOwner","type":"address","internalType":"address"},{"name":"salt","type":"bytes32","internalType":"bytes32"},{"name":"key","type":"tuple","internalType":"struct PoolKey","components":[{"name":"currency0","type":"address","internalType":"Currency"},{"name":"currency1","type":"address","internalType":"Currency"},{"name":"fee","type":"uint24","internalType":"uint24"},{"name":"tickSpacing","type":"int24","internalType":"int24"},{"name":"hooks","type":"address","internalType":"contract IHooks"}]},{"name":"sqrtPriceX96","type":"uint160","internalType":"uint160"},{"name":"creatorSwapFeeE6","type":"uint24","internalType":"uint24"},{"name":"creatorTaxFeeE6","type":"uint24","internalType":"uint24"}],"outputs":[{"name":"newAngstrom","type":"address","internalType":"contract AngstromL2"}],"stateMutability":"nonpayable"},{"type":"function","name":"defaultJITTaxEnabled","inputs":[],"outputs":[{"name":"","type":"bool","internalType":"bool"}],"stateMutability":"view"},{"type":"function","name":"defaultPriorityFeeTaxFloor","inputs":[],"outputs":[{"name":"","type":"uint256","internalType":"uint256"}],"stateMutability":"view"},{"type":"function","name":"defaultProtocolSwapFeeAsMultipleE6","inputs":[],"outputs":[{"name":"","type":"uint24","internalType":"uint24"}],"stateMutability":"view"},{"type":"function","name":"defaultProtocolTaxFeeE6","inputs":[],"outputs":[{"name":"","type":"uint24","internalType":"uint24"}],"stateMutability":"view"},{"type":"function","name":"defaultSwapMEVTaxFactor","inputs":[],"outputs":[{"name":"","type":"uint256","internalType":"uint256"}],"stateMutability":"view"},{"type":"function","name":"deployNewHook","inputs":[{"name":"owner","type":"address","internalType":"address"},{"name":"salt","type":"bytes32","internalType":"bytes32"}],"outputs":[{"name":"newAngstrom","type":"address","internalType":"contract AngstromL2"}],"stateMutability":"nonpayable"},{"type":"function","name":"getDefaultNetPoolSafeSwapFee","inputs":[{"name":"creatorSwapFeeE6","type":"uint256","internalType":"uint256"},{"name":"lpFeeE6","type":"uint256","internalType":"uint256"}],"outputs":[{"name":"","type":"uint256","internalType":"uint256"}],"stateMutability":"view"},{"type":"function","name":"getDefaultProtocolSwapFee","inputs":[{"name":"creatorSwapFeeE6","type":"uint256","internalType":"uint256"},{"name":"lpFeeE6","type":"uint256","internalType":"uint256"}],"outputs":[{"name":"","type":"uint24","internalType":"uint24"}],"stateMutability":"view"},{"type":"function","name":"hookPoolIds","inputs":[{"name":"id","type":"bytes32","internalType":"PoolId"}],"outputs":[{"name":"hook","type":"address","internalType":"contract AngstromL2"}],"stateMutability":"view"},{"type":"function","name":"isVerifiedHook","inputs":[{"name":"hook","type":"address","internalType":"contract AngstromL2"}],"outputs":[{"name":"verified","type":"bool","internalType":"bool"}],"stateMutability":"view"},{"type":"function","name":"owner","inputs":[],"outputs":[{"name":"result","type":"address","internalType":"address"}],"stateMutability":"view"},{"type":"function","name":"ownershipHandoverExpiresAt","inputs":[{"name":"pendingOwner","type":"address","internalType":"address"}],"outputs":[{"name":"result","type":"uint256","internalType":"uint256"}],"stateMutability":"view"},{"type":"function","name":"recordPoolCreationAndGetStartingProtocolFee","inputs":[{"name":"key","type":"tuple","internalType":"struct PoolKey","components":[{"name":"currency0","type":"address","internalType":"Currency"},{"name":"currency1","type":"address","internalType":"Currency"},{"name":"fee","type":"uint24","internalType":"uint24"},{"name":"tickSpacing","type":"int24","internalType":"int24"},{"name":"hooks","type":"address","internalType":"contract IHooks"}]},{"name":"creatorSwapFeeE6","type":"uint24","internalType":"uint24"},{"name":"creatorTaxFeeE6","type":"uint24","internalType":"uint24"}],"outputs":[{"name":"protocolSwapFeeE6","type":"uint24","internalType":"uint24"},{"name":"protocolTaxFeeE6","type":"uint24","internalType":"uint24"}],"stateMutability":"nonpayable"},{"type":"function","name":"renounceOwnership","inputs":[],"outputs":[],"stateMutability":"payable"},{"type":"function","name":"requestOwnershipHandover","inputs":[],"outputs":[],"stateMutability":"payable"},{"type":"function","name":"setDefaultJITTaxEnabled","inputs":[{"name":"newDefaultJITTaxEnabled","type":"bool","internalType":"bool"}],"outputs":[],"stateMutability":"nonpayable"},{"type":"function","name":"setDefaultPriorityFeeTaxFloor","inputs":[{"name":"newDefaultPriorityFeeTaxFloor","type":"uint256","internalType":"uint256"}],"outputs":[],"stateMutability":"nonpayable"},{"type":"function","name":"setDefaultProtocolSwapFeeMultiple","inputs":[{"name":"newDefaultProtocolSwapFeeE6","type":"uint24","internalType":"uint24"}],"outputs":[],"stateMutability":"nonpayable"},{"type":"function","name":"setDefaultProtocolTaxFee","inputs":[{"name":"newDefaultProtocolTaxFeeE6","type":"uint24","internalType":"uint24"}],"outputs":[],"stateMutability":"nonpayable"},{"type":"function","name":"setDefaultSwapMEVTaxFactor","inputs":[{"name":"newDefaultSwapMEVTaxFactor","type":"uint256","internalType":"uint256"}],"outputs":[],"stateMutability":"nonpayable"},{"type":"function","name":"setEmergencyWithdrawOnly","inputs":[],"outputs":[],"stateMutability":"nonpayable"},{"type":"function","name":"setJITTaxEnabled","inputs":[{"name":"hook","type":"address","internalType":"contract AngstromL2"},{"name":"newJITTaxEnabled","type":"bool","internalType":"bool"}],"outputs":[],"stateMutability":"nonpayable"},{"type":"function","name":"setPriorityFeeTaxFloor","inputs":[{"name":"hook","type":"address","internalType":"contract AngstromL2"},{"name":"newPriorityFeeTaxFloor","type":"uint256","internalType":"uint256"}],"outputs":[],"stateMutability":"nonpayable"},{"type":"function","name":"setProtocolSwapFee","inputs":[{"name":"hook","type":"address","internalType":"contract AngstromL2"},{"name":"key","type":"tuple","internalType":"struct PoolKey","components":[{"name":"currency0","type":"address","internalType":"Currency"},{"name":"currency1","type":"address","internalType":"Currency"},{"name":"fee","type":"uint24","internalType":"uint24"},{"name":"tickSpacing","type":"int24","internalType":"int24"},{"name":"hooks","type":"address","internalType":"contract IHooks"}]},{"name":"newFeeE6","type":"uint256","internalType":"uint256"}],"outputs":[],"stateMutability":"nonpayable"},{"type":"function","name":"setProtocolTaxFee","inputs":[{"name":"hook","type":"address","internalType":"contract AngstromL2"},{"name":"key","type":"tuple","internalType":"struct PoolKey","components":[{"name":"currency0","type":"address","internalType":"Currency"},{"name":"currency1","type":"address","internalType":"Currency"},{"name":"fee","type":"uint24","internalType":"uint24"},{"name":"tickSpacing","type":"int24","internalType":"int24"},{"name":"hooks","type":"address","internalType":"contract IHooks"}]},{"name":"newFeeE6","type":"uint256","internalType":"uint256"}],"outputs":[],"stateMutability":"nonpayable"},{"type":"function","name":"setSwapMEVTaxFactor","inputs":[{"name":"hook","type":"address","internalType":"contract AngstromL2"},{"name":"newSwapMEVTaxFactor","type":"uint256","internalType":"uint256"}],"outputs":[],"stateMutability":"nonpayable"},{"type":"function","name":"transferOwnership","inputs":[{"name":"newOwner","type":"address","internalType":"address"}],"outputs":[],"stateMutability":"payable"},{"type":"function","name":"withdrawOnly","inputs":[],"outputs":[{"name":"","type":"bool","internalType":"bool"}],"stateMutability":"view"},{"type":"function","name":"withdrawRevenue","inputs":[{"name":"currency","type":"address","internalType":"Currency"},{"name":"to","type":"address","internalType":"address"},{"name":"amount","type":"uint256","internalType":"uint256"}],"outputs":[],"stateMutability":"nonpayable"},{"type":"event","name":"DefaultJITTaxStatusUpdated","inputs":[{"name":"newDefaultJITTaxEnabled","type":"bool","indexed":false,"internalType":"bool"}],"anonymous":false},{"type":"event","name":"DefaultPriorityFeeTaxFloorUpdated","inputs":[{"name":"newDefaultPriorityFeeTaxFloor","type":"uint256","indexed":false,"internalType":"uint256"}],"anonymous":false},{"type":"event","name":"DefaultProtocolSwapFeeE6Updated","inputs":[{"name":"newDefaultProtocolSwapFeeE6","type":"uint24","indexed":false,"internalType":"uint24"}],"anonymous":false},{"type":"event","name":"DefaultProtocolTaxFeeE6Updated","inputs":[{"name":"newDefaultProtocolTaxFeeE6","type":"uint24","indexed":false,"internalType":"uint24"}],"anonymous":false},{"type":"event","name":"DefaultSwapMEVTaxFactorUpdated","inputs":[{"name":"newDefaultSwapMEVTaxFactor","type":"uint256","indexed":false,"internalType":"uint256"}],"anonymous":false},{"type":"event","name":"JITTaxStatusUpdated","inputs":[{"name":"hook","type":"address","indexed":true,"internalType":"address"},{"name":"newJITTaxEnabled","type":"bool","indexed":false,"internalType":"bool"}],"anonymous":false},{"type":"event","name":"OwnershipHandoverCanceled","inputs":[{"name":"pendingOwner","type":"address","indexed":true,"internalType":"address"}],"anonymous":false},{"type":"event","name":"OwnershipHandoverRequested","inputs":[{"name":"pendingOwner","type":"address","indexed":true,"internalType":"address"}],"anonymous":false},{"type":"event","name":"OwnershipTransferred","inputs":[{"name":"oldOwner","type":"address","indexed":true,"internalType":"address"},{"name":"newOwner","type":"address","indexed":true,"internalType":"address"}],"anonymous":false},{"type":"event","name":"PoolCreated","inputs":[{"name":"hook","type":"address","indexed":false,"internalType":"address"},{"name":"key","type":"tuple","indexed":false,"internalType":"struct PoolKey","components":[{"name":"currency0","type":"address","internalType":"Currency"},{"name":"currency1","type":"address","internalType":"Currency"},{"name":"fee","type":"uint24","internalType":"uint24"},{"name":"tickSpacing","type":"int24","internalType":"int24"},{"name":"hooks","type":"address","internalType":"contract IHooks"}]},{"name":"creatorSwapFeeE6","type":"uint24","indexed":false,"internalType":"uint24"},{"name":"creatorTaxFeeE6","type":"uint24","indexed":false,"internalType":"uint24"},{"name":"protocolSwapFeeE6","type":"uint24","indexed":false,"internalType":"uint24"},{"name":"protocolTaxFeeE6","type":"uint24","indexed":false,"internalType":"uint24"}],"anonymous":false},{"type":"event","name":"PriorityFeeTaxFloorUpdated","inputs":[{"name":"hook","type":"address","indexed":true,"internalType":"address"},{"name":"newPriorityFeeTaxFloor","type":"uint256","indexed":false,"internalType":"uint256"}],"anonymous":false},{"type":"event","name":"ProtocolRevenueWithdrawn","inputs":[{"name":"currency","type":"address","indexed":true,"internalType":"Currency"},{"name":"to","type":"address","indexed":true,"internalType":"address"},{"name":"amount","type":"uint256","indexed":false,"internalType":"uint256"}],"anonymous":false},{"type":"event","name":"ProtocolSwapFeeUpdated","inputs":[{"name":"hook","type":"address","indexed":true,"internalType":"address"},{"name":"key","type":"tuple","indexed":false,"internalType":"struct PoolKey","components":[{"name":"currency0","type":"address","internalType":"Currency"},{"name":"currency1","type":"address","internalType":"Currency"},{"name":"fee","type":"uint24","internalType":"uint24"},{"name":"tickSpacing","type":"int24","internalType":"int24"},{"name":"hooks","type":"address","internalType":"contract IHooks"}]},{"name":"newFeeE6","type":"uint256","indexed":false,"internalType":"uint256"}],"anonymous":false},{"type":"event","name":"ProtocolTaxFeeUpdated","inputs":[{"name":"hook","type":"address","indexed":true,"internalType":"address"},{"name":"key","type":"tuple","indexed":false,"internalType":"struct PoolKey","components":[{"name":"currency0","type":"address","internalType":"Currency"},{"name":"currency1","type":"address","internalType":"Currency"},{"name":"fee","type":"uint24","internalType":"uint24"},{"name":"tickSpacing","type":"int24","internalType":"int24"},{"name":"hooks","type":"address","internalType":"contract IHooks"}]},{"name":"newFeeE6","type":"uint256","indexed":false,"internalType":"uint256"}],"anonymous":false},{"type":"event","name":"SwapMEVTaxFactorUpdated","inputs":[{"name":"hook","type":"address","indexed":true,"internalType":"address"},{"name":"newSwapMEVTaxFactor","type":"uint256","indexed":false,"internalType":"uint256"}],"anonymous":false},{"type":"event","name":"WithdrawOnly","inputs":[],"anonymous":false},{"type":"error","name":"AlreadyInitialized","inputs":[]},{"type":"error","name":"FlashBlockNumberProviderAlreadySet","inputs":[]},{"type":"error","name":"NewOwnerIsZeroAddress","inputs":[]},{"type":"error","name":"NoHandoverRequest","inputs":[]},{"type":"error","name":"NotVerifiedHook","inputs":[]},{"type":"error","name":"PriorityFeeTaxFloorExceedsMax","inputs":[]},{"type":"error","name":"ProtocolFeeExceedsMaximum","inputs":[]},{"type":"error","name":"SwapMEVTaxFactorExceedsMax","inputs":[]},{"type":"error","name":"Unauthorized","inputs":[]},{"type":"error","name":"WithdrawOnlyMode","inputs":[]}],"bytecode":{"object":"0x60e060405234801561000f575f80fd5b5060405161841d38038061841d83398101604081905261002e91610130565b61003783610092565b6001600160a01b03808316608052811660a0526040516100759061005d6020820161010f565b601f1982820381018352601f909101166040526100ce565b6001600160a01b031660c05250505f805460ff191690555061017a565b6001600160a01b0316638b78c6d819819055805f7f8be0079c531659141344cd1fd0a4f28419497f9722a3daafe3b4186f6b6457e08180a35b50565b5f81518060401b6bfe61000180600a3d393df3000161fffe8211840152600b8101601584015ff09150816101095763301164255f526004601cfd5b90915290565b615e8e8061258f83390190565b6001600160a01b03811681146100cb575f80fd5b5f805f60608486031215610142575f80fd5b835161014d8161011c565b602085015190935061015e8161011c565b604085015190925061016f8161011c565b809150509250925092565b60805160a05160c0516123d66101b95f395f8181610395015261156e01525f818161058c015261141d01525f81816103fb01526115ad01526123d65ff3fe608060405260043610610260575f3560e01c8063603be0101161014b578063a31d946a116100c6578063e068c8b51161007c578063f04e283e11610062578063f04e283e14610720578063f2fde38b14610733578063fee81cf414610746575f80fd5b8063e068c8b5146106ec578063ebb132ff14610701575f80fd5b8063c065d0dc116100ac578063c065d0dc14610680578063cf42b55d146106ae578063d2de4386146106cd575f80fd5b8063a31d946a14610642578063b9b7469b14610661575f80fd5b80637ba0a0e81161011b5780638b14f43b116101015780638b14f43b146105cd5780638da5cb5b146105f0578063903cee2714610623575f80fd5b80637ba0a0e81461057b57806383588861146105ae575f80fd5b8063603be01014610516578063603dbf2e14610535578063715018a61461055457806375ecc9701461055c575f80fd5b80633160f249116101db57806357da4464116101ab5780635b97e691116101915780635b97e691146104b95780635f3b4166146104d8578063601f53b1146104f7575f80fd5b806357da4464146104665780635ad212b51461047e575f80fd5b80633160f249146103cb57806334556265146103ea5780634217272d1461041d57806354d1f13d1461045e575f80fd5b806310bce7b7116102305780632569296211610216578063256929621461037c5780632b03ad4e146103845780632f7f5fd5146103b7575f80fd5b806310bce7b7146103275780631796d1b714610346575f80fd5b806303cccd071461026b578063042d51731461028c5780630641a685146102c45780630f22338a146102e3575f80fd5b3661026757005b5f80fd5b348015610276575f80fd5b5061028a610285366004611d42565b610777565b005b348015610297575f80fd5b505f546102af90670100000000000000900460ff1681565b60405190151581526020015b60405180910390f35b3480156102cf575f80fd5b5061028a6102de366004611d7f565b610892565b3480156102ee575f80fd5b506103026102fd366004611d7f565b610915565b60405173ffffffffffffffffffffffffffffffffffffffff90911681526020016102bb565b348015610332575f80fd5b5061028a610341366004611d96565b61094a565b348015610351575f80fd5b505f5461036890640100000000900462ffffff1681565b60405162ffffff90911681526020016102bb565b61028a610a5d565b34801561038f575f80fd5b506103027f000000000000000000000000000000000000000000000000000000000000000081565b3480156103c2575f80fd5b5061028a610aaa565b3480156103d6575f80fd5b506103026103e5366004611de2565b610b05565b3480156103f5575f80fd5b506103027f000000000000000000000000000000000000000000000000000000000000000081565b348015610428575f80fd5b50610302610437366004611d7f565b60056020525f908152604090205473ffffffffffffffffffffffffffffffffffffffff1681565b61028a610ba2565b348015610471575f80fd5b505f546102af9060ff1681565b348015610489575f80fd5b5061049d610498366004611e53565b610bdb565b6040805162ffffff9384168152929091166020830152016102bb565b3480156104c4575f80fd5b5061028a6104d3366004611ea3565b610d4d565b3480156104e3575f80fd5b5061028a6104f2366004611ed6565b610e1b565b348015610502575f80fd5b5061028a610511366004611eef565b610ecd565b348015610521575f80fd5b5061028a610530366004611d96565b610f62565b348015610540575f80fd5b5061036861054f366004611f2d565b61106c565b61028a611113565b348015610567575f80fd5b5061028a610576366004611f4d565b611126565b348015610586575f80fd5b506103027f000000000000000000000000000000000000000000000000000000000000000081565b3480156105b9575f80fd5b5061028a6105c8366004611d42565b611199565b3480156105d8575f80fd5b506105e260025481565b6040519081526020016102bb565b3480156105fb575f80fd5b507fffffffffffffffffffffffffffffffffffffffffffffffffffffffff7487392754610302565b34801561062e575f80fd5b5061028a61063d366004611d7f565b6112a6565b34801561064d575f80fd5b5061028a61065c366004611ed6565b61131f565b34801561066c575f80fd5b5061030261067b36600461202b565b6113d4565b34801561068b575f80fd5b506102af61069a366004612093565b60036020525f908152604090205460ff1681565b3480156106b9575f80fd5b506103026106c8366004611d96565b61152b565b3480156106d8575f80fd5b506105e26106e7366004611f2d565b611941565b3480156106f7575f80fd5b506105e260015481565b34801561070c575f80fd5b505f5461036890610100900462ffffff1681565b61028a61072e366004612093565b6119ad565b61028a610741366004612093565b6119ea565b348015610751575f80fd5b506105e2610760366004612093565b63389a75e1600c9081525f91909152602090205490565b61077f611a10565b620b71b08111156107bc576040517f2989d6b200000000000000000000000000000000000000000000000000000000815260040160405180910390fd5b6040517f7668bc6e00000000000000000000000000000000000000000000000000000000815273ffffffffffffffffffffffffffffffffffffffff841690637668bc6e90610810908590859060040161215a565b5f604051808303815f87803b158015610827575f80fd5b505af1158015610839573d5f803e3d5ffd5b505050508273ffffffffffffffffffffffffffffffffffffffff167f4b2ac796fb4ea85c77a0541e8edda3d66b3ae6d76892cecf471b168f1e1e8e8b838360405161088592919061215a565b60405180910390a2505050565b61089a611a10565b64174876e8008111156108d9576040517f9e29e83700000000000000000000000000000000000000000000000000000000815260040160405180910390fd5b60028190556040518181527fd9cfe37feb2551caa264eb739e230869accdd1757667f875090fd75777099d94906020015b60405180910390a150565b60048181548110610924575f80fd5b5f9182526020909120015473ffffffffffffffffffffffffffffffffffffffff16905081565b610952611a10565b61270f81111561098e576040517f3d4ed5f500000000000000000000000000000000000000000000000000000000815260040160405180910390fd5b6040517fac9334e00000000000000000000000000000000000000000000000000000000081526004810182905273ffffffffffffffffffffffffffffffffffffffff83169063ac9334e0906024015f604051808303815f87803b1580156109f3575f80fd5b505af1158015610a05573d5f803e3d5ffd5b505050508173ffffffffffffffffffffffffffffffffffffffff167f3fbe20cdaabf7ba1989d02b8a6ae9c7afa9dd871b81cdc8b6d5609fe8bd181db82604051610a5191815260200190565b60405180910390a25050565b5f6202a30067ffffffffffffffff164201905063389a75e1600c52335f52806020600c2055337fdbf36a107da19e49527a7176a1babf963b4b0ff8cde35ee35d6cd8f1f9ac7e1d5f80a250565b610ab2611a10565b5f80547fffffffffffffffffffffffffffffffffffffffffffffffffffffffffffffff001660011781556040517fe2a4a1909832721f607d4aba2c111d98fadc095cb788777117146a100a9e07919190a1565b5f610b10878761152b565b6040517fcbceaa2c00000000000000000000000000000000000000000000000000000000815290915073ffffffffffffffffffffffffffffffffffffffff82169063cbceaa2c90610b6b908890889088908890600401612175565b5f604051808303815f87803b158015610b82575f80fd5b505af1158015610b94573d5f803e3d5ffd5b505050509695505050505050565b63389a75e1600c52335f525f6020600c2055337ffa7b8eab7da67f412cc9575ed43464468f9bfbae89d1675917346ca6d8fe3c925f80a2565b5f8054819060ff1615610c1a576040517fad1c9c2800000000000000000000000000000000000000000000000000000000815260040160405180910390fd5b335f9081526003602052604090205460ff16610c62576040517f82dbbfc700000000000000000000000000000000000000000000000000000000815260040160405180910390fd5b610c8562ffffff8516610c7b6060880160408901611ed6565b62ffffff1661106c565b5f5490925062ffffff6401000000009091048116915061c3509083161115610cad5761c35091505b5f610cc7610cc0368890038801886121bb565b60a0902090565b5f818152600560205260409081902080547fffffffffffffffffffffffff0000000000000000000000000000000000000000163390811790915590519192507fde9edd0c5a7405829fcc75a5a8748eba90b3be8249cdb2e65cdadfab16663b8791610d3c9190899089908990899089906121d5565b60405180910390a150935093915050565b610d55611a10565b6040517ffa543c18000000000000000000000000000000000000000000000000000000008152811515600482015273ffffffffffffffffffffffffffffffffffffffff83169063fa543c18906024015f604051808303815f87803b158015610dbb575f80fd5b505af1158015610dcd573d5f803e3d5ffd5b505050508173ffffffffffffffffffffffffffffffffffffffff167fadb78a97618ca6b317c48a7ce9779d032274e0dc84361bd89793dacbfa113b0d82604051610a51911515815260200190565b610e23611a10565b620f423f62ffffff82161115610e65576040517f2989d6b200000000000000000000000000000000000000000000000000000000815260040160405180910390fd5b5f80547fffffffffffffffffffffffffffffffffffffffffffffffffffffffff000000ff1661010062ffffff8416908102919091179091556040519081527f05912f33d43dfd69adb92641808f8ab0f0c71ae2b8a660681ecfe5d1b5ab2ead9060200161090a565b610ed5611a10565b8173ffffffffffffffffffffffffffffffffffffffff168373ffffffffffffffffffffffffffffffffffffffff167f0da3fedd68d8fe429c5ec0bdf631033ce832bc7d229c6498f8f12993e4db760d83604051610f3491815260200190565b60405180910390a3610f5d73ffffffffffffffffffffffffffffffffffffffff84168383611a45565b505050565b610f6a611a10565b64174876e800811115610fa9576040517f9e29e83700000000000000000000000000000000000000000000000000000000815260040160405180910390fd5b6040517f691d5ed40000000000000000000000000000000000000000000000000000000081526004810182905273ffffffffffffffffffffffffffffffffffffffff83169063691d5ed4906024015f604051808303815f87803b15801561100e575f80fd5b505af1158015611020573d5f803e3d5ffd5b505050508173ffffffffffffffffffffffffffffffffffffffff167fff06cd3128e25866a88744bae5a7cb597790ce45a9e2de9ce657758e25c1e2a182604051610a5191815260200190565b5f61110a61107d83620f4240612266565b5f546110939190610100900462ffffff16612279565b6110a0620f424080612279565b6110aa9190612266565b6110b785620f4240612266565b6110c485620f4240612266565b6110ce9190612279565b6110db620f424080612279565b6110e59190612266565b5f546110fb9190610100900462ffffff16612279565b6111059190612290565b611b68565b90505b92915050565b61111b611a10565b6111245f611b80565b565b61112e611a10565b5f8054821515670100000000000000027fffffffffffffffffffffffffffffffffffffffffffffffff00ffffffffffffff9091161790556040517fc1eafbbbfa6412817f198ad9582cbb188e919e729283d7d11007a73f40437f719061090a90831515815260200190565b6111a1611a10565b61c3508111156111dd576040517f2989d6b200000000000000000000000000000000000000000000000000000000815260040160405180910390fd5b6040517f5227336600000000000000000000000000000000000000000000000000000000815273ffffffffffffffffffffffffffffffffffffffff841690635227336690611231908590859060040161215a565b5f604051808303815f87803b158015611248575f80fd5b505af115801561125a573d5f803e3d5ffd5b505050508273ffffffffffffffffffffffffffffffffffffffff167f990fe1d43253208121f4172ff444078c5bfbf71baeae9aac9024eddefba9b326838360405161088592919061215a565b6112ae611a10565b61270f8111156112ea576040517f3d4ed5f500000000000000000000000000000000000000000000000000000000815260040160405180910390fd5b60018190556040518181527f96650c624b559fc3d67f1d51286fd15dbfcf7137c7e7db6241e2f937af3311909060200161090a565b611327611a10565b620b71b062ffffff82161115611369576040517f2989d6b200000000000000000000000000000000000000000000000000000000815260040160405180910390fd5b5f80547fffffffffffffffffffffffffffffffffffffffffffffffffff000000ffffffff1664010000000062ffffff8416908102919091179091556040519081527f37260b1b086886391ad9257e8348235da3fb32eb1212d9e35e9af01ce9dfc84c9060200161090a565b6040517f2e2e59b900000000000000000000000000000000000000000000000000000000815273ffffffffffffffffffffffffffffffffffffffff86811660048301525f9182917f00000000000000000000000000000000000000000000000000000000000000001690632e2e59b990602401602060405180830381865afa158015611462573d5f803e3d5ffd5b505050506040513d601f19601f8201168201806040525081019061148691906122c8565b9050611492878261152b565b73ffffffffffffffffffffffffffffffffffffffff8116608088018190526040517fcbceaa2c0000000000000000000000000000000000000000000000000000000081529193509063cbceaa2c906114f49089908990899089906004016122df565b5f604051808303815f87803b15801561150b575f80fd5b505af115801561151d573d5f803e3d5ffd5b505050505095945050505050565b5f805460ff1615611568576040517fad1c9c2800000000000000000000000000000000000000000000000000000000815260040160405180910390fd5b5f6115927f0000000000000000000000000000000000000000000000000000000000000000611be5565b6040805173ffffffffffffffffffffffffffffffffffffffff7f000000000000000000000000000000000000000000000000000000000000000081166020830152871681830152815180820383018152606082019092526115f79291906080016123b5565b6040516020818303038152906040529050828151602083015ff5915081611624573d5f6040513e3d604051fd5b73ffffffffffffffffffffffffffffffffffffffff82165f8181526003602052604080822080547fffffffffffffffffffffffffffffffffffffffffffffffffffffffffffffff00166001908117909155600480548083018255938190527f8a35acfbc15ff81a39ae7d344fd709f28e8600b4aa8c65c6b64bfe7fe36bd19b90930180547fffffffffffffffffffffffff000000000000000000000000000000000000000016851790555490517fac9334e00000000000000000000000000000000000000000000000000000000081529182015263ac9334e0906024015f604051808303815f87803b158015611718575f80fd5b505af115801561172a573d5f803e3d5ffd5b505050508173ffffffffffffffffffffffffffffffffffffffff167f3fbe20cdaabf7ba1989d02b8a6ae9c7afa9dd871b81cdc8b6d5609fe8bd181db60015460405161177891815260200190565b60405180910390a25f546040517ffa543c1800000000000000000000000000000000000000000000000000000000815267010000000000000090910460ff161515600482015273ffffffffffffffffffffffffffffffffffffffff83169063fa543c18906024015f604051808303815f87803b1580156117f6575f80fd5b505af1158015611808573d5f803e3d5ffd5b50505f5460405167010000000000000090910460ff161515815273ffffffffffffffffffffffffffffffffffffffff851692507fadb78a97618ca6b317c48a7ce9779d032274e0dc84361bd89793dacbfa113b0d915060200160405180910390a26002546040517f691d5ed4000000000000000000000000000000000000000000000000000000008152600481019190915273ffffffffffffffffffffffffffffffffffffffff83169063691d5ed4906024015f604051808303815f87803b1580156118d2575f80fd5b505af11580156118e4573d5f803e3d5ffd5b505050508173ffffffffffffffffffffffffffffffffffffffff167fff06cd3128e25866a88744bae5a7cb597790ce45a9e2de9ce657758e25c1e2a160025460405161193291815260200190565b60405180910390a25092915050565b5f8061194d848461106c565b62ffffff169050620f4240816119638683612266565b61196d9190612266565b61197a85620f4240612266565b6119849190612279565b611991620f424080612279565b61199b9190612266565b6119a59190612290565b949350505050565b6119b5611a10565b63389a75e1600c52805f526020600c2080544211156119db57636f5e88185f526004601cfd5b5f90556119e781611b80565b50565b6119f2611a10565b8060601b611a0757637448fbae5f526004601cfd5b6119e781611b80565b7fffffffffffffffffffffffffffffffffffffffffffffffffffffffff74873927543314611124576382b429005f526004601cfd5b5f73ffffffffffffffffffffffffffffffffffffffff8416611aa0575f805f8085875af1905080611a9b57611a9b835f7ff4b3b1bc00000000000000000000000000000000000000000000000000000000611c30565b611b62565b6040517fa9059cbb00000000000000000000000000000000000000000000000000000000815273ffffffffffffffffffffffffffffffffffffffff8416600482015282602482015260205f6044835f895af13d15601f3d1160015f511416171691505f81525f60208201525f60408201525080611b6257611b62847fa9059cbb000000000000000000000000000000000000000000000000000000007ff27f64e400000000000000000000000000000000000000000000000000000000611c30565b50505050565b5f63010000008210611b7c57611b7c611cfe565b5090565b7fffffffffffffffffffffffffffffffffffffffffffffffffffffffff74873927805473ffffffffffffffffffffffffffffffffffffffff9092169182907f8be0079c531659141344cd1fd0a4f28419497f9722a3daafe3b4186f6b6457e05f80a355565b60405164ffffffffff7fffffffffffffffffffffffffffffffffffffffffffffffffffffffffffffffff833b0116602181015f601f8401853c80825260408201810160405250919050565b6040517f90bfb8650000000000000000000000000000000000000000000000000000000080825273ffffffffffffffffffffffffffffffffffffffff851660048301527fffffffff0000000000000000000000000000000000000000000000000000000084166024830152608060448301526020601f3d018190040260a0810160648401523d608484015290913d5f60a483013e60048260a4018201527fffffffff0000000000000000000000000000000000000000000000000000000084168260c4018201528160e40181fd5b6335278d125f526004601cfd5b73ffffffffffffffffffffffffffffffffffffffff811681146119e7575f80fd5b5f60a08284031215611d3c575f80fd5b50919050565b5f805f60e08486031215611d54575f80fd5b8335611d5f81611d0b565b9250611d6e8560208601611d2c565b9295929450505060c0919091013590565b5f60208284031215611d8f575f80fd5b5035919050565b5f8060408385031215611da7575f80fd5b8235611db281611d0b565b946020939093013593505050565b8035611dcb81611d0b565b919050565b803562ffffff81168114611dcb575f80fd5b5f805f805f806101408789031215611df8575f80fd5b8635611e0381611d0b565b955060208701359450611e198860408901611d2c565b935060e0870135611e2981611d0b565b9250611e386101008801611dd0565b9150611e476101208801611dd0565b90509295509295509295565b5f805f60e08486031215611e65575f80fd5b611e6f8585611d2c565b9250611e7d60a08501611dd0565b9150611e8b60c08501611dd0565b90509250925092565b80358015158114611dcb575f80fd5b5f8060408385031215611eb4575f80fd5b8235611ebf81611d0b565b9150611ecd60208401611e94565b90509250929050565b5f60208284031215611ee6575f80fd5b61110a82611dd0565b5f805f60608486031215611f01575f80fd5b8335611f0c81611d0b565b92506020840135611f1c81611d0b565b929592945050506040919091013590565b5f8060408385031215611f3e575f80fd5b50508035926020909101359150565b5f60208284031215611f5d575f80fd5b61110a82611e94565b8035600281900b8114611dcb575f80fd5b5f60a08284031215611f87575f80fd5b60405160a0810181811067ffffffffffffffff82111715611fcf577f4e487b71000000000000000000000000000000000000000000000000000000005f52604160045260245ffd5b604052905080611fde83611dc0565b8152611fec60208401611dc0565b6020820152611ffd60408401611dd0565b604082015261200e60608401611f66565b606082015261201f60808401611dc0565b60808201525092915050565b5f805f805f6101208688031215612040575f80fd5b853561204b81611d0b565b945061205a8760208801611f77565b935060c086013561206a81611d0b565b925061207860e08701611dd0565b91506120876101008701611dd0565b90509295509295909350565b5f602082840312156120a3575f80fd5b81356120ae81611d0b565b9392505050565b80356120c081611d0b565b73ffffffffffffffffffffffffffffffffffffffff16825260208101356120e681611d0b565b73ffffffffffffffffffffffffffffffffffffffff16602083015262ffffff61211160408301611dd0565b16604083015261212360608201611f66565b60020b6060830152608081013561213981611d0b565b73ffffffffffffffffffffffffffffffffffffffff81166080840152505050565b60c0810161216882856120b5565b8260a08301529392505050565b610100810161218482876120b5565b73ffffffffffffffffffffffffffffffffffffffff9490941660a082015262ffffff92831660c0820152911660e090910152919050565b5f60a082840312156121cb575f80fd5b61110a8383611f77565b73ffffffffffffffffffffffffffffffffffffffff87168152610140810161220060208301886120b5565b62ffffff861660c083015262ffffff851660e083015262ffffff841661010083015262ffffff8316610120830152979650505050505050565b7f4e487b71000000000000000000000000000000000000000000000000000000005f52601160045260245ffd5b8181038181111561110d5761110d612239565b808202811582820484141761110d5761110d612239565b5f826122c3577f4e487b71000000000000000000000000000000000000000000000000000000005f52601260045260245ffd5b500490565b5f602082840312156122d8575f80fd5b5051919050565b5f6101008201905073ffffffffffffffffffffffffffffffffffffffff865116825273ffffffffffffffffffffffffffffffffffffffff602087015116602083015262ffffff6040870151166040830152606086015160020b606083015273ffffffffffffffffffffffffffffffffffffffff608087015116608083015261237f60a083018673ffffffffffffffffffffffffffffffffffffffff169052565b62ffffff841660c083015262ffffff831660e083015295945050505050565b5f81518060208401855e5f93019283525090919050565b5f6119a56123c3838661239e565b8461239e56fea164736f6c634300081a000a60c06040526002805460ff19169055348015610019575f80fd5b50604051615e8e380380615e8e8339810160408190526100389161028d565b6001600160a01b03821660805261004e816100d8565b3360a0526100d1306100cc604080516101c0810182525f60208201819052918101829052608081018290526101008101829052610120810191909152600180825260608201819052610180820181905260a082018190526101a0820181905260c0820181905260e08201819052610140820181905261016082015290565b610114565b50506102c5565b6001600160a01b0316638b78c6d819819055805f7f8be0079c531659141344cd1fd0a4f28419497f9722a3daafe3b4186f6b6457e08180a35b50565b80511515612000831615151415806101385750602081015115156110008316151514155b8061014f5750604081015115156108008316151514155b806101665750606081015115156104008316151514155b8061017d5750608081015115156102008316151514155b80610194575060a081015115156101008316151514155b806101aa575060c0810151151560808316151514155b806101c0575060e0810151151560408316151514155b806101d75750610100810151151560208316151514155b806101ee5750610120810151151560108316151514155b806102055750610140810151151560088316151514155b8061021c5750610160810151151560048316151514155b806102335750610180810151151560028316151514155b8061024a57506101a0810151151560018316151514155b1561026057610260630732d7b560e51b83610264565b5050565b815f526001600160a01b03811660045260245ffd5b6001600160a01b0381168114610111575f80fd5b5f806040838503121561029e575f80fd5b82516102a981610279565b60208401519092506102ba81610279565b809150509250929050565b60805160a051615ac86103c65f395f81816101ee0152818161078301528181610dfb015281816112940152818161161b015281816119d501528181611cc8015281816125d40152818161299e01528181612b8a0152612d6c01525f8181610a6b01528181610aa901528181610d4001528181610e2a01528181610ec301528181611061015281816111ec015281816112c30152818161144b01528181611481015281816118a701528181611e2d01528181612547015281816126030152818161274e015281816128c10152818161296e01528181612af701528181612bb901528181612cdf01528181612d9b01528181612e980152612f430152615ac85ff3fe6080604052600436106101c8575f3560e01c80639938b286116100f2578063cbceaa2c11610092578063f04e283e11610062578063f04e283e14610667578063f2fde38b1461067a578063fa543c181461068d578063fee81cf4146106ac575f80fd5b8063cbceaa2c1461057a578063cc06fb3314610599578063d8c320e7146105f8578063dc98354e14610617575f80fd5b8063addb13e0116100cd578063addb13e0146104d8578063af172083146104ec578063b47b2fb114610501578063c9f5145a1461055b575f80fd5b80639938b286146104245780639f063efc1461049a578063ac9334e0146104b9575f80fd5b8063575e24b41161016857806371e4eaa61161013857806371e4eaa61461039e5780637668bc6e146103b35780637b4c7aab146103d25780638da5cb5b146103f1575f80fd5b8063575e24b4146102be578063691d5ed4146103205780636c2bbe7e1461033f578063715018a614610396575f80fd5b806330cd3cf1116101a357806330cd3cf114610256578063439e83ac14610283578063522733661461029757806354d1f13d146102b6575f80fd5b806325692962146101d35780632dd31000146101dd5780632eb4ae1c1461022d575f80fd5b366101cf57005b5f80fd5b6101db6106dd565b005b3480156101e8575f80fd5b506102107f000000000000000000000000000000000000000000000000000000000000000081565b6040516001600160a01b0390911681526020015b60405180910390f35b348015610238575f80fd5b50600a546102469060ff1681565b6040519015158152602001610224565b348015610261575f80fd5b50610275610270366004615105565b61072a565b604051908152602001610224565b34801561028e575f80fd5b506101db610780565b3480156102a2575f80fd5b506101db6102b1366004615132565b61086c565b6101db610923565b3480156102c9575f80fd5b506102dd6102d83660046151bd565b61095c565b604080517fffffffff000000000000000000000000000000000000000000000000000000009094168452602084019290925262ffffff1690820152606001610224565b34801561032b575f80fd5b506101db61033a366004615105565b610c50565b34801561034a575f80fd5b5061035e610359366004615234565b610c9c565b604080517fffffffff000000000000000000000000000000000000000000000000000000009093168352602083019190915201610224565b6101db610f81565b3480156103a9575f80fd5b5061027560085481565b3480156103be575f80fd5b506101db6103cd366004615132565b610f94565b3480156103dd575f80fd5b506102756103ec3660046152f5565b611040565b3480156103fc575f80fd5b507fffffffffffffffffffffffffffffffffffffffffffffffffffffffff7487392754610210565b34801561042f575f80fd5b5061044361043e366004615356565b611095565b60405161022491905f60a08201905082511515825262ffffff602084015116602083015262ffffff604084015116604083015262ffffff606084015116606083015262ffffff608084015116608083015292915050565b3480156104a5575f80fd5b5061035e6104b4366004615234565b611141565b3480156104c4575f80fd5b506101db6104d3366004615105565b611358565b3480156104e3575f80fd5b506102756113a1565b3480156104f7575f80fd5b5061027560095481565b34801561050c575f80fd5b5061052061051b366004615370565b6113c2565b604080517fffffffff000000000000000000000000000000000000000000000000000000009093168352600f9190910b602083015201610224565b348015610566575f80fd5b50610275610575366004615105565b6115a5565b348015610585575f80fd5b506101db610594366004615401565b6115d4565b3480156105a4575f80fd5b506105b86105b3366004615105565b611b0b565b604080516001600160a01b039687168152948616602086015262ffffff9093169284019290925260020b606083015291909116608082015260a001610224565b348015610603575f80fd5b506101db61061236600461545a565b611b88565b348015610622575f80fd5b50610636610631366004615498565b611bf1565b6040517fffffffff000000000000000000000000000000000000000000000000000000009091168152602001610224565b6101db6106753660046154df565b611c24565b6101db6106883660046154df565b611c5e565b348015610698575f80fd5b506101db6106a7366004615507565b611c84565b3480156106b7575f80fd5b506102756106c63660046154df565b63389a75e1600c9081525f91909152602090205490565b5f6202a30067ffffffffffffffff164201905063389a75e1600c52335f52806020600c2055337fdbf36a107da19e49527a7176a1babf963b4b0ff8cde35ee35d6cd8f1f9ac7e1d5f80a250565b600a545f9060ff1661073d57505f919050565b600954821161074d57505f919050565b60095461075a908361554f565b6201d4c06107666113a1565b6107709190615562565b61077a9190615562565b92915050565b5f7f00000000000000000000000000000000000000000000000000000000000000006001600160a01b03166357da44646040518163ffffffff1660e01b8152600401602060405180830381865afa1580156107dd573d5f803e3d5ffd5b505050506040513d601f19601f820116820180604052508101906108019190615579565b60025490915060ff16151581151514610869576040517f800ebd2738ded2fc681025ada05467e0701713b32af8aeca4ba54ae6cc21dc0f905f90a1600280547fffffffffffffffffffffffffffffffffffffffffffffffffffffffffffffff00168215151790555b50565b610874611cbd565b5f60035f61088185611d1f565b815260208101919091526040015f20805490915060ff166108ce576040517f486aa30700000000000000000000000000000000000000000000000000000000815260040160405180910390fd5b6108d782611d33565b815462ffffff919091166a0100000000000000000000027fffffffffffffffffffffffffffffffffffffff000000ffffffffffffffffffff90911617815561091e81611d4b565b505050565b63389a75e1600c52335f525f6020600c2055337ffa7b8eab7da67f412cc9575ed43464468f9bfbae89d1675917346ca6d8fe3c925f80a2565b5f8080805c15610998576040517f3a79ca5500000000000000000000000000000000000000000000000000000000815260040160405180910390fd5b6109a35f6001611e1b565b6109ab611e22565b60025460ff16156109e8576040517fad1c9c2800000000000000000000000000000000000000000000000000000000815260040160405180910390fd5b5f6109f96109f4611e84565b611ea1565b90508415610a4f575f610a0e86880188615105565b90508082600f0b1115610a4d576040517f227cb77200000000000000000000000000000000000000000000000000000000815260040160405180910390fd5b505b5f610a5989611d1f565b9050610a99610a916001600160a01b037f00000000000000000000000000000000000000000000000000000000000000001683611ec1565b600690611e1b565b610ae9610acf6001600160a01b037f00000000000000000000000000000000000000000000000000000000000000001683611ee9565b6004906fffffffffffffffffffffffffffffffff16611e1b565b5f60208901803582139190610afe908b615507565b5f848152600360205260408120805492935091610b3b9062ffffff67010000000000000082048116916a0100000000000000000000900416615594565b62ffffff1690505f8415610b8a5760208d013560ff81901d908101188415610b6e57610b6b600f89900b8261554f565b90505b620f4240610b7c8483615562565b610b8691906155dc565b9150505b610b95600582611e1b565b5f848015610ba05750855b15610bc857610bc1610bb183611ea1565b610bbb908a615614565b60801b90565b9050610c0c565b84158015610bd4575085155b15610be357608088901b610bc1565b610c09610bef83611ea1565b60801b6fffffffffffffffffffffffffffffffff8a161790565b90505b7f575e24b4000000000000000000000000000000000000000000000000000000009a5098505f975050505050505050610c455f80611e1b565b955095509592505050565b610c58611cbd565b64174876e800811115610c97576040517f9e29e83700000000000000000000000000000000000000000000000000000000815260040160405180910390fd5b600955565b5f80805c15610cd7576040517f3a79ca5500000000000000000000000000000000000000000000000000000000815260040160405180910390fd5b610ce25f6001611e1b565b610cea611e22565b60025460ff1615610d1f57507f6c2bbe7e0000000000000000000000000000000000000000000000000000000090505f610f6b565b5f610d2989611d1f565b5f81815260016020526040812091925090610d67907f0000000000000000000000000000000000000000000000000000000000000000848e8d611f16565b90505f60408a013515610d8157610d7c61207a565b610d83565b5f5b90508015610e8257827f0dbfe120312172037c51cea150ca4997bb0b0043d1de19b71d66493fd748096282604051610dbd91815260200190565b60405180910390a26040517f0b0d9c090000000000000000000000000000000000000000000000000000000081525f60048201526001600160a01b037f000000000000000000000000000000000000000000000000000000000000000081166024830152604482018390527f00000000000000000000000000000000000000000000000000000000000000001690630b0d9c09906064015f604051808303815f87803b158015610e6b575f80fd5b505af1158015610e7d573d5f803e3d5ffd5b505050505b8115610f23576040517ff5298aca0000000000000000000000000000000000000000000000000000000081523060048201525f6024820152604481018390527f00000000000000000000000000000000000000000000000000000000000000006001600160a01b03169063f5298aca906064015f604051808303815f87803b158015610f0c575f80fd5b505af1158015610f1e573d5f803e3d5ffd5b505050505b7f6c2bbe7e00000000000000000000000000000000000000000000000000000000610f63610f5084611ea1565b610f5984611ea1565b610bbb9190615662565b945094505050505b610f755f80611e1b565b97509795505050505050565b610f89612091565b610f925f6120c6565b565b610f9c611cbd565b5f60035f610fa985611d1f565b815260208101919091526040015f20805490915060ff16610ff6576040517f486aa30700000000000000000000000000000000000000000000000000000000815260040160405180910390fd5b610fff82611d33565b815462ffffff91909116640100000000027fffffffffffffffffffffffffffffffffffffffffffffffffff000000ffffffff90911617815561091e81611d4b565b5f8061104b87611d1f565b5f81815260016020526040902090915061108a907f0000000000000000000000000000000000000000000000000000000000000000838989898961211e565b979650505050505050565b6040805160a0810182525f8082526020820181905291810182905260608101829052608081019190915260035f6110cb84611d1f565b815260208082019290925260409081015f20815160a081018352905460ff81161515825262ffffff610100820481169483019490945264010000000081048416928201929092526701000000000000008204831660608201526a0100000000000000000000909104909116608082015292915050565b5f80805c1561117c576040517f3a79ca5500000000000000000000000000000000000000000000000000000000815260040160405180910390fd5b6111875f6001611e1b565b61118f611e22565b60025460ff16156111cc576040517fad1c9c2800000000000000000000000000000000000000000000000000000000815260040160405180910390fd5b5f6111d689611d1f565b5f818152600160205260409020909150611213907f0000000000000000000000000000000000000000000000000000000000000000838d8c6121ba565b5f61121c61207a565b9050801561131b57817f0dbfe120312172037c51cea150ca4997bb0b0043d1de19b71d66493fd74809628260405161125691815260200190565b60405180910390a26040517f0b0d9c090000000000000000000000000000000000000000000000000000000081525f60048201526001600160a01b037f000000000000000000000000000000000000000000000000000000000000000081166024830152604482018390527f00000000000000000000000000000000000000000000000000000000000000001690630b0d9c09906064015f604051808303815f87803b158015611304575f80fd5b505af1158015611316573d5f803e3d5ffd5b505050505b7f9f063efc00000000000000000000000000000000000000000000000000000000611348610bbb83611ea1565b935093505050610f755f80611e1b565b611360611cbd565b61270f81111561139c576040517f3d4ed5f500000000000000000000000000000000000000000000000000000000815260040160405180910390fd5b600855565b5f600260085460036113b39190615562565b6113bd91906155dc565b905090565b5f80805c156113fd576040517f3a79ca5500000000000000000000000000000000000000000000000000000000815260040160405180910390fd5b6114085f6001611e1b565b611410611e22565b5f61141a88611d1f565b90505f806114328a848b8b61142d611e84565b612326565b9150915061143f82611ea1565b93508960065c5f6114797f00000000000000000000000000000000000000000000000000000000000000006001600160a01b031687611ec1565b90506114e1867f00000000000000000000000000000000000000000000000000000000000000006114ad8560a01c60020b90565b6114ba8560a01c60020b90565b6114ca6080890160608a016156b0565b5f8c81526001602052604090209493929190612e09565b835f0361151757507fb47b2fb1000000000000000000000000000000000000000000000000000000009650611590945050505050565b61152460208d018d615507565b1561154a576115458661153d60808601606087016156b0565b848488612e92565b611566565b6115668661155e60808601606087016156b0565b848488612f3d565b507fb47b2fb100000000000000000000000000000000000000000000000000000000965050505050505b61159a5f80611e1b565b965096945050505050565b5f60095482116115b657505f919050565b6009546115c3908361554f565b6201d4c06008546107709190615562565b7fffffffffffffffffffffffffffffffffffffffffffffffffffffffff74873927546001600160a01b0316336001600160a01b0316148061163d5750336001600160a01b037f000000000000000000000000000000000000000000000000000000000000000016145b611673576040517f82b4290000000000000000000000000000000000000000000000000000000000815260040160405180910390fd5b3061168460a08601608087016154df565b6001600160a01b0316146116c4576040517faf6a7d2600000000000000000000000000000000000000000000000000000000815260040160405180910390fd5b5f6116e16116d560208701876154df565b6001600160a01b031690565b14611718576040517ffafd184b00000000000000000000000000000000000000000000000000000000815260040160405180910390fd5b61173861172b60608601604087016156cb565b62ffffff16628000001490565b1561176f576040517ffafd184b00000000000000000000000000000000000000000000000000000000815260040160405180910390fd5b5f60035f61177c87611d1f565b815260208101919091526040015f20805490915060ff16156117ca576040517f7983c05100000000000000000000000000000000000000000000000000000000815260040160405180910390fd5b62030d408362ffffff16111561180c576040517fbb4568d600000000000000000000000000000000000000000000000000000000815260040160405180910390fd5b6207a1208262ffffff16111561184e576040517fbb4568d600000000000000000000000000000000000000000000000000000000815260040160405180910390fd5b80547fffffffffffffffffffffffffffffffffffffffffffffffffffffffffffffff001660011781556040517f6276cbbe0000000000000000000000000000000000000000000000000000000081526001600160a01b037f00000000000000000000000000000000000000000000000000000000000000001690636276cbbe906118de9088908890600401615768565b6020604051808303815f875af11580156118fa573d5f803e3d5ffd5b505050506040513d601f19601f8201168201806040525081019061191e919061578c565b5061192d8362ffffff16611d33565b81547fffffffffffffffffffffffffffffffffffffffffffff000000ffffffffffffff1667010000000000000062ffffff92831602178255611970908316611d33565b815462ffffff91909116610100027fffffffffffffffffffffffffffffffffffffffffffffffffffffffff000000ff9091161781556040517f5ad212b50000000000000000000000000000000000000000000000000000000081526001600160a01b037f00000000000000000000000000000000000000000000000000000000000000001690635ad212b590611a0e908890879087906004016157a7565b60408051808303815f875af1158015611a29573d5f803e3d5ffd5b505050506040513d601f19601f82011682018060405250810190611a4d91906157d3565b82547fffffffffffffffffffffffffffffffffffffff000000ffffff000000ffffffff1664010000000062ffffff928316027fffffffffffffffffffffffffffffffffffffff000000ffffffffffffffffffff16176a01000000000000000000009290911691909102178155611ac281611d4b565b600780546001810182555f9190915285906003027fa66cc928b5edb82af9bd49922954155ab7b0942694bea4ce44661d9a8736c68801611b02828261580b565b50505050505050565b60078181548110611b1a575f80fd5b5f9182526020909120600390910201805460018201546002928301546001600160a01b0392831694508183169362ffffff740100000000000000000000000000000000000000008404169377010000000000000000000000000000000000000000000000909304900b911685565b611b90612091565b816001600160a01b0316836001600160a01b03167ff46cd303fce92adbd224105c57a7f6d872ce4efbdc279a2e16eeb0349e03ef6083604051611bd591815260200190565b60405180910390a361091e6001600160a01b0384168383612fdd565b5f6040517f82b4290000000000000000000000000000000000000000000000000000000000815260040160405180910390fd5b611c2c612091565b63389a75e1600c52805f526020600c208054421115611c5257636f5e88185f526004601cfd5b5f9055610869816120c6565b611c66612091565b8060601b611c7b57637448fbae5f526004601cfd5b610869816120c6565b611c8c611cbd565b600a80547fffffffffffffffffffffffffffffffffffffffffffffffffffffffffffffff0016911515919091179055565b336001600160a01b037f00000000000000000000000000000000000000000000000000000000000000001614610f92576040517f82b4290000000000000000000000000000000000000000000000000000000000815260040160405180910390fd5b6040515f9060a083823760a0902092915050565b5f63010000008210611d4757611d476130e6565b5090565b8054620f424090611d7c9062ffffff6a01000000000000000000008204811691670100000000000000900416615594565b62ffffff161115611db9576040517f5102563b00000000000000000000000000000000000000000000000000000000815260040160405180910390fd5b8054620f424090611dde9062ffffff6401000000008204811691610100900416615594565b62ffffff161115610869576040517f5102563b00000000000000000000000000000000000000000000000000000000815260040160405180910390fd5b80825d5050565b336001600160a01b037f00000000000000000000000000000000000000000000000000000000000000001614610f92576040517ff832861400000000000000000000000000000000000000000000000000000000815260040160405180910390fd5b5f80611e90483a61554f565b9050611e9b816115a5565b91505090565b5f6f800000000000000000000000000000008210611d4757611d476130e6565b5f818152600660205260408120611ee16001600160a01b038516826130f3565b949350505050565b5f8181526006602052604081205f611f0d6001600160a01b038616600384016130f3565b95945050505050565b5f8080611f6785611f2a60208701876156b0565b611f3a60408801602089016156b0565b6006526003525f90815260608601356026908152603a600c209082905280825260208b9052604090912091565b90925090505f611f8c611f836001600160a01b038a1689611ec1565b60a01c60020b90565b90505f611fb982611fa060208901896156b0565b611fb060408a0160208b016156b0565b8d929190613123565b90505f611fd06001600160a01b038b168a86613182565b905086604001355f1215612010576040517ff0b815e900000000000000000000000000000000000000000000000000000000815260040160405180910390fd5b5f61203a61202189604001356131dd565b6fffffffffffffffffffffffffffffffff841690613209565b905061205f865f01548403826fffffffffffffffffffffffffffffffff166080613223565b9650861561206b578286555b50505050505095945050505050565b5f80612086483a61554f565b9050611e9b8161072a565b7fffffffffffffffffffffffffffffffffffffffffffffffffffffffff74873927543314610f92576382b429005f526004601cfd5b7fffffffffffffffffffffffffffffffffffffffffffffffffffffffff7487392780546001600160a01b039092169182907f8be0079c531659141344cd1fd0a4f28419497f9722a3daafe3b4186f6b6457e05f80a355565b600682905260038390525f8481526026828152603a600c2090829052808252602089905260408220908261215e611f836001600160a01b038c168b611ec1565b90505f61216d8c838a8a613123565b90505f6121846001600160a01b038d168c86613182565b90506121a9855f01548303826fffffffffffffffffffffffffffffffff166080613223565b9d9c50505050505050505050505050565b5f6121d1611f836001600160a01b03871686611ec1565b90505f6121fe826121e560208601866156b0565b6121f560408701602088016156b0565b8a929190613123565b90505f806122508661221360208801886156b0565b6122236040890160208a016156b0565b6006526003525f90815260608701356026908152603a600c209082905280825260208c9052604090912091565b90925090505f61226a6001600160a01b038a168984613182565b90505f866040013512156122aa576040517f4faf60ad00000000000000000000000000000000000000000000000000000000815260040160405180910390fd5b5f6122bb61202188604001356131dd565b9050806fffffffffffffffffffffffffffffffff165f036122de57848455612319565b5f612313855f01548703836fffffffffffffffffffffffffffffffff16856fffffffffffffffffffffffffffffffff16613294565b86038555505b5050505050505050505050565b5f848152600360205260408120805482919082906123649062ffffff67010000000000000082048116916a0100000000000000000000900416615594565b62ffffff1690505f602088013581139082156123f5578115612389575060055c6123f5565b5f61239760208b018b615507565b6123aa576123a589600f0b90565b6123b4565b6123b48960801d90565b90505f6123ca82600f0b60ff81901d9081011890565b90506123d985620f424061554f565b6123e38683615562565b6123ed91906155dc565b925082975050505b5f835f03612403575f61242b565b8454849061242190670100000000000000900462ffffff1684615562565b61242b91906155dc565b90505f612438828461554f565b90505f61244860208d018d615507565b612464578d602001602081019061245f91906154df565b612471565b61247160208f018f6154df565b9050895f0361266c57806001600160a01b03168d7f4f3af47ae845818dccca02b720630938172f8f30f297ce36d610f6031f4f9cdd856040516124b691815260200190565b60405180910390a3806001600160a01b03168d7fb661c59053cc5d835744f8d73767a91b37592bb2b3ecc41763d6cff1b640cdbd846040516124fa91815260200190565b60405180910390a36040517f0b0d9c090000000000000000000000000000000000000000000000000000000081526001600160a01b038281166004830152306024830152604482018590527f00000000000000000000000000000000000000000000000000000000000000001690630b0d9c09906064015f604051808303815f87803b158015612588575f80fd5b505af115801561259a573d5f803e3d5ffd5b50506040517f0b0d9c090000000000000000000000000000000000000000000000000000000081526001600160a01b0384811660048301527f000000000000000000000000000000000000000000000000000000000000000081166024830152604482018690527f0000000000000000000000000000000000000000000000000000000000000000169250630b0d9c0991506064015f604051808303815f87803b158015612646575f80fd5b505af1158015612658573d5f803e3d5ffd5b505f9a50612dff9950505050505050505050565b86545f90620f42409061268990610100900462ffffff168d615562565b61269391906155dc565b88549091505f90620f4240906126b690640100000000900462ffffff168e615562565b6126c091906155dc565b9050806126cd838e61554f565b6126d7919061554f565b99508e7f2c41765716fd143510d8216efd05e61f53d4510170841703d30bedbfd8b065268b60405161270b91815260200190565b60405180910390a26040517f156e29f60000000000000000000000000000000000000000000000000000000081523060048201525f6024820152604481018b90527f00000000000000000000000000000000000000000000000000000000000000006001600160a01b03169063156e29f6906064015f604051808303815f87803b158015612797575f80fd5b505af11580156127a9573d5f803e3d5ffd5b505050506001600160a01b038316612a48578e7f3ef0693476890caad2b9d55d2dc4f7d7049b3d1e6b22db3e8cb392128bc42cc7836040516127ed91815260200190565b60405180910390a28e7fd1d2a18b5ef4b8cb25db7c1c03b777c3b4548f0fdd6c100619ae390d441796148260405161282791815260200190565b60405180910390a25f6001600160a01b03168f7f4f3af47ae845818dccca02b720630938172f8f30f297ce36d610f6031f4f9cdd8760405161286b91815260200190565b60405180910390a35f6001600160a01b03168f7fb661c59053cc5d835744f8d73767a91b37592bb2b3ecc41763d6cff1b640cdbd866040516128af91815260200190565b60405180910390a36001600160a01b037f000000000000000000000000000000000000000000000000000000000000000016630b0d9c095f306128f2868a61595e565b6040517fffffffff0000000000000000000000000000000000000000000000000000000060e086901b1681526001600160a01b03938416600482015292909116602483015260448201526064015f604051808303815f87803b158015612956575f80fd5b505af1158015612968573d5f803e3d5ffd5b505050507f00000000000000000000000000000000000000000000000000000000000000006001600160a01b0316630b0d9c095f7f000000000000000000000000000000000000000000000000000000000000000084886129c9919061595e565b6040517fffffffff0000000000000000000000000000000000000000000000000000000060e086901b1681526001600160a01b03938416600482015292909116602483015260448201526064015f604051808303815f87803b158015612a2d575f80fd5b505af1158015612a3f573d5f803e3d5ffd5b50505050612df5565b8e7f3ef0693476890caad2b9d55d2dc4f7d7049b3d1e6b22db3e8cb392128bc42cc783604051612a7a91815260200190565b60405180910390a28e7fd1d2a18b5ef4b8cb25db7c1c03b777c3b4548f0fdd6c100619ae390d4417961482604051612ab491815260200190565b60405180910390a26040517f0b0d9c090000000000000000000000000000000000000000000000000000000081525f6004820152306024820152604481018390527f00000000000000000000000000000000000000000000000000000000000000006001600160a01b031690630b0d9c09906064015f604051808303815f87803b158015612b40575f80fd5b505af1158015612b52573d5f803e3d5ffd5b50506040517f0b0d9c090000000000000000000000000000000000000000000000000000000081525f60048201526001600160a01b037f000000000000000000000000000000000000000000000000000000000000000081166024830152604482018590527f0000000000000000000000000000000000000000000000000000000000000000169250630b0d9c0991506064015f604051808303815f87803b158015612bfc575f80fd5b505af1158015612c0e573d5f803e3d5ffd5b50505050826001600160a01b03168f7f4f3af47ae845818dccca02b720630938172f8f30f297ce36d610f6031f4f9cdd87604051612c4e91815260200190565b60405180910390a3826001600160a01b03168f7fb661c59053cc5d835744f8d73767a91b37592bb2b3ecc41763d6cff1b640cdbd86604051612c9291815260200190565b60405180910390a36040517f0b0d9c090000000000000000000000000000000000000000000000000000000081526001600160a01b038481166004830152306024830152604482018790527f00000000000000000000000000000000000000000000000000000000000000001690630b0d9c09906064015f604051808303815f87803b158015612d20575f80fd5b505af1158015612d32573d5f803e3d5ffd5b50506040517f0b0d9c090000000000000000000000000000000000000000000000000000000081526001600160a01b0386811660048301527f000000000000000000000000000000000000000000000000000000000000000081166024830152604482018890527f0000000000000000000000000000000000000000000000000000000000000000169250630b0d9c0991506064015f604051808303815f87803b158015612dde575f80fd5b505af1158015612df0573d5f803e3d5ffd5b505050505b5050505050505050505b9550959350505050565b8260020b8260020b1315612e4d578260020b612e31828460020b61334190919063ffffffff16565b60020b1315612e4857612e48868587868686613352565b612e8a565b8260020b8260020b1215612e8a575f600284900b828107919091129082900503810260020b8260020b1215612e8a57612e8a8685878686866133ae565b505050505050565b5f612ed87f00000000000000000000000000000000000000000000000000000000000000008787612ec68860a01c60020b90565b612ed38860a01c60020b90565b613416565b90505f612ee660045c61345f565b90505f80612f008484876001600160a01b038b168a613480565b91509150612f1b612f148860a01c60020b90565b8590613698565b612f328484876001600160a01b038b168686613784565b505050505050505050565b5f612f837f00000000000000000000000000000000000000000000000000000000000000008787612f718860a01c60020b90565b612f7e8860a01c60020b90565b6139ab565b90505f612f9160045c61345f565b90505f80612fab8484876001600160a01b038b168a6139f4565b91509150612fc6612fbf8860a01c60020b90565b8590613bb3565b612f328484876001600160a01b038b168686613c69565b5f6001600160a01b03841661302b575f805f8085875af190508061302657613026835f7ff4b3b1bc00000000000000000000000000000000000000000000000000000000613dfa565b6130e0565b6040517fa9059cbb0000000000000000000000000000000000000000000000000000000081526001600160a01b038416600482015282602482015260205f6044835f895af13d15601f3d1160015f511416171691505f81525f60208201525f604082015250806130e0576130e0847fa9059cbb000000000000000000000000000000000000000000000000000000007ff27f64e400000000000000000000000000000000000000000000000000000000613dfa565b50505050565b6335278d125f526004601cfd5b5f81602052631e2eaeaf5f5260205f6024601c865afa61311a5763535cf94b5f526004601cfd5b50505f51919050565b600282810b5f8181526001870160205260408082205485850b835290822054919390929087900b12156131595790039050611ee1565b8560020b8460020b1361316e57039050611ee1565b600287015491909103039050949350505050565b5f6006602052825f52600660405f2001602052815f5260405f20602052631e2eaeaf5f5260205f6024601c875afa6131c15763535cf94b5f526004601cfd5b50505f516fffffffffffffffffffffffffffffffff1692915050565b5f6f80000000000000000000000000000000820160801c6131fc575090565b6132046130e6565b919050565b808203608081901c1561077a5763c9654ed45f526004601cfd5b82820282848204148415176132875760ff82167fffffffffffffffffffffffffffffffffffffffffffffffffffffffffffffffff8486098281108301900380821c613278576101008290031b91901c0161328d565b505063ae47f7025f526004601cfd5b60ff82161c5b9392505050565b8282028183858304148515170261333a577fffffffffffffffffffffffffffffffffffffffffffffffffffffffffffffffff8385098181108201900382848609835f0384168285116132ed5763ae47f7025f526004601cfd5b93849004938382119092035f83900383900460010102920304176002600383028118808402820302808402820302808402820302808402820302808402820302808402909103020261328d565b0492915050565b5f8183071291819005919091030290565b60028601545b5f61336e6001600160a01b038816878786613ebb565b95509050600285810b9085900b12156133875750611b02565b80156133a857600285900b5f90815260018901602052604090208054830390555b50613358565b60028601545b5f6133ca6001600160a01b038816878786613f17565b95509050600284810b9086900b136133e25750611b02565b801561340357600285900b5f90815260018901602052604090208054830390555b8461340d81615971565b955050506133b4565b6040805160c0810182525f6060820181905260a08201526001600160a01b038716815260208101869052600285810b928201929092529082900b6080820152611f0d8184613698565b5f7001000000000000000000000000000000008210611d4757611d476130e6565b5f805f805f5b60808a015160608b0151600291820b910b131561358a576134a68a613f4f565b94506134b185613fa9565b90505f6134c082898c5f6142a6565b90505f6134cf838a8d5f614370565b90506134db828661595e565b94506134e7818561595e565b93506134fc6001600160a01b038416806143ce565b6135106135098c8861595e565b86906143db565b1061354057613534898b8d613525868a61554f565b61352f868a61554f565b6143f4565b95505050505050612dff565b505060208a01518a515f9161355f916001600160a01b031690886145de565b915061357f90506fffffffffffffffffffffffffffffffff8b1682613209565b995081975050613486565b506001600160a01b0385165f6135a282898c846142a6565b90505f6135b1838a8d5f614370565b90506135bd828661595e565b94506135c9818561595e565b93505f6135d96135098c8861595e565b90506135ee6001600160a01b038516806143ce565b81111561363f5761360f8a8c8e613605878b61554f565b61352f878b61554f565b96507fffffffffffffffffffffffffffffffffffffffffffffffffffffffffff8000009750505050505050612dff565b5f8061364b5f84614643565b915091507fffffffffffffffffffffffffffffffffffffffffffffffffffffffffff80000061368261367d84846146a0565b614824565b9950995050505050505050509550959350505050565b8060020b826080015160020b13156136dc576040517f561ce9bb00000000000000000000000000000000000000000000000000000000815260040160405180910390fd5b6136e78160016159cd565b600290810b60608401526080830151810b9082900b0361372b57507fffffffffffffffffffffffffffffffffffffffffffffffffffffffffff800000606090910152565b5f61375761374984604001518460020b61484990919063ffffffff16565b600881901d9160ff90911690565b5060208401518451919250613776916001600160a01b03169083614854565b60a084015261091e83614882565b5f6137a9600161379d6001600160a01b038516806143ce565b90808218908210021890565b90505f805b608089015160608a0151600291820b910b131561392f575f6137cf8a613f4f565b90506137e36137dd82613fa9565b86614938565b91505f8660020b8260020b1215801561380d57506fffffffffffffffffffffffffffffffff8a1615155b15613882575f61381f848a8d5f6142a6565b90505f61382e858b8e5f614370565b90506138588b61384c84613842858c6143db565b9080821191030290565b90808218908211021890565b9250828b039a5061387b838d6fffffffffffffffffffffffffffffffff1661495f565b8601955050505b60208b810180515f90815260018084526040808320600288900b8085529201855291829020805489019055915181519283529282018790527fc6c4b1cb6cb30eda704448c7d7d60e9a7994aaa0aa9aa71da50d8acbce80da78910160405180910390a260208b01518b515f91613902916001600160a01b031690856145de565b915061392290506fffffffffffffffffffffffffffffffff8c1682613209565b9a508398505050506137ae565b61394b87896fffffffffffffffffffffffffffffffff1661495f565b60208a810180515f908152600183526040908190206002018054969094019586019093555191518481527f422196c03172843fe0a93ef5f2a2edae3275f7a41285011dfec95fd8958ea21e910160405180910390a2505050505050505050565b6040805160c0810182525f6060820181905260a08201526001600160a01b038716815260208101869052600285810b928201929092529082900b6080820152611f0d8184613bb3565b5f805f805f5b60808a015160608b0151600291820b910b13613b0557613a198a6149b7565b9450613a2485613fa9565b90505f613a3388838c5f6142a6565b90505f613a4289848d5f614370565b9050613a4e828661595e565b9450613a5a818561595e565b935089851115613abb575f613a726135098c8861554f565b9050613a876001600160a01b038516806143ce565b8111613ab957613aac8c8b8d613a9d878b61554f565b613aa7878b61554f565b614a12565b9650505050505050612dff565b505b505060208a01518a515f91613ada916001600160a01b031690886145de565b9150613afa90506fffffffffffffffffffffffffffffffff8b1682614b75565b9950819750506139fa565b506001600160a01b0385165f613b1d88838c846142a6565b90505f613b2c89848d5f614370565b9050613b38828661595e565b9450613b44818561595e565b93505f613b546135098c8861554f565b9050613b696001600160a01b038516806143ce565b8111613b9257613b7f8c8b8d613a9d878b61554f565b9650627fffff9750505050505050612dff565b5f80613b9e5f84614643565b91509150627fffff61368261367d84846146a0565b816080015160020b8160020b1315613bf7576040517f561ce9bb00000000000000000000000000000000000000000000000000000000815260040160405180910390fd5b600281810b60608401819052608084015190910b9003613c1e5750627fffff606090910152565b5f613c3c61374984604001518460020b61484990919063ffffffff16565b5060208401518451919250613c5b916001600160a01b03169083614854565b60a084015261091e83614b8f565b5f613c82600161379d6001600160a01b038516806143ce565b90505f805b608089015160608a0151600291820b910b1361392f575f613ca78a6149b7565b9050613cbb613cb582613fa9565b86614c35565b91505f8660020b8260020b13158015613ce557506fffffffffffffffffffffffffffffffff8a1615155b15613d4d575f613cf789858d5f6142a6565b90505f613d068a868e5f614370565b9050613d238b61384c613d19848b6143db565b8086039086110290565b9250828b039a50613d46838d6fffffffffffffffffffffffffffffffff1661495f565b8601955050505b60208b810180515f90815260018084526040808320600288900b8085529201855291829020805489019055915181519283529282018790527fc6c4b1cb6cb30eda704448c7d7d60e9a7994aaa0aa9aa71da50d8acbce80da78910160405180910390a260208b01518b515f91613dcd916001600160a01b031690856145de565b9150613ded90506fffffffffffffffffffffffffffffffff8c1682614b75565b9a50839850505050613c87565b6040517f90bfb865000000000000000000000000000000000000000000000000000000008082526001600160a01b03851660048301527fffffffff0000000000000000000000000000000000000000000000000000000084166024830152608060448301526020601f3d018190040260a0810160648401523d608484015290913d5f60a483013e60048260a4018201527fffffffff0000000000000000000000000000000000000000000000000000000084168260c4018201528160e40181fd5b5f808080613ed78587078213868805035b6137499060016159cd565b9092509050613efa81613ef46001600160a01b038b168a86614854565b90614c55565b9094509050613f0a828287614d17565b9250505094509492505050565b5f808080613f2c858707821386880503613749565b9092509050613efa81613f496001600160a01b038b168a86614854565b90614d41565b608081015160608201515f91600290810b91900b13613f9a576040517ffced566800000000000000000000000000000000000000000000000000000000815260040160405180910390fd5b50606081015161320482614882565b60020b5f60ff82901d80830118620d89e8811115613feb57613feb7f8b86327a0000000000000000000000000000000000000000000000000000000084614e09565b7001fffcb933bd6fad37aa2d162d1a5940016001821602700100000000000000000000000000000000186002821615614034576ffff97272373d413259a46990580e213a0260801c5b6004821615614053576ffff2e50f5f656932ef12357cf3c7fdcc0260801c5b6008821615614072576fffe5caca7e10e4e61c3624eaa0941cd00260801c5b6010821615614091576fffcb9843d60f6159c9db58835c9266440260801c5b60208216156140b0576fff973b41fa98c081472e6896dfb254c00260801c5b60408216156140cf576fff2ea16466c96a3843ec78b326b528610260801c5b60808216156140ee576ffe5dee046a99a2a811c461f1969c30530260801c5b61010082161561410e576ffcbe86c7900a88aedcffc83b479aa3a40260801c5b61020082161561412e576ff987a7253ac413176f2b074cf7815e540260801c5b61040082161561414e576ff3392b0822b70005940c7a398e4b70f30260801c5b61080082161561416e576fe7159475a2c29b7443b29c7fa6e889d90260801c5b61100082161561418e576fd097f3bdfd2022b8845ad8f792aa58250260801c5b6120008216156141ae576fa9f746462d870fdf8a65dc1f90e061e50260801c5b6140008216156141ce576f70d869a156d2a1b890bb3df62baf32f70260801c5b6180008216156141ee576f31be135f97d08fd981231505542fcfa60260801c5b6201000082161561420f576f09aa508b5b7a84e1c677de54f3e99bc90260801c5b6202000082161561422f576e5d6af8dedb81196699c329225ee6040260801c5b6204000082161561424e576d2216e584f5fa1ea926041bedfe980260801c5b6208000082161561426b576b048a170391f7dc42444e8fa20260801c5b5f841315614296577fffffffffffffffffffffffffffffffffffffffffffffffffffffffffffffffff045b63ffffffff0160201c9392505050565b5f836001600160a01b0316856001600160a01b031611156142c5579293925b6001600160a01b0385166142df5762bfc9215f526004601cfd5b7bffffffffffffffffffffffffffffffff000000000000000000000000606084901b166001600160a01b03868603168361434457866001600160a01b03166143318383896001600160a01b0316614e18565b8161433e5761433e6155af565b0461108a565b61108a61435b8383896001600160a01b0316614ed3565b886001600160a01b0316808204910615150190565b5f6001600160a01b038481169086160360ff81901d908101186c010000000000000000000000006fffffffffffffffffffffffffffffffff85166143b5818484614e18565b9350845f83858409111684019350505050949350505050565b5f61328d83836060613223565b5f61328d836c0100000000000000000000000084613294565b5f8061441b6fffffffffffffffffffffffffffffffff86166001600160a01b0389166143db565b90505f6144436fffffffffffffffffffffffffffffffff87166001600160a01b038a166143ce565b90505f614450888761595e565b90505f8061445e8484614f03565b9150915084831115614513575f614475868561554f565b90505f80614483838b614f03565b9150915061449385858484614f3b565b90955093506144a6915084905083614f90565b90935091506144d65f6144b985856146a0565b5f60608e6fffffffffffffffffffffffffffffffff16901b614fe8565b90935091505f806144e8858585615036565b91509150815f146144fb576144fb615a0e565b61450481614824565b98505050505050505050611f0d565b84831015614593575f614526848761554f565b90505f80614534838b614f03565b9150915061454485858484614fe8565b9095509350614557915084905083614f90565b90935091506144d65f7bffffffffffffffffffffffffffffffff00000000000000000000000060608d901b168161458e87876146a0565b614fe8565b6145d261367d6145a560016060615a3b565b60ff166001901b8b6fffffffffffffffffffffffffffffffff16878b6145cb919061595e565b9190613294565b95505050505050611f0d565b5f806006602052835f52600460405f2001602052825f5260405f20602052631e2eaeaf5f5260205f6024601c885afa61461e5763535cf94b5f526004601cfd5b50505f516fffffffffffffffffffffffffffffffff81169460809190911d9350915050565b5f806001600160a01b0384168414614687576040517f35278d1200000000000000000000000000000000000000000000000000000000815260040160405180910390fd5b5050606082811b60a083901c179082901b5b9250929050565b5f825f0361473f576147388270ffffffffffffffffffffffffffffffffff811160071b81811c68ffffffffffffffffff1060061b1781811c64ffffffffff1060051b1781811c62ffffff1060041b1781811c620100000160b5600192831c1b0260121c80830401811c80830401811c80830401811c80830401811c80830401811c80830401811c80830401901c908190048111900390565b905061077a565b60028360020110156147565750801515821761077a565b60016147e9847f0706060506020504060203020504030106050205030304010505030400000000601f6f8421084210842108cc6318c6db6d54be831560081b6fffffffffffffffffffffffffffffffff851160071b1784811c67ffffffffffffffff1060061b1784811c63ffffffff1060051b1784811c61ffff1060041b1784811c60ff1060031b1793841c1c161a1790565b901c6081016001901b90506001810390505f5b5080614809848483615036565b82811690831860011c019250508082106147fc579392505050565b5f740100000000000000000000000000000000000000008210611d4757611d476130e6565b5f8183071291050390565b5f8281526006602090815260408083208484526005019091528120611f0d6001600160a01b038616826130f3565b5f806148af6137498460400151600186606001516148a09190615a54565b60020b905f8183071291050390565b915091508060ff1660ff036148e157602083015183516148db916001600160a01b039091169084614854565b60a08401525b60a08301515f906148f29083614d41565b809350819250505061490983838660400151614d17565b60020b6060850152801561491d5750505050565b505050806060015160020b816080015160020b126148825750565b5f816001600160a01b0316836001600160a01b031611614958578161328d565b5090919050565b5f70010000000000000000000000000000000083106149aa576040517f5008206500000000000000000000000000000000000000000000000000000000815260040160405180910390fd5b608083901b82900461328d565b608081015160608201515f91600290810b91900b1315614a03576040517ffced566800000000000000000000000000000000000000000000000000000000815260040160405180910390fd5b50606081015161320482614b8f565b5f80614a396fffffffffffffffffffffffffffffffff88166001600160a01b0388166143db565b90505f614a616fffffffffffffffffffffffffffffffff89166001600160a01b0389166143ce565b90505f86614a6f848861595e565b614a79919061554f565b90505f805f80614a898986614f03565b915091508a8a10614ac257614aa786614aa28d8d61554f565b614f03565b9094509250614ab882828686614fe8565b9094509250614ae7565b614ad086614aa28c8e61554f565b9094509250614ae182828686614f3b565b90945092505b5050614af38282614f90565b90925090505f614b0383836146a0565b90507bffffffffffffffffffffffffffffffff00000000000000000000000060608d901b16614b345f828185614f3b565b90945092505f80614b46868689615036565b91509150815f14614b5957614b59615a0e565b614b6281614824565b9f9e505050505050505050505050505050565b818101608081901c1561077a5763c9654ed45f526004601cfd5b5f80614bac613ecc846060015185604001515f8183071291050390565b915091508060ff165f03614bdd5760208301518351614bd7916001600160a01b039091169084614854565b60a08401525b60a08301515f90614bee9083614c55565b8093508192505050614c0583838660400151614d17565b60020b60608501528015614c195750505050565b505050806080015160020b816060015160020b1315614b8f5750565b5f816001600160a01b0316836001600160a01b031610614958578161328d565b5f805f614cf08460ff1686901c7e1f0d1e100c1d070f090b19131c1706010e11080a1a141802121b150316040581196001019091166101e07f804040554300526644320000502061067405302602000010750620017611707760fc7fb6db6db6ddddddddd34d34d349249249210842108c6318c639ce739cffffffff840260f81c161b60f71c1690811c63d76453e004601f169190911a1790565b9050806101001415925082614d065760ff614d0d565b8360ff1681015b9150509250929050565b5f8160ff8416614d2d600187900b610100615a95565b614d3791906159cd565b611ee19190615a95565b5f805f8360ff0390505f614de28260ff1687901b7f0706060506020504060203020504030106050205030304010505030400000000601f6f8421084210842108cc6318c6db6d54be831560081b6fffffffffffffffffffffffffffffffff851160071b1784811c67ffffffffffffffff1060061b1784811c63ffffffff1060051b1784811c61ffff1060041b1784811c60ff1060031b1793841c1c161a1790565b9050806101001415935083614df7575f614dfe565b8160ff1681035b925050509250929050565b815f528060020b60045260245ffd5b5f838302817fffffffffffffffffffffffffffffffffffffffffffffffffffffffffffffffff85870982811083820303915050808411614e56575f80fd5b805f03614e685750829004905061328d565b5f848688095f868103871696879004966002600389028118808a02820302808a02820302808a02820302808a02820302808a02820302808a02909103029181900381900460010186841190950394909402919094039290920491909117919091029150509392505050565b5f614edf848484614e18565b90508180614eef57614eef6155af565b8385091561328d576001018061328d575f80fd5b5f8282027fffffffffffffffffffffffffffffffffffffffffffffffffffffffffffffffff8385098181108201900394909350915050565b808301838110838601810191908210868310178015614f86576040517f35278d1200000000000000000000000000000000000000000000000000000000815260040160405180910390fd5b5094509492505050565b5f8067ffffffffffffffff84168414614fd5576040517f35278d1200000000000000000000000000000000000000000000000000000000815260040160405180910390fd5b5050604081901c60c092831b1792911b90565b828111828503819003908285039086851416868311178015614f86576040517fcaccb6d900000000000000000000000000000000000000000000000000000000815260040160405180910390fd5b5f80825f03615071576040517f74ab0c9000000000000000000000000000000000000000000000000000000000815260040160405180910390fd5b828504915082850683858183817fffffffffffffffffffffffffffffffffffffffffffffffffffffffffffffffff8209080892965f858103861695869004600381026002908118808302820302808302820302808302820302808302820302808302820302918202900302858803879004600192889003979097049190910196909411909103949094029290921702925050565b5f60208284031215615115575f80fd5b5035919050565b5f60a0828403121561512c575f80fd5b50919050565b5f8060c08385031215615143575f80fd5b61514d848461511c565b9460a0939093013593505050565b6001600160a01b0381168114610869575f80fd5b5f6060828403121561512c575f80fd5b5f8083601f84011261518f575f80fd5b50813567ffffffffffffffff8111156151a6575f80fd5b602083019150836020828501011115614699575f80fd5b5f805f805f61014086880312156151d2575f80fd5b85356151dd8161515b565b94506151ec876020880161511c565b93506151fb8760c0880161516f565b925061012086013567ffffffffffffffff811115615217575f80fd5b6152238882890161517f565b969995985093965092949392505050565b5f805f805f805f8789036101a081121561524c575f80fd5b88356152578161515b565b97506152668a60208b0161511c565b965060807fffffffffffffffffffffffffffffffffffffffffffffffffffffffffffffff4082011215615297575f80fd5b5060c0880194506101408801359350610160880135925061018088013567ffffffffffffffff8111156152c8575f80fd5b6152d48a828b0161517f565b989b979a50959850939692959293505050565b8060020b8114610869575f80fd5b5f805f805f610120868803121561530a575f80fd5b615314878761511c565b945060a08601356153248161515b565b935060c0860135615334816152e7565b925060e0860135615344816152e7565b94979396509194610100013592915050565b5f60a08284031215615366575f80fd5b61328d838361511c565b5f805f805f806101608789031215615386575f80fd5b86356153918161515b565b95506153a0886020890161511c565b94506153af8860c0890161516f565b9350610120870135925061014087013567ffffffffffffffff8111156153d3575f80fd5b6153df89828a0161517f565b979a9699509497509295939492505050565b62ffffff81168114610869575f80fd5b5f805f806101008587031215615415575f80fd5b61541f868661511c565b935060a085013561542f8161515b565b925060c085013561543f816153f1565b915060e085013561544f816153f1565b939692955090935050565b5f805f6060848603121561546c575f80fd5b83356154778161515b565b925060208401356154878161515b565b929592945050506040919091013590565b5f805f60e084860312156154aa575f80fd5b83356154b58161515b565b92506154c4856020860161511c565b915060c08401356154d48161515b565b809150509250925092565b5f602082840312156154ef575f80fd5b813561328d8161515b565b8015158114610869575f80fd5b5f60208284031215615517575f80fd5b813561328d816154fa565b7f4e487b71000000000000000000000000000000000000000000000000000000005f52601160045260245ffd5b8181038181111561077a5761077a615522565b808202811582820484141761077a5761077a615522565b5f60208284031215615589575f80fd5b815161328d816154fa565b62ffffff818116838216019081111561077a5761077a615522565b7f4e487b71000000000000000000000000000000000000000000000000000000005f52601260045260245ffd5b5f8261560f577f4e487b71000000000000000000000000000000000000000000000000000000005f52601260045260245ffd5b500490565b600f81810b9083900b016f7fffffffffffffffffffffffffffffff81137fffffffffffffffffffffffffffffffff800000000000000000000000000000008212171561077a5761077a615522565b600f82810b9082900b037fffffffffffffffffffffffffffffffff8000000000000000000000000000000081126f7fffffffffffffffffffffffffffffff8213171561077a5761077a615522565b5f602082840312156156c0575f80fd5b813561328d816152e7565b5f602082840312156156db575f80fd5b813561328d816153f1565b80356156f18161515b565b6001600160a01b03168252602081013561570a8161515b565b6001600160a01b031660208301526040810135615726816153f1565b62ffffff166040830152606081013561573e816152e7565b60020b606083015260808101356157548161515b565b6001600160a01b0381166080840152505050565b60c0810161577682856156e6565b6001600160a01b03831660a08301529392505050565b5f6020828403121561579c575f80fd5b815161328d816152e7565b60e081016157b582866156e6565b62ffffff841660a083015262ffffff831660c0830152949350505050565b5f80604083850312156157e4575f80fd5b82516157ef816153f1565b6020840151909250615800816153f1565b809150509250929050565b81356158168161515b565b81547fffffffffffffffffffffffff0000000000000000000000000000000000000000166001600160a01b0382161782555060018101602083013561585a8161515b565b81547fffffffffffffffffffffffff0000000000000000000000000000000000000000166001600160a01b03821617825550604083013561589a816153f1565b815460608501356158aa816152e7565b8060b81b79ffffff00000000000000000000000000000000000000000000001676ffffff00000000000000000000000000000000000000008460a01b167fffffffffffff000000000000ffffffffffffffffffffffffffffffffffffffff841617178455505050505f60808301356159218161515b565b6002830180547fffffffffffffffffffffffff0000000000000000000000000000000000000000166001600160a01b0383161790559050806130e0565b8082018082111561077a5761077a615522565b5f8160020b7fffffffffffffffffffffffffffffffffffffffffffffffffffffffffff80000081036159a5576159a5615522565b7fffffffffffffffffffffffffffffffffffffffffffffffffffffffffffffffff0192915050565b600281810b9083900b01627fffff81137fffffffffffffffffffffffffffffffffffffffffffffffffffffffffff8000008212171561077a5761077a615522565b7f4e487b71000000000000000000000000000000000000000000000000000000005f52600160045260245ffd5b60ff828116828216039081111561077a5761077a615522565b600282810b9082900b037fffffffffffffffffffffffffffffffffffffffffffffffffffffffffff8000008112627fffff8213171561077a5761077a615522565b5f8260020b8260020b028060020b9150808214615ab457615ab4615522565b509291505056fea164736f6c634300081a000a","linkReferences":{}},"methodIdentifiers":{"HOOK_ADDRESS_MINER()":"7ba0a0e8","HOOK_INITCODE_STORE()":"2b03ad4e","UNI_V4()":"34556265","allHooks(uint256)":"0f22338a","cancelOwnershipHandover()":"54d1f13d","completeOwnershipHandover(address)":"f04e283e","createNewHookAndPoolWithMiner(address,(address,address,uint24,int24,address),uint160,uint24,uint24)":"b9b7469b","createNewHookAndPoolWithSalt(address,bytes32,(address,address,uint24,int24,address),uint160,uint24,uint24)":"3160f249","defaultJITTaxEnabled()":"042d5173","defaultPriorityFeeTaxFloor()":"8b14f43b","defaultProtocolSwapFeeAsMultipleE6()":"ebb132ff","defaultProtocolTaxFeeE6()":"1796d1b7","defaultSwapMEVTaxFactor()":"e068c8b5","deployNewHook(address,bytes32)":"cf42b55d","getDefaultNetPoolSafeSwapFee(uint256,uint256)":"d2de4386","getDefaultProtocolSwapFee(uint256,uint256)":"603dbf2e","hookPoolIds(bytes32)":"4217272d","isVerifiedHook(address)":"c065d0dc","owner()":"8da5cb5b","ownershipHandoverExpiresAt(address)":"fee81cf4","recordPoolCreationAndGetStartingProtocolFee((address,address,uint24,int24,address),uint24,uint24)":"5ad212b5","renounceOwnership()":"715018a6","requestOwnershipHandover()":"25692962","setDefaultJITTaxEnabled(bool)":"75ecc970","setDefaultPriorityFeeTaxFloor(uint256)":"0641a685","setDefaultProtocolSwapFeeMultiple(uint24)":"5f3b4166","setDefaultProtocolTaxFee(uint24)":"a31d946a","setDefaultSwapMEVTaxFactor(uint256)":"903cee27","setEmergencyWithdrawOnly()":"2f7f5fd5","setJITTaxEnabled(address,bool)":"5b97e691","setPriorityFeeTaxFloor(address,uint256)":"603be010","setProtocolSwapFee(address,(address,address,uint24,int24,address),uint256)":"83588861","setProtocolTaxFee(address,(address,address,uint24,int24,address),uint256)":"03cccd07","setSwapMEVTaxFactor(address,uint256)":"10bce7b7","transferOwnership(address)":"f2fde38b","withdrawOnly()":"57da4464","withdrawRevenue(address,address,uint256)":"601f53b1"},"id":115}